:100000000C945D000C9485000C9485000C94850084
:100010000C9485000C9485000C9485000C9485004C
:100020000C9485000C9485000C9485000C9485003C
:100030000C9485000C9485000C9485000C9485002C
:100040000C94D5030C9485000C9445040C941F0467
:100050000C9485000C9485000C9485000C9485000C
:100060000C9485000C94850000000008000201003B
:100070000003040700000000000000000000000072
:10008000250028002B0000000000240027002A0083
:10009000040404040404040402020202020203032E
:1000A0000303030301020408102040800102040836
:1000B0001020010204081020740511241FBECFEF88
:1000C000D8E0DEBFCDBF21E0A4E5B1E001C01D92C4
:1000D000AE3FB207E1F711E0A0E0B1E0E2E4F0E109
:1000E00002C005900D92A435B107D9F710E0CDE517
:1000F000D0E004C02197FE010E940D06CC35D10747
:10010000C9F70E9477040C941F080C940000ECEAD5
:10011000F0E02491E8E9F0E08491882399F090E000
:10012000880F991FFC01EA57FF4FA591B491FC017C
:10013000E458FF4F859194918FB7F894EC91E22B9E
:10014000EC938FBF0895E0E7F0E02491ECEAF0E053
:100150009491E8E9F0E0E491EE2309F43BC0222316
:1001600039F1233091F038F42130A9F0223001F533
:1001700024B52F7D12C0273091F02830A1F0243013
:10018000B9F4209180002F7D03C0209180002F774B
:10019000209380000DC024B52F7724BD09C0209185
:1001A000B0002F7703C02091B0002F7D2093B000C6
:1001B000F0E0EE0FFF1FE458FF4FA591B4912FB769
:1001C000F894EC91811103C090959E2301C09E2B61
:1001D0009C932FBF0895CF93DF93EC010E9487007B
:1001E000209711F480E004C0CF3FD10529F481E0CD
:1001F000DF91CF910C94A300E0E7F0E0E491E330CD
:10020000F9F048F4E130B9F0E230A1F584B580624C
:1002100084BDC8BD34C0E730E9F0E83019F1E430FE
:1002200049F580918000806280938000D0938B009C
:10023000C0938A0024C084B5806884BDC7BD1FC038
:1002400080918000806880938000D0938900C09363
:10025000880015C08091B00080688093B000C09382
:10026000B3000DC08091B00080628093B000C09355
:10027000B40005C0C038D1050CF0B9CFB3CFDF91C1
:10028000CF9108953FB7F8948091590190915A0108
:10029000A0915B01B0915C0126B5A89B05C02F3FE2
:1002A00019F00196A11DB11D3FBFBA2FA92F982F9C
:1002B0008827820F911DA11DB11DBC01CD0142E017
:1002C000660F771F881F991F4A95D1F708958F925F
:1002D0009F92AF92BF92CF92DF92EF92FF920E94D5
:1002E00042014B015C0188ECC82ED12CE12CF12C91
:1002F0000E944201DC01CB0188199909AA09BB09B6
:10030000883E9340A105B10558F021E0C21AD108FA
:10031000E108F10888EE880E83E0981EA11CB11C4C
:10032000C114D104E104F10419F7FF90EF90DF90BC
:10033000CF90BF90AF909F908F900895CF92DF9213
:10034000EF92FF920F931F93CF93DF936C017A018B
:100350008B01C0E0D0E0CE15DF0589F0D8016D91AA
:100360008D01D601ED91FC910190F081E02DC60147
:100370000995892B11F47E0102C02196ECCFC701AB
:10038000DF91CF911F910F91FF90EF90DF90CF9071
:100390000895089580E090E00895FC01538D448D08
:1003A000252F30E0842F90E0821B930B541710F020
:1003B000CF96089501970895FC01918D828D98172D
:1003C00061F0828DDF01A80FB11D5D968C91928D39
:1003D0009F5F9F73928F90E008958FEF9FEF089536
:1003E000FC01918D828D981731F0828DE80FF11DFF
:1003F000858D90E008958FEF9FEF0895FC01918D1A
:10040000228D892F90E0805C9F4F821B91098F7312
:10041000992708958DE591E00E94FE0121E0892B46
:1004200009F420E0822F0895FC01848DDF01A80FDC
:10043000B11DA35ABF4F2C91848D90E001968F730C
:100440009927848FA689B7892C93A089B1898C912B
:1004500080648C93938D848D981306C00288F389F1
:10046000E02D80818F7D80830895EF92FF920F931E
:100470001F93CF93DF93EC0181E0888F9B8D8C8D50
:10048000981305C0E889F989808185FD24C0F62E7E
:100490000B8D10E00F5F1F4F0F731127E02E8C8D17
:1004A000E8120CC00FB607FCFACFE889F989808101
:1004B00085FFF5CFCE010E941402F1CF8B8DFE0196
:1004C000E80FF11DE35AFF4FF0820B8FEA89FB8999
:1004D0008081806207C0EE89FF896083E889F9899D
:1004E00080818064808381E090E0DF91CF911F91D3
:1004F0000F91FF90EF900895CF93DF93EC01888DDB
:100500008823C9F0EA89FB89808185FD05C0A88917
:10051000B9898C9186FD0FC00FB607FCF5CF80819D
:1005200085FFF2CFA889B9898C9185FFEDCFCE01E7
:100530000E941402E7CFDF91CF91089580E090E010
:10054000892B29F00E940A0281110C940000089561
:10055000CF93DF93009779F0FC0101900020E9F739
:100560003197AF01481B590BBC018DE591E00E940A
:100570009E01EC0102C0C0E0D0E042E050E068E142
:1005800071E08DE591E00E949E018C0F9D1FDF912F
:10059000CF910895CF93DF93FC0144815581608111
:1005A00071818DE591E00E949E01EC0142E050E0F6
:1005B00068E171E08DE591E00E949E018C0F9D1F26
:1005C000DF91CF910895CF93DF93EC0188819981DA
:1005D000009711F00E94A806198218821D821C82C1
:1005E0001B821A82DF91CF9108950E940A080F930F
:1005F0001F93CF93DF93EC0188819981009729F0B5
:100600002A813B812617370788F48B016F5F7F4F64
:100610000E944007009761F0998388831B830A83B7
:100620002C813D81232B11F4FC01108281E001C05B
:1006300080E0DF91CF911F910F910895EF92FF928B
:100640000F931F93CF93DF93EC01FB01848195817E
:10065000E080F1800C811D81E114F104B1F000977C
:10066000B9F0080F191FB801CE010E94F7028823C4
:1006700061F0288139818C819D81B701820F931FA0
:100680000E9418081D830C8303C0CE010E94E30260
:10069000CE01DF91CF911F910F91FF90EF900895C0
:1006A0000F931F93CF93DF93EC010C811D81085FA3
:1006B0001F4FB8010E94F702882369F02881398111
:1006C0008C819D816BE171E0820F931F0E9418085D
:1006D0001D830C8303C0CE010E94E302CE01DF9193
:1006E000CF911F910F910895EF92FF920F931F9357
:1006F000CF93DF93EC01198218821B821A821D822C
:100700001C826115710521F18B01FB010190002014
:10071000E9F731977F01E61AF70AB7010E94F7025D
:10072000811109C0CE01DF91CF911F910F91FF90F0
:10073000EF900C94E302FD82EC82B80188819981EC
:10074000DF91CF911F910F91FF90EF900C941808BB
:10075000DF91CF911F910F91FF90EF9008950F932C
:100760001F93CF93DF93CDB7DEB760970FB6F894A2
:10077000DEBF0FBECDBF8C01CB014AE0BE016F5F73
:100780007F4F0E94A105BE016F5F7F4FC8010E948D
:100790007403C80160960FB6F894DEBF0FBECDBFDC
:1007A000DF91CF911F910F9108951F920F920FB675
:1007B0000F9211242F933F938F939F93AF93BF93E7
:1007C0008091550190915601A0915701B091580127
:1007D0003091540123E0230F2D3720F40196A11D01
:1007E000B11D05C026E8230F0296A11DB11D20935F
:1007F00054018093550190935601A0935701B093F3
:1008000058018091590190915A01A0915B01B091DA
:100810005C010196A11DB11D8093590190935A016D
:10082000A0935B01B0935C01BF91AF919F918F91B9
:100830003F912F910F900FBE0F901F9018951F9210
:100840000F920FB60F9211242F933F934F935F9304
:100850006F937F938F939F93AF93BF93EF93FF9388
:100860008DE591E00E941402FF91EF91BF91AF914D
:100870009F918F917F916F915F914F913F912F91B8
:100880000F900FBE0F901F9018951F920F920FB6EA
:100890000F9211242F938F939F93EF93FF93E091E7
:1008A0006D01F0916E018081E0917301F09174010E
:1008B00082FD12C09081809176018F5F8F732091AD
:1008C0007701821751F0E0917601F0E0E35AFE4F94
:1008D000958F8093760101C08081FF91EF919F9168
:1008E0008F912F910F900FBE0F901F901895CF935F
:1008F000DF93CDB7DEB762970FB6F894DEBF0FBEB9
:10090000CDBF789484B5826084BD84B5816084BD98
:1009100085B5826085BD85B5816085BD80916E009D
:10092000816080936E0010928100809181008260CE
:10093000809381008091810081608093810080910B
:1009400080008160809380008091B10084608093FA
:10095000B1008091B00081608093B00080917A00F6
:10096000846080937A0080917A00826080937A001C
:1009700080917A00816080937A0080917A0080680B
:1009800080937A001092C100E0916D01F0916E01A8
:1009900082E08083E0916901F0916A011082E09128
:1009A0006B01F0916C0180E1808310927501E09100
:1009B0007101F091720186E08083E0916F01F09106
:1009C0007001808180618083E0916F01F0917001FE
:1009D000808188608083E0916F01F0917001808157
:1009E00080688083E0916F01F091700180818F7D3C
:1009F000808384E291E00E94A80280E391E00E945B
:100A0000A8020E94870000E010E0C8010E94EB00ED
:100A1000B801CE0101960E94AF0368E070E0CE01FC
:100A200007960E94AF0368E471E0CE010D960E9424
:100A30007403BE01695F7F4FCE010D960E941E03B5
:100A40000E945003BE016F5F7F4F0E941E030E94F1
:100A5000CA028D859E850E94A8068F8198850E9476
:100A6000A80689819A810E94A8060E9467010F5FEB
:100A70001F4F011584E0180741F60EEF13E0C8017F
:100A80000E94EB00B801CE0101960E94AF0368E01E
:100A900070E0CE0107960E94AF0368E471E0CE01DA
:100AA0000D960E947403BE01695F7F4FCE010D96C3
:100AB0000E941E030E945003BE016F5F7F4F0E9481
:100AC0001E030E94CA028D859E850E94A8068F8102
:100AD00098850E94A80689819A810E94A8060E9492
:100AE00067010F5F1F4FCBCFEDE5F1E0138212825C
:100AF00088EE93E0A0E0B0E084839583A683B7837B
:100B00008AE091E09183808385EC90E095878487EB
:100B100084EC90E09787868780EC90E0918B808BC7
:100B200081EC90E0938B828B82EC90E0958B848BB0
:100B300086EC90E0978B868B118E128E138E148E1E
:100B40000895BB274A3031F4992322F4BDE29095F1
:100B500081959F4F0C94AD05BB27FB015527AA2714
:100B6000880F991FAA1FA41710F0A41B839550513A
:100B7000B9F7A05DAA3308F0A95DA193009779F7B2
:100B8000B111B1931192CB010C94C605DC01FC01AB
:100B9000672F71917723E1F7329704C07C916D93B1
:100BA00070836291AE17BF07C8F308952F923F92EA
:100BB0004F925F926F927F928F929F92AF92BF926D
:100BC000CF92DF92EF92FF920F931F93CF93DF9319
:100BD000CDB7DEB7CA1BDB0B0FB6F894DEBF0FBE76
:100BE000CDBF09942A88398848885F846E847D84C3
:100BF0008C849B84AA84B984C884DF80EE80FD80C5
:100C00000C811B81AA81B981CE0FD11D0FB6F8943A
:100C1000DEBF0FBECDBFED010895EE0FFF1F0590A3
:100C2000F491E02D0994CF93DF938230910510F475
:100C300082E090E0E091FC01F091FD0120E030E0E5
:100C4000C0E0D0E0309711F1408151814817590739
:100C5000C0F04817590761F482819381209719F0F9
:100C60009B838A832BC09093FD018093FC0126C057
:100C70002115310519F04217530718F49A01BE01E6
:100C8000DF01EF010280F381E02DDCCF211531057A
:100C900009F1281B390B2430310590F412968D91FF
:100CA0009C9113976115710521F0FB019383828359
:100CB00004C09093FD018093FC01FD01329644C075
:100CC000FD01E20FF31F81939193225031092D937F
:100CD0003C933AC02091FA013091FB01232B41F45F
:100CE00020910201309103013093FB012093FA011E
:100CF00020910001309101012115310541F42DB7FA
:100D00003EB74091040150910501241B350BE09141
:100D1000FA01F091FB01E217F307A0F42E1B3F0B41
:100D20002817390778F0AC014E5F5F4F241735075D
:100D300048F04E0F5F1F5093FB014093FA018193DF
:100D4000919302C0E0E0F0E0CF01DF91CF910895F0
:100D50000F931F93CF93DF93009709F48CC0FC018E
:100D60003297138212820091FC011091FD0101154E
:100D7000110581F420813181820F931F2091FA01A6
:100D80003091FB012817390779F5F093FB01E093C7
:100D9000FA0171C0D80140E050E0AE17BF0750F42F
:100DA00012962D913C911397AD012115310509F152
:100DB000D901F3CF9D01DA013383228360817181F0
:100DC000860F971F8217930769F4EC0128813981F8
:100DD000260F371F2E5F3F4F318320838A819B81EF
:100DE00093838283452B29F4F093FD01E093FC016A
:100DF00042C01396FC93EE931297ED0149915991DD
:100E00009E01240F351FE217F30771F48081918151
:100E1000840F951F029611969C938E9382819381E5
:100E200013969C938E931297E0E0F0E0D80112960F
:100E30008D919C911397009719F0F8018C01F6CFD2
:100E40008D919C9198012E5F3F4F820F931F2091AF
:100E5000FA013091FB012817390769F4309729F41A
:100E60001092FD011092FC0102C0138212821093B5
:100E7000FB010093FA01DF91CF911F910F9108952B
:100E8000A0E0B0E0E6E4F7E00C94DA05EC010097AE
:100E900021F4CB010E941306B8C0FC01E60FF71F36
:100EA0009C0122503109E217F30708F4ACC0D901C4
:100EB0000D911C91119706171707B0F00530110519
:100EC00008F49FC0C80104978617970708F499C0D3
:100ED00002501109061B170B019311936D937C931C
:100EE000CF010E94A8068DC05B01A01AB10A4C0177
:100EF000800E911EA091FC01B091FD0140E050E0F8
:100F0000E12CF12C109709F44AC0A815B905D1F5C8
:100F10006D907C901197630182E0C80ED11CCA14B9
:100F2000DB0480F1A3014A195B096A0182E0C80E63
:100F3000D11C1296BC9012971396AC91B5E0CB16CB
:100F4000D10440F0B282A38351834083D9016D93D1
:100F50007C930AC00E5F1F4FC301800F911FF901E0
:100F600091838083EB2DFA2FE114F10431F0D70146
:100F70001396FC93EE93129744C0F093FD01E09317
:100F8000FC013FC08D919C9111974817590708F4B7
:100F9000AC017D0112960D90BC91A02DB3CF809134
:100FA000FA019091FB0188159905E1F4461757075E
:100FB000C8F48091000190910101009741F48DB730
:100FC0009EB74091040150910501841B950BE817D1
:100FD000F907C8F4F093FB01E093FA01F90171837A
:100FE00060830FC0CB010E9413067C01009759F06B
:100FF000A801BE010E940F08CE010E94A806C701E9
:1010000004C0CE0102C080E090E0CDB7DEB7EEE0D4
:101010000C94F60581E090E0F8940C941F08FB0115
:10102000DC0102C001900D9241505040D8F7089564
:10103000FB01DC0101900D920020E1F70895F89486
:02104000FFCFE0
:101042000000FE0180000000000035029E01CD017B
:101052007C02FE01DC01F0010D0A002076616C7554
:10106200653A20002D2D2D53544152542D2D2D0023
:10107200496E74657276616C203130626974733ABC
:1010820020302D31303233005772697474656E200E
:041092006F6E20005D
:00000001FF
