:100000000C9459000C9481000C9481000C94810094
:100010000C9481000C9481000C9481000C9481005C
:100020000C9481000C9481000C9481000C9481004C
:100030000C9481000C9481000C9481000C9481003C
:100040000C946D040C9481000C94DD040C94B704A2
:100050000C9481000C9481000C9481000C9481001C
:100060000C940F050C94810000000000250028006E
:100070002B00040404040404040402020202020229
:10008000030303030303010204081020408001025C
:1000900004081020010204081020000000080002DB
:1000A00001000003040700000000000000003D06FE
:1000B000B60711241FBECFEFD8E0DEBFCDBF22E0D0
:1000C000A2E4B1E001C01D92A93BB207E1F711E043
:1000D000A0E0B1E0E2E4F4E102C005900D92A234A8
:1000E000B107D9F710E0C8E5D0E004C02197FE01C0
:1000F0000E94F307C735D107C9F70E94D7060C94B1
:10010000140A0C940000382F2091050290910402EB
:10011000213208F049C08091E1018111FCCF42E019
:100120004093E1013093E0013FEF3093DF01109203
:10013000DE012093DD01A4EEB1E04DEB51E0FA01C8
:100140003E2F341B321718F43D913193F9CF1092A2
:10015000BC012091BC01990F922B9093BC0190910E
:10016000BB01913061F41092BB019091BC0190935E
:10017000BB009091BC0093FDF8CF95EC01C095EECB
:100180009093BC009091E1019230E1F39091DF01F6
:100190009F3F79F08091DF01803241F08091DF0153
:1001A000803331F084E005C081E003C082E001C00B
:1001B00083E01092E301109205021092E20108958B
:1001C00090E0FC01E656FF4F2491FC01EA57FF4FF7
:1001D0003491FC01EE58FF4FE491EE23B1F122235C
:1001E00039F1233091F038F42130A9F0223001F5B3
:1001F00084B58F7D12C0273091F02830A1F02430D3
:10020000B9F4809180008F7D03C0809180008F774A
:10021000809380000DC084B58F7784BD09C0809124
:10022000B0008F7703C08091B0008F7D8093B000C5
:10023000F0E0EE0FFF1FE859FF4FA591B4918FB783
:10024000F894EC913E2B3C938FBF0895CF92DF92B0
:10025000EF92FF920F931F93CF93DF936C017A017C
:100260008B01C0E0D0E0CE15DF0589F0D8016D919B
:100270008D01D601ED91FC910190F081E02DC60138
:100280000995892B11F47E0102C02196ECCFC7019C
:10029000DF91CF911F910F91FF90EF90DF90CF9062
:1002A0000895FC01538D448D252F30E0842F90E07C
:1002B000821B930B541710F0CF9608950197089561
:1002C000FC01918D828D981761F0828DDF01A80F5E
:1002D000B11D5D968C91928D9F5F9F73928F90E080
:1002E00008958FEF9FEF0895FC01918D828D9817EF
:1002F00031F0828DE80FF11D858D90E008958FEF2C
:100300009FEF0895FC01918D228D892F90E0805CF4
:100310009F4F821B91098F739927089586E092E081
:100320000E94820121E0892B09F420E0822F0895A8
:10033000FC01848DDF01A80FB11DA35ABF4F2C9182
:10034000848D90E001968F739927848FA689B78951
:100350002C93A089B1898C9180648C93938D848D2A
:10036000981306C00288F389E02D80818F7D8083F9
:100370000895EF92FF920F931F93CF93DF93EC01B9
:1003800081E0888F9B8D8C8D981305C0E889F98951
:10039000808185FD24C0F62E0B8D10E00F5F1F4F6E
:1003A0000F731127E02E8C8DE8120CC00FB607FCDE
:1003B000FACFE889F989808185FFF5CFCE010E94C7
:1003C0009801F1CF8B8DFE01E80FF11DE35AFF4F2D
:1003D000F0820B8FEA89FB898081806207C0EE89F9
:1003E000FF896083E889F98980818064808381E066
:1003F00090E0DF91CF911F910F91FF90EF900895C2
:10040000682F86E092E00C94B901CF93DF93EC0162
:10041000888D8823C9F0EA89FB89808185FD05C024
:10042000A889B9898C9186FD0FC00FB607FCF5CF5E
:10043000808185FFF2CFA889B9898C9185FFEDCFA6
:10044000CE010E949801E7CFDF91CF91089580E01F
:1004500090E0892B29F00E948E0181110C940000FC
:1004600008950895E091AD018091AC01E81730F452
:10047000F0E0E457FE4F808190E008958FEF9FEF0A
:1004800008959091AD018091AC01981750F4E92F37
:10049000F0E0E457FE4F208130E09F5F9093AD0184
:1004A00002C02FEF3FEFC90108958091AC0190E0A9
:1004B0002091AD01821B91090895089580E090E09C
:1004C000089585ED8093BC008091BC0084FDFCCF35
:1004D0001092E101089540916701262F30E0240F2A
:1004E000311D21323105DCF42091E1012430C9F4C1
:1004F000FC0180E090E0861758F43091670121916B
:10050000DC01AB5BBE4FA30FB11D2C930196F3CF63
:1005100080916701680F6093670180E0089581E032
:10052000089582E00895CF92DF92EF92FF920F93A9
:100530001F93CF93DF937C01262F972F8A01809101
:10054000E201882391F0C62FD72F6E01C40ED51E6D
:10055000CC15DD0571F06991D701ED91FC91019009
:10056000F081E02DC7010995F3CF642F822F0E94FF
:100570006B02C801DF91CF911F910F91FF90EF9017
:10058000DF90CF900895CF93DF931F92CDB7DEB762
:1005900069832091E2012223D1F0209105022032CB
:1005A00040F021E030E0FC013383228380E090E0E2
:1005B00015C08091E301E82FF0E0EC51FE4F9981E6
:1005C00090838F5F8093E3018093050205C061E013
:1005D000CE0101960E946B0281E090E00F90DF91C6
:1005E000CF9108958C3539F48CE590E00E9400029B
:1005F00085EC90E008C08B3141F48CE590E00E94DE
:10060000000281EB90E00C940002682F86E092E0FB
:100610000C94B90181E00E9483001092B101109204
:100620004401109243018EE48093AE011092420186
:100630001092B0011092AF0108950E94F009AF929C
:10064000BF92CF92DF92EF92FF920F931F93CF93BF
:10065000DF93CDB7DEB7CDB6DEB69091B101911183
:10066000F0C0833509F4A9C088F4893409F4B2C014
:1006700040F4813401F1853409F01FC18091AE014D
:100680009DC08C34D1F0823561F117C18C3609F4EC
:1006900091C040F48735A9F0813609F00EC18091F0
:1006A00044018CC08237D1F0873709F006C181E060
:1006B0008093420106C082E001C083E08093B101D3
:1006C000FCC08091440191E09093E2018093040288
:1006D0001092E3011092050285E0F0CF81E0809353
:1006E0004201209142011091430180914401909177
:1006F000E1019111FCCF113208F010E291E09093EA
:10070000E10129272093E0012FEF2093DF011092D0
:10071000DE01210F2093DD019093BC019091BC017B
:10072000880F892B8093BC018091BB01813061F4DB
:100730001092BB018091BC018093BB008091BC00F2
:1007400083FDF8CF85EC01C085EE8093BC008091DD
:10075000E1018130E1F38091DE01811710F4109105
:10076000DE01ADEBB1E02CE831E0F9018E2F821B08
:10077000811718F48D918193F9CF1092AD011093E8
:10078000AC0110924201812F0E94F202111107C0A8
:100790008091AD01181709F48EC081E08FCF00E081
:1007A00083EA92E00E9441020E94F2020F5F01136D
:1007B000F7CFEECF8091430101C080E0DF91CF9170
:1007C0001F910F91FF90EF90DF90CF90BF90AF906F
:1007D0000C94F202ADB6BEB60091B3021091B40211
:1007E000C80101962DB73EB7281B390B0FB6F894F8
:1007F0003EBF0FBE2DBFEDB7FEB731967F01892BEF
:1008000089F0309779F00115110559F06091AF0228
:100810007091B002A801CF010E94050AF701E00F14
:10082000F11F1082802F0E94F202A801B70186E01A
:1008300092E00E9426010FB6F894BEBE0FBEADBE78
:100840003CC0923019F48093440135C0933051F488
:10085000813228F081E08093B1018CE427C080933D
:10086000430129C0953049F510914301112379F0D6
:10087000682F83EA92E00E94C302892B29F481E069
:100880008093B10187E512C011501093430180910C
:100890004301811112C08091420111E081270E9421
:1008A0008300882331F01093B10183E58093AE017A
:1008B00004C0109242011092B1010FB6F894DEBE4E
:1008C0000FBECDBEDF91CF911F910F91FF90EF90A2
:1008D000DF90CF90BF90AF9008951F920F920FB608
:1008E0000F9211242F933F938F939F93AF93BF93B6
:1008F0008091B7019091B801A091B901B091BA016E
:100900003091B60123E0230F2D3720F40196A11D6D
:10091000B11D05C026E8230F0296A11DB11D20932D
:10092000B6018093B7019093B801A093B901B09339
:10093000BA018091B2019091B301A091B401B0913C
:10094000B5010196A11DB11D8093B2019093B30131
:10095000A093B401B093B501BF91AF919F918F91D6
:100960003F912F910F900FBE0F901F9018951F92DF
:100970000F920FB60F9211242F933F934F935F93D3
:100980006F937F938F939F93AF93BF93EF93FF9357
:1009900086E092E00E949801FF91EF91BF91AF91A4
:1009A0009F918F917F916F915F914F913F912F9187
:1009B0000F900FBE0F901F9018951F920F920FB6B9
:1009C0000F9211242F938F939F93EF93FF93E091B6
:1009D0001602F09117028081E0911C02F0911D0235
:1009E00082FD12C0908180911F028F5F8F732091D2
:1009F0002002821751F0E0911F02F0E0EA5FFD4F04
:100A0000958F80931F0201C08081FF91EF919F918C
:100A10008F912F910F900FBE0F901F9018951F92DE
:100A20000F920FB60F9211242F933F934F935F9322
:100A30006F937F938F939F93AF93BF93EF93FF93A6
:100A40008091B900887F803609F49CC068F58832AF
:100A500009F45BC090F4803109F454C038F4882361
:100A600009F4F6C0883009F44DC0F6C0883109F4A5
:100A70004CC0803209F45DC0EFC0803409F468C016
:100A800048F4803309F455C0883309F0E5C08093F9
:100A9000DF01D8C0803509F44FC0883509F45DC046
:100AA000883409F0D9C0D6C0883909F4C7C0A8F481
:100AB000883709F467C038F4883609F463C0803792
:100AC00009F460C0C9C0883809F4B8C0803909F495
:100AD0005FC0803809F0C0C05BC0803B09F486C0AD
:100AE00038F4803A09F466C0883A09F47FC0B4C08B
:100AF000803C09F4A7C0883C09F4A4C0883B09F4F1
:100B00008AC0AAC08091BC0110C09091DE01809182
:100B1000DD01981770F5E091DE0181E08E0F809382
:100B2000DE01F0E0E354FE4F80818093BB0085EC52
:100B300086C08093DF018EC0E091DE0181E08E0FE0
:100B40008093DE018091BB00F0E0E354FE4F808390
:100B50009091DE018091DD016EC0E091DE0181E0C7
:100B60008E0F8093DE018091BB00F0E0E354FE4FD6
:100B700080838091E00181116DC081E08093BB0191
:100B800084EA61C083E08093E10110928B01CFCFB2
:100B900080918B01803208F051C0E0918B0181E09F
:100BA0008E0F80938B018091BB00F0E0E559FE4FE2
:100BB0008083BDCF85EC8093BC001092E1018091D1
:100BC0008B01803230F4E0918B01F0E0E559FE4F6B
:100BD000108260918B0170E0E0916901F0916A01EF
:100BE0008BE691E0099510928B0136C084E08093EA
:100BF000E1011092680110926701E0916501F091A6
:100C00006601099580916701811105C081E080939B
:100C1000670110924501E091680181E08E0F809399
:100C20006801F0E0EB5BFE4F80818093BB00909108
:100C3000680180916701981708F479CF85E880935F
:100C4000BC000AC085EC8093BC001092E10104C096
:100C50001092DF010E946102FF91EF91BF91AF916D
:100C60009F918F917F916F915F914F913F912F91C4
:100C70000F900FBE0F901F901895109209021092BE
:100C8000080288EE93E0A0E0B0E080930A0290931F
:100C90000B02A0930C02B0930D022AE031E03093D6
:100CA00007022093060225EC30E0309313022093D4
:100CB000120224EC30E0309315022093140220EC51
:100CC00030E0309317022093160221EC30E030938D
:100CD00019022093180222EC30E030931B0220937B
:100CE0001A0226EC30E030931D0220931C02109271
:100CF0001F021092200210922102109222021092E2
:100D0000A6021092A5028093A7029093A802A09336
:100D1000A902B093AA028CE191E09093A40280937F
:100D2000A3021092B0021092AF021092B20210927F
:100D3000B1021092B4021092B30267E170E080E059
:100D400090E00E942609009799F09093B00280935A
:100D5000AF0226E130E03093B2022093B10220913D
:100D6000B3023091B402232BC1F4FC01108215C0F0
:100D70008091AF029091B002009711F00E948E080E
:100D80001092B0021092AF021092B4021092B3020D
:100D90001092B2021092B102089526E130E0309331
:100DA000B4022093B3026AE271E00C94FE097894D5
:100DB00084B5826084BD84B5816084BD85B5826060
:100DC00085BD85B5816085BD80916E008160809311
:100DD0006E0010928100809181008260809381007A
:100DE000809181008160809381008091800081608A
:100DF000809380008091B10084608093B1008091E5
:100E0000B00081608093B00080917A00846080930C
:100E10007A0080917A00826080937A0080917A00D3
:100E2000816080937A0080917A00806880937A0054
:100E30001092C100E0911602F091170282E08083C7
:100E4000E0911202F09113021082E0911402F091ED
:100E500015028FEC808310921E02E0911A02F0912D
:100E60001B0286E08083E0911802F09119028081D4
:100E700080618083E0911802F0911902808188607E
:100E80008083E0911802F09119028081806880834C
:100E9000E0911802F091190280818F7D8083109279
:100EA000AD011092AC011092E30110920502109274
:100EB000E10181E08093E0011092BB0182E10E9498
:100EC000E00083E10E94E0008091B9008E7F809372
:100ED000B9008091B9008D7F8093B90088E4809338
:100EE000B80085E48093BC000E940A03C1E0D5E508
:100EF00086E092E00E948201892BA9F18091B101E4
:100F0000813021F48BE190E00E94000286E092E0C3
:100F10000E9460018093B0018B3119F40E940A0392
:100F20001AC09091AF01992379F01092AF01813BE3
:100F300021F0853C21F48CE50CC08BE10AC0C09304
:100F4000B101D093AE0107C08C3519F4C093AF0145
:100F500002C00E941F038091B101813021F48BE116
:100F600090E00E9400020E942702C2CF8091AF024F
:100F70009091B0020C948E082F923F924F925F9204
:100F80006F927F928F929F92AF92BF92CF92DF9299
:100F9000EF92FF920F931F93CF93DF93CDB7DEB7FE
:100FA000CA1BDB0B0FB6F894DEBF0FBECDBF099492
:100FB0002A88398848885F846E847D848C849B84E9
:100FC000AA84B984C884DF80EE80FD800C811B81F7
:100FD000AA81B981CE0FD11D0FB6F894DEBF0FBE26
:100FE000CDBFED010895EE0FFF1F0590F491E02DA8
:100FF0000994CF93DF938230910510F482E090E062
:10100000E091B702F091B80220E030E0C0E0D0E01B
:10101000309711F14081518148175907C0F04817A6
:10102000590761F482819381209719F09B838A8309
:101030002BC09093B8028093B70226C021153105CA
:1010400019F04217530718F49A01BE01DF01EF01AE
:101050000280F381E02DDCCF2115310509F1281B39
:10106000390B2430310590F412968D919C91139791
:101070006115710521F0FB019383828304C0909375
:10108000B8028093B702FD01329644C0FD01E20F21
:10109000F31F81939193225031092D933C933AC0D1
:1010A0002091B5023091B602232B41F42091020128
:1010B000309103013093B6022093B50220910001D4
:1010C000309101012115310541F42DB73EB7409112
:1010D000040150910501241B350BE091B502F091FC
:1010E000B602E217F307A0F42E1B3F0B28173907AF
:1010F00078F0AC014E5F5F4F2417350748F04E0F74
:101100005F1F5093B6024093B5028193919302C042
:10111000E0E0F0E0CF01DF91CF9108950F931F93AE
:10112000CF93DF93009709F48CC0FC0132971382B0
:1011300012820091B7021091B8020115110581F4D5
:1011400020813181820F931F2091B5023091B60228
:101150002817390779F5F093B602E093B50271C00C
:10116000D80140E050E0AE17BF0750F412962D9121
:101170003C911397AD012115310509F1D901F3CF48
:101180009D01DA013383228360817181860F971F6D
:101190008217930769F4EC0128813981260F371FE4
:1011A0002E5F3F4F318320838A819B81938382838B
:1011B000452B29F4F093B802E093B70242C013968E
:1011C000FC93EE931297ED01499159919E01240FE2
:1011D000351FE217F30771F480819181840F951F09
:1011E000029611969C938E938281938113969C9381
:1011F0008E931297E0E0F0E0D80112968D919C91C9
:101200001397009719F0F8018C01F6CF8D919C91FE
:1012100098012E5F3F4F820F931F2091B5023091AE
:10122000B6022817390769F4309729F41092B802EA
:101230001092B70202C0138212821093B60200937A
:10124000B502DF91CF911F910F910895A0E0B0E01A
:10125000ECE2F9E00C94C007EC01009721F4CB011B
:101260000E94F907B8C0FC01E60FF71F9C0122504D
:101270003109E217F30708F4ACC0D9010D911C91B4
:10128000119706171707B0F00530110508F49FC035
:10129000C80104978617970708F499C002501109EE
:1012A000061B170B019311936D937C93CF010E9442
:1012B0008E088DC05B01A01AB10A4C01800E911EF0
:1012C000A091B702B091B80240E050E0E12CF12CBF
:1012D000109709F44AC0A815B905D1F56D907C9016
:1012E0001197630182E0C80ED11CCA14DB0480F19F
:1012F000A3014A195B096A0182E0C80ED11C12964B
:10130000BC9012971396AC91B5E0CB16D10440F087
:10131000B282A38351834083D9016D937C930AC029
:101320000E5F1F4FC301800F911FF90191838083CE
:10133000EB2DFA2FE114F10431F0D7011396FC9351
:10134000EE93129744C0F093B802E093B7023FC007
:101350008D919C9111974817590708F4AC017D01B4
:1013600012960D90BC91A02DB3CF8091B5029091B3
:10137000B60288159905E1F446175707C8F480911D
:10138000000190910101009741F48DB79EB7409103
:10139000040150910501841B950BE817F907C8F467
:1013A000F093B602E093B502F901718360830FC038
:1013B000CB010E94F9077C01009759F0A801BE01FA
:1013C0000E94F509CE010E948E08C70104C0CE011B
:1013D00002C080E090E0CDB7DEB7EEE00C94DC0711
:1013E00081E090E0F8940C94140AFB01DC0102C047
:1013F00001900D9241505040D8F70895FB01DC0157
:1014000001900D920020E1F70895FB01DC014150AD
:10141000504048F001900D920020C9F701C01D9284
:1014200041505040E0F7089510E0C8E5D0E004C016
:10143000FE010E94F3072196C935D107C9F7F89438
:02144000FFCFDC
:101442000000B902800000000000B901260151012C
:10145200050282016001740100000000C3029302D0
:101462005E02310255024102320241726475696EB6
:101472006F204932432D746F2D55534220312E3047
:02148200000068
:00000001FF
