:1000000015C1000044C1000042C1000040C1000011
:100010003EC100003CC100003AC1000038C10000F0
:1000200036C1000034C1000032C1000030C1000000
:100030002EC10000FBC600002AC1000028C100003C
:1000400026C1000024C1000022C1000020C1000020
:100050000C94E6081CC100001AC100000C94CB09E6
:1000600016C10000ABC6000080C6000010C1000031
:100070000EC100000CC100000AC1000008C1000050
:1000800006C1000004C1000002C100000C940F0969
:10009000FEC00000FCC00000FAC00000F8C0000074
:1000A000F6C00000F4C00000F2C00000F0C0000084
:1000B000EEC00000ECC00000EAC00000E8C0000094
:1000C000E6C00000E4C00000E2C00000E0C00000A4
:1000D000DEC00000DCC00000DAC00000D8C00000B4
:1000E000D6C0000063016601550159015F019D0101
:1000F0006A016E01740178017C01820186018A0126
:100100009D01900194019801000021002400270026
:100110002A002D0030003300010100000401070116
:100120000A0100002200250028002B002E003100CB
:10013000340002010000050108010B01000020004D
:100140002300260029002C002F00320000010000AF
:10015000030106010901050505050705080808084A
:10016000020202020A0A080804040404010101014F
:10017000010101010303030303030303040707074A
:100180000C0C0C0C0C0C0C0C0202020206060606EF
:10019000060606060B0B0B0B0B0B0B0B01021020BC
:1001A00020080810204010204080020102010804AD
:1001B0000201010204081020408080402010080441
:1001C000020180040201804020100804020108049A
:1001D00002010102040810204080010204081020DE
:1001E000408000000A0B02090C0D0E0807030401F1
:1001F00000000000000000000000000000000000FF
:1002000000000000000000000000000000001211CB
:1002100010000000000000000000000000000000CE
:100220000000000000000000FA14CF1511241FBECA
:10023000CFEFD1E2DEBFCDBF00E00CBF26E0A0E1F2
:10024000B4E001C01D92AE30B207E1F714E0A0E0C7
:10025000B2E0EAE9F5E300E00BBF02C007900D92BF
:10026000A031B107D9F711E0C5E1D1E000E006C047
:1002700021970109802FFE010E945818C431D1072F
:1002800080E00807A9F70E94150A0C94BC1AB8CEA2
:1002900090E0FC013197E231F10508F04EC088276B
:1002A000EE58FF4F8F4F0C945818809180008F7735
:1002B00003C0809180008F7D80938000089580919D
:1002C0008000877FF9CF84B58F7702C084B58F7D9A
:1002D00084BD08958091B0008F7703C08091B000F5
:1002E0008F7D8093B0000895809190008F7707C034
:1002F000809190008F7D03C080919000877F8093D4
:10030000900008958091A0008F7707C08091A00091
:100310008F7D03C08091A000877F8093A000089507
:10032000809120018F7707C0809120018F7D03C0CD
:1003300080912001877F809320010895009761F0CC
:10034000FC0101900020E9F73197AF01481B590BE0
:10035000BC018CE394E016C380E090E008958F9296
:100360009F92AF92BF920F931F93CF93DF93CDB71E
:10037000DEB7A1970FB6F894DEBF0FBECDBF19A2AE
:10038000423008F44AE08E010F5D1F4F842E912CFD
:10039000A12CB12CA50194010E943618E62FB901B9
:1003A000CA0101501109EA3014F4E05D01C0E95CB2
:1003B000D801EC93232B242B252B61F7C801BEDF3A
:1003C000A1960FB6F894DEBF0FBECDBFDF91CF91DF
:1003D0001F910F91BF90AF909F908F900895CF92F3
:1003E000DF92EF92FF92CF93DF936C01990FEE08AB
:1003F000FF08F7FE1EC0E0913C04F0913D0401901F
:10040000F081E02D6DE28CE394E01995EC01662714
:100410007727CB016C197D098E099F094AE09FDF80
:100420008C0F9D1FDF91CF91FF90EF90DF90CF90C9
:1004300008954AE0C701B601DF91CF91FF90EF9098
:10044000DF90CF908CCF7ACFCF93DF9377DFEC0123
:1004500088E792E073DF8C0F9D1FDF91CF910895A5
:10046000CF92DF92EF92FF920F931F93CF93DF9380
:1004700000D000D0CDB7DEB78C01D62EF12CE090A5
:10048000FC05FE1430F46AEF72E0C801F0D3F39477
:10049000F6CFF12CD80114968D919C911597E81602
:1004A000F90608F065C06AE772E0CE01019649D40A
:1004B000F80184819581009739F18E159F0508F424
:1004C0007C01D801ED91FC911197EE0DFF1DC080CC
:1004D00010826D917C916115710561F0FB010190B5
:1004E0000020E9F73197AF01461B570BCE0101966B
:1004F00004D403C0CE010196EED3F801808191812E
:10050000FC01EE0DFF1DC082D8018D919C911197C9
:100510000097C1F069817A816115710589F01296A1
:100520004D915C9113972D813E814217530740F006
:100530000E94B51A8D819E81F8019583848313C032
:100540000E942C1989819A81F801918380838B8183
:100550009C81938382838D819E81958384831A827B
:1005600019821C821B821E821D82CE010196E4D359
:100570008091FB05D81620F083E693E065DF1AC072
:100580008091F9059091FA05F6E0DF9E800D911DAE
:1005900011248017910771F0D8016D917C9111970A
:1005A0006115710531F014964D915C911597A5D3A5
:1005B00001C091D326960FB6F894DEBF0FBECDBF13
:1005C000DF91CF911F910F91FF90EF90DF90CF902F
:1005D0000895CF93DF93682F70E080E090E04AE0C9
:1005E000BEDEEC0188E792E0A9DE8C0F9D1FDF9153
:1005F000CF9108958F929F92AF92BF92CF92DF9248
:10060000EF92FF920F931F93CF93DF93FC01C08172
:10061000D1812091380430913904C217D3070CF0EE
:1006200048C09E01220F331FE0913604F091370439
:10063000E20FF31F80809180C170DD27F1E0CF27AA
:10064000209719F404E610E002C00CE91FEF7A01CC
:100650005B016C01040F151FB801C401A3D4892BE1
:1006600089F40E0D1F1DB801C4019CD4892B69F4B7
:10067000B8016E0D7F1DC40195D4892BE9F023E0EC
:1006800030E005C021E030E002C022E030E0F501BA
:10069000808191810196821793073CF0F5011182C8
:1006A0001082F60180819181019691838083CE0131
:1006B00005C081E090E002C08FEF9FEFDF91CF9106
:1006C0001F910F91FF90EF90DF90CF90BF90AF9070
:1006D0009F908F900895CF93DF93282F30E0F901FA
:1006E000EE51FE4F8491F901E456FE4FD491F90189
:1006F000EA5AFE4FC491CC2389F08111C9DDEC2F59
:10070000F0E0EE0FFF1FE45CFE4FA591B491EC9179
:10071000ED2381E090E021F480E002C080E090E0F1
:10072000DF91CF9108951F93CF93DF93282F30E06F
:10073000F901EE51FE4F8491F901E456FE4FD49138
:10074000F901EA5AFE4FC491CC23C1F0162F811152
:100750009FDDEC2FF0E0EE0FFF1FEE5DFE4FA59149
:10076000B4918FB7F894111105C09C91ED2FE095CD
:10077000E92302C0EC91ED2BEC938FBFDF91CF9179
:100780001F910895CF93DF9390E0FC01E456FE4F54
:100790002491FC01EA5AFE4F8491882361F190E094
:1007A000880F991FFC01E85FFE4FC591D491FC01B1
:1007B000EE5DFE4FA591B491611109C09FB7F89409
:1007C0008881209582238883EC912E230BC0623090
:1007D00061F49FB7F8943881822F809583238883B2
:1007E000EC912E2B2C939FBF06C08FB7F894E88115
:1007F0002E2B28838FBFDF91CF910895EF92FF9228
:100800000F931F93CF93DF93EC01423018F08F8545
:1008100088608F874B8B1C8A80E48D8B6E8B70E099
:10082000605C7F4F6F8B61E08C81ACDF8D818F3F8F
:1008300011F061E0A7DF61E08E81A4DF7E0187E037
:10084000E80EF11C00E010E08F8584FD03C084E019
:1008500090E002C088E090E00817190744F461E0D6
:10086000F70181917F018EDF0F5F1F4FEDCF8BE38B
:100870009DE00197F1F760E08C8155DF60E08E81AB
:1008800052DF8D818F3F11F060E04DDF6F8564FD99
:1008900019C063E0CE011BD40BE416E4C801019734
:1008A000F1F763E0CE0113D4C8010197F1F763E0DB
:1008B000CE010DD483E592E00197F1F762E0CE011D
:1008C00006D413C06062CE017FD48BE496E4019716
:1008D000F1F76F856062CE0177D483E592E00197EE
:1008E000F1F76F856062CE016FD46F856062CE01D3
:1008F0006BD484E0888B6CE0CE0166D461E0CE01DD
:1009000063D48BE39FE10197F1F782E0898B66E086
:10091000CE01DF91CF911F910F91FF90EF9054C4C2
:100920003FB7F8948091280490912904A0912A045B
:10093000B0912B0426B5A89B05C02F3F19F0019656
:10094000A11DB11D3FBFBA2FA92F982F8827820F55
:10095000911DA11DB11DBC01CD0142E0660F771FA5
:10096000881F991F4A95D1F708952FB7F894609181
:1009700024047091250480912604909127042FBFB0
:1009800008950895CF92DF92EF92FF920F931F93F5
:10099000CF93DF936C017A018B01C0E0D0E0CE15DC
:1009A000DF0589F0D8016D918D01D601ED91FC91A3
:1009B0000190F081E02DC6011995892B11F47E017B
:1009C00002C02196ECCFC701DF91CF911F910F910B
:1009D000FF90EF90DF90CF900895FC01538D448DF0
:1009E000252F30E0842F90E0821B930B541710F0DA
:1009F000CF96089501970895FC01918D828D9817E7
:100A000061F0828DDF01A80FB11D5D968C91928DF2
:100A10009F5F9F73928F90E008958FEF9FEF0895EF
:100A2000FC01918D828D981731F0828DE80FF11DB8
:100A3000858D90E008958FEF9FEF0895FC01918DD3
:100A4000228D892F90E0805C9F4F821B91098F73CC
:100A5000992708958CE394E0F1DF21E0892B09F4D4
:100A600020E0822F0895FC01848DDF01A80FB11DC5
:100A7000A35ABF4F2C91848D90E001968F739927D4
:100A8000848FA689B7892C93A089B1898C918064C1
:100A90008C93938D848D981306C00288F389E02D82
:100AA00080818F7D80830895EF92FF920F931F9333
:100AB000CF93DF93EC0181E0888F9B8D8C8D981311
:100AC00005C0E889F989808185FD23C0F62E0B8D4C
:100AD00010E00F5F1F4F0F731127E02E8C8DE8126F
:100AE0000BC00FB607FCFACFE889F989808185FF32
:100AF000F5CFCE01B8DFF2CF8B8DFE01E80FF11DEF
:100B0000E35AFF4FF0820B8FEA89FB898081806274
:100B100007C0EE89FF896083E889F9898081806454
:100B2000808381E090E0DF91CF911F910F91FF9042
:100B3000EF900895CF93DF93EC01888D8823C1F067
:100B4000EA89FB89808185FD05C0A889B9898C91D6
:100B500086FD0EC00FB607FCF5CF808185FFF2CF72
:100B6000A889B9898C9185FFEDCFCE017CDFE8CFD4
:100B7000DF91CF91089580E090E0892B19F06ADF32
:100B8000811125C080E090E0892B41F080E090E069
:100B9000892B21F00E94000081111CC080E090E0B0
:100BA000892B41F080E090E0892B21F00E94000029
:100BB000811113C080E090E0892BA1F080E090E0EB
:100BC000892B81F00E94000081110AC008950E94C3
:100BD0000000D8CF0E940000E1CF0E940000EACFC1
:100BE0000C9400000895089580E090E008950E941C
:100BF000A81A0F931F93CF93DF93EC0188819981FB
:100C0000009729F02A813B812617370788F48B014A
:100C10006F5F7F4F0E94C419009761F099838883AA
:100C20001B830A832C813D81232B11F4FC0110824C
:100C300081E001C080E0DF91CF911F910F91089575
:100C40000C942C190C942C19CF93DF93EC0160E0D9
:100C50008E8169DD61E08E8166DD60E08E8163DD1D
:100C60008BE891E00197F1F7DF91CF910895EF9232
:100C7000FF920F931F93CF93DF936115710511F4CA
:100C800080E022C0FB0101900020E9F73197E61BCC
:100C9000F70BDC0114960D911C911597309799F084
:100CA0007B01EC010E0F1F1FB801A3DF882341F366
:100CB000288139818C819D81B701820F931F0E9409
:100CC000B51A1D830C8381E0DF91CF911F910F91A5
:100CD000FF90EF900895CF93DF93EC018881998185
:100CE000009711F00E942C19198218821D821C8213
:100CF0001B821A82DF91CF910895EF92FF920F939A
:100D00001F93CF93DF93EC017B018A01BA0171DF5E
:100D1000811103C0CE01DFDF07C01D830C83B70143
:100D2000888199810E94B51ACE01DF91CF911F91E0
:100D30000F91FF90EF900895FC01808191810C94B8
:100D40002C19FC01118210821382128215821482E6
:100D50006115710549F0FB0101900020E9F7319719
:100D6000AF01461B570BC9CF08951F920F920FB6C4
:100D70000F9211240BB60F922F933F934F935F93D3
:100D80006F937F938F939F93AF93BF93EF93FF9353
:100D90008CE394E068DEFF91EF91BF91AF919F915A
:100DA0008F917F916F915F914F913F912F910F9014
:100DB0000BBE0F900FBE0F901F9018951F920F92B1
:100DC0000FB60F9211240BB60F922F938F939F9310
:100DD000EF93FF93E0914C04F0914D048081E091FA
:100DE0005204F091530482FD12C090818091550409
:100DF0008F5F8F7320915604821751F0E091550454
:100E0000F0E0E45CFB4F958F8093550401C0808136
:100E1000FF91EF919F918F912F910F900BBE0F90AB
:100E20000FBE0F901F901895089508951F920F926E
:100E30000FB60F9211240BB60F922F933F934F933F
:100E40005F936F937F938F939F93AF93BF93EF9332
:100E5000FF938091DA043FDC2091DE043091DF04BF
:100E60002F5F3F4F3093DF042093DE049091DD0429
:100E7000953618F096E09093D9049091D904943067
:100E8000C9F128F4923069F09330D1F05EC095300A
:100E900009F451C0963009F058C091E09093AA052A
:100EA00051C0811152C02091DE043091DF042436FC
:100EB000310508F442C01092AA051092DD041CC04E
:100EC000813009F042C0E091DD0491E09E0F9093E3
:100ED000DD04F0E02091DE043091DF04EE0FFF1F0F
:100EE000E752FB4F308727831092DF041092DE0415
:100EF00094E029C0811117C0E091DD0491E09E0FBC
:100F00009093DD04F0E02091DE043091DF04EE0FD9
:100F1000FF1FE752FB4F308727831092DF041092A8
:100F2000DE0493E010C02091DE043091DF0425360A
:100F3000310558F007C0811108C01092DF041092EB
:100F4000DE0403C095E09093D9049091DC049923CA
:100F5000B1F081110AC08091DB04882321F08091D7
:100F6000DB0461E009C02F9A0AC08091DB0488236A
:100F700029F08091DB0460E0D6DB01C02F98FF915F
:100F8000EF91BF91AF919F918F917F916F915F9101
:100F90004F913F912F910F900BBE0F900FBE0F906E
:100FA0001F901895CF92DF92EF92FF92CF93DF932D
:100FB000EC01072E000C880B990B0E94FD156B01AC
:100FC0007C0120E030E040E45FE30E945C1620E01A
:100FD00030E048E452E40E948E170E94F617C617CC
:100FE000D707D4F020E030E040EA5FE3C701B60164
:100FF0000E945C1620E030E048E452E40E948E1724
:1010000020E030E040E85FE30E942A170E94F617D4
:1010100021E06C177D070CF420E0822F90E0DF9137
:10102000CF91FF90EF90DF90CF900895FC018281E7
:1010300052DB21E030E0019711F020E030E0C901FF
:101040000895CF93DF93EC018A81811107C086EA6E
:1010500093E0F9D98A81DF91CF91BBCA3CDB61E093
:10106000892B09F060E08A81DF91CF915CCBCF932F
:10107000DF93FC018281811108C0EF018CED93E0C8
:10108000E2D98A81DF91CF91A4CA60E0DF91CF914C
:101090004ACB20E432E0FC0131832083E8CFCF93B8
:1010A000DF93EC01F6DFCE01DF91CF910C942C1988
:1010B000CF93DF93EC01862F20E432E0398328833D
:1010C0006A8361E05FDBCE01DF91CF91D0CFCF9219
:1010D000DF92EF92FF920F931F93CF93DF937C01E8
:1010E0006C0187E0C80ED11CC0E0D0E0062F10E0F4
:1010F000B8010C2E02C0759567950A94E2F76170ED
:10110000F60181916F010FDB2196C430D10581F783
:10111000C701DF91CF911F910F91FF90EF90DF906A
:10112000CF9092CDCF92DF92EF92FF920F931F93C9
:10113000CF93DF93EC01F62E642F8C81F4DA8D814E
:101140008F3F11F060E0EFDA8F850F2D10E084FF04
:1011500023C06E0187E0C80ED11CE12CF12CB80130
:101160000E2C02C0759567950A94E2F76170F6013E
:1011700081916F01D8DAFFEFEF1AFF0A88E0E816D5
:10118000F10469F7CE01DF91CF911F910F91FF908C
:10119000EF90DF90CF9058CDB80184E075956795BA
:1011A0008A95E1F7CE0193DF6F2DCE01DF91CF91CC
:1011B0001F910F91FF90EF90DF90CF9088CF41E08B
:1011C000B1DF81E090E0089540E0ACCF1F920F9234
:1011D0000FB60F9211240BB60F922F933F934F939C
:1011E0005F936F937F938F939F93AF93BF93EF938F
:1011F000FF93E0E0F0E01995FF91EF91BF91AF917F
:101200009F918F917F916F915F914F913F912F911E
:101210000F900BBE0F900FBE0F901F9018951F924E
:101220000F920FB60F9211240BB60F920F931F93CC
:101230002F933F934F935F936F937F938F939F93DE
:10124000AF93BF93CF93DF93EF93FF9380E69AEE34
:10125000909395008093940080911004882309F462
:1012600083C08091010681110CC07FDB6093FD0576
:101270007093FE058093FF059093000681E08093B4
:10128000010673DB0091AB051091AC052091AD0513
:101290003091AE05DC01CB01801B910BA20BB30B8F
:1012A0008C329140A105B10508F04EC05EDB009183
:1012B000FD051091FE052091FF0530910006DC012F
:1012C000CB01801B910BA20BB30B0297A105B105BB
:1012D00008F44AC04ADB6093FD057093FE058093D5
:1012E000FF05909300062091DE053091DF05809187
:1012F000DD052115310539F4833010F48F5F0BC003
:101300001092DD050AC02130310539F4811102C087
:1013100083E001C081508093DD05C091DD05D0E000
:10132000CB52DA4F688168708091D905FCD9688109
:1013300064708091DA05F7D9688162708091DB056D
:10134000F2D9688161700DC060E08091D905EBD958
:1013500060E08091DA05E7D960E08091DB05E3D9B0
:1013600060E08091DC05DFD9FF91EF91DF91CF91B3
:10137000BF91AF919F918F917F916F915F914F91AD
:101380003F912F911F910F910F900BBE0F900FBEA9
:101390000F901F9018951F920F920FB60F92112465
:1013A0002F933F938F939F93AF93BF938091240488
:1013B00090912504A0912604B0912704309109064C
:1013C00023E0230F2D3720F40196A11DB11D05C088
:1013D00026E8230F0296A11DB11D209309068093D4
:1013E000240490932504A0932604B09327048091AD
:1013F000280490912904A0912A04B0912B0401960D
:10140000A11DB11D8093280490932904A0932A0460
:10141000B0932B04BF91AF919F918F913F912F91EA
:101420000F900FBE0F901F901895CF93DF93CDB7FD
:10143000DEB764970FB6F894DEBF0FBECDBF7894C9
:1014400084B5826084BD84B5816084BD85B58260C9
:1014500085BD85B5816085BD80916E00816080937A
:101460006E001092810080918100826080938100E3
:1014700080918100816080938100809180008160F3
:10148000809380008091B10084608093B10080914E
:10149000B00081608093B000809191008260809361
:1014A00091008091910081608093910080919000E3
:1014B0008160809390008091A10082608093A10060
:1014C0008091A10081608093A1008091A000816043
:1014D0008093A000809121018260809321018091FE
:1014E000210181608093210180912001816080939E
:1014F000200180917A00846080937A0080917A0044
:10150000826080937A0080917A00816080937A0073
:1015100080917A00806880937A001092C100E091F7
:101520004C04F0914D0412E01083E0914804F091D6
:1015300049041082E0914A04F0914B0400E10083D9
:1015400010925404E0915004F091510486E080839D
:10155000E0914E04F0914F04808180618083E0919E
:101560004E04F0914F04808188608083E0914E04A6
:10157000F0914F04808180688083E0914E04F09167
:101580004F0480818F7D8083F8941093B000109376
:10159000B10084E68093B3001092B2001093700003
:1015A00078941093D9041092DD048091DA0460E0FD
:1015B000E9D881E08093DC0461E08DE0E3D810930A
:1015C000FB050093FC058EE090E00E9497187C01DB
:1015D00082E090E0D7018D939D938D016AE772E0E0
:1015E000CD01AFDB6AE772E0C7010896AADB109372
:1015F000FA050093F90510E04091FB05141780F4FB
:101600008091F9059091FA0540E050E06AE772E0B8
:10161000B6E01B9F800D911D11246FDB1F5FECCF87
:101620006091FC0581EE95E0E9D86BE572E0CE01B2
:10163000019687DB60E0CE0101960E943002CE0168
:1016400001967ADB69E672E0CE0101967ADB61E011
:10165000CE0101960E943002CE0101966DDBF89416
:10166000109290001092910080E69AEE909395006F
:10167000809394008091910082608093910080918A
:101680007100816080937100789410E2212E312CDA
:1016900044244A94542C3201E0EEF4E0F0933704F1
:1016A000E09336048091DD0490E0909339048093B8
:1016B00038048091AA0590E090933B0480933A040B
:1016C0008091D904853009F0B0C28091E2049091F4
:1016D000E304885891098D35910588F48091DD04E3
:1016E000843041F48091E4049091E5048097479719
:1016F00008F47FC38091DD04843408F061C38091D5
:10170000DD048A3108F44FC08091E0049091E10437
:10171000843F914068F41092350410923404409252
:10172000300450923104609232047092330459C0F4
:101730008091E2049091E30485974B97A0F5E6EE43
:10174000F4E082E090E0C12CD12C7601AC014F5F37
:101750005F4F2091DD0430E0421753075CF4DF0156
:1017600012972D913C91275031092730310508F40B
:101770008AC3CA0101979595879590933504809304
:1017800034040C972CF410923504109234040BC0DE
:10179000C0923004D0923104E0923204F0923304CB
:1017A00084E090E04AC48091DD048A3108F44CC0A2
:1017B0008091E0049091E1048032934008F4ABCF33
:1017C0008091E2049091E304C697869708F478C369
:1017D0003BC0C0923004D0923104E0923204F092C7
:1017E00033048BE090E029C42081318125523109F6
:1017F0002B31310508F074C3CC0CDD1CEE1CFF1C32
:101800006894C0F802963496AC014F5F5F4F209108
:10181000DD0430E04217530754F4DF0112972D9195
:101820003C912C5031092B303105F0F2CA0101975F
:101830009595879590933504809334040C974CF6D6
:1018400010923504109234048091DD04823208F441
:101850004DC08091E2049091E3040697079708F049
:1018600045C0E6EEF4E082E090E0C12CD12C760198
:101870009C012F5F3F4F4091DD0450E02417350756
:10188000E4F4DF0112974D915C9111974E5151098B
:101890004731510508F031C3CC0CDD1CEE1CFF1C98
:1018A0006894C0F8408151813496435051094530C5
:1018B000510510F40296DCCFC901019795958795E3
:1018C000909335048093340440972CF4109235049F
:1018D000109234040BC0C0923004D0923104E092D4
:1018E0003204F09233048CE090E0A7C318861F8284
:1018F000E1E0F0E0FA83E9838091DD048D3008F4C3
:101900006FC049E753E0BE01695F7F4FCE0101968A
:101910000E94FA02892B09F063C049E753E0BE0137
:10192000695F7F4FCE0101960E94FA02019709F08C
:1019300057C049E753E0BE01695F7F4FCE01019672
:101940000E94FA02892B09F04BC0812C912C540182
:1019500000E010E08091DD0490E029813A812817B1
:1019600039075CF549E753E0BE01695F7F4FCE015F
:1019700001960E94FA027C0149E753E0BE01695FCB
:101980007F4FCE0101960E94FA02F1E0EF16F104BA
:1019900049F4892B29F5880C991CAA1CBB1C689456
:1019A00080F808C0EF28E1F40197D1F4880C991C65
:1019B000AA1CBB1C0F5F1F4FCDCF109335040093A3
:1019C00034048092300490923104A0923204B09298
:1019D000330421E030E030932D0420932C04BEC06A
:1019E00018861F8281E090E09A8389838091380471
:1019F00090913904181619060CF058C0E09136047D
:101A0000F091370482E090E09A8389838281938108
:101A100089974E9708F04AC083E090E09A838983C3
:101A2000848195810B970A9708F040C04CEB51E0F8
:101A3000BE01695F7F4FCE0101960E94FA02892B99
:101A4000A9F54CEB51E0BE01695F7F4FCE010196D5
:101A50000E94FA02019751F5812C912C540100E06B
:101A600010E029813A818091380490913904281737
:101A700039070CF085C24CEB51E0BE01695F7F4F26
:101A8000CE0101960E94FA026C010330110509F0A3
:101A900041C24CEB51E0BE01695F7F4FCE01019620
:101AA0000E94FA02C816D90609F434C2E09136043D
:101AB000F091370482819381C697869708F07EC2A1
:101AC000848195814B97459708F078C2DF0116967F
:101AD0007F0196ECE90EF11C20E030E040E050E0A0
:101AE00060E070E080E090E0CD90DC90119719E02C
:101AF000C11AD10818E0C116D10408F05FC21296CD
:101B0000CD90DC90139711E1C11AD1081DE0C116E8
:101B1000D10408F044C201E00E94601821601496CC
:101B2000AE15BF0509F7209330043093310440937C
:101B300032045093330400E20E947B1820932E0459
:101B400030932F0485E090E090932D0480932C0433
:101B500080E390E09093350480933404C090300487
:101B6000D0903104E0903204F09033040E94B50428
:101B700000911704109118042091190430911A044F
:101B8000DC01CB01801B910BA20BB30B86399105B5
:101B9000A105B10508F444C00E94B5046093170480
:101BA000709318048093190490931A0432EDC316AD
:101BB00032E0D30636E9E30639E4F30609F042C21F
:101BC000C0901304D0901404E0901504F090160413
:101BD00080E992E00E9423024AE0C701B6010E9418
:101BE000AF0188E792E00E949E019FE1C91690EE46
:101BF000D906E906F90609F035C20E94B5046093DA
:101C0000AB057093AC058093AD059093AE0581E074
:101C100080931004E1E0F0E0F093DF05E093DE054F
:101C200082E08093D9041092DD0480911F04882300
:101C300009F468C08091B505811108C089EB92E074
:101C40000E9423028091B5050E94E9028091B505AA
:101C50000E946B0391E0811101C090E090931E04FB
:101C600080911D04981709F44DC080911B04909138
:101C70001C049C012F5F3F4F30931C0420931B04D6
:101C80000E94EF0189EF92E00E94230280911E04DE
:101C900080931D04882311F18CEF92E00E942402AE
:101CA0006FE073E0CE0101964CD861E0CE01019661
:101CB0000E943002CE0101963FD88091B905811172
:101CC00009C081E293E00E9423028091B9050E943D
:101CD000E90218C061E00E94930314C083E593E019
:101CE0000E94240287EB95E0C2D963E573E0CE0140
:101CF000019627D861E0CE0101960E943002CE0104
:101D000001961AD80E949004009120041091210499
:101D10002091220430912304DC01CB01801B910B24
:101D2000A20BB30B803E9349A440B10508F445C013
:101D30000E949004609320047093210480932204F5
:101D40009093230410E08091FB051817B0F536E05E
:101D5000139F70011124E091F905F091FA05EE0D41
:101D6000FF1D84819581892B31F10190F081E02D57
:101D70008081882301F1E12F143008F0E3E08091A5
:101D8000F405E81710F0EFEFE80FF0E0EF51FA4F2D
:101D90006489606881EE95E017DAE091F905F091C9
:101DA000FA05EE0DFF1D448155816081718181EE40
:101DB00095E00E94C2041F5FC6CF0E94BB056CCC99
:101DC0008091E4049091E504825491098E9708F083
:101DD00096CC80E090E040E050E0BA01FC01EA518E
:101DE000FB4F208131812950310929303105E0F044
:101DF00086CC8091E6049091E7040997099708F052
:101E000079CC1092350410923404409230045092F0
:101E100031046092320470923304E3E0F0E0F09316
:101E20002D04E0932C049ACEFC01E851FB4F208155
:101E300031812751310922313105C0F4440F551F3A
:101E4000661F771F416004968038910539F63092FD
:101E5000350420923404409330045093310460934D
:101E600032047093330423E030E0B5CD208131811A
:101E7000265031092730310508F041CC440F551F59
:101E8000661F771FE0CF20813181235131092F3028
:101E9000310548F4CC0CDD1CEE1CFF1C6894C0F826
:101EA0000296349653CC208131812A503109293051
:101EB000310508F078CCCC0CDD1CEE1CFF1CF0CFFB
:101EC0008091E4049091E504C697869708F0BCCC15
:101ED000E8EEF4E083E090E0C12CD12C760194CCC4
:101EE000208131812C5031092A30310508F0ACCCE9
:101EF000CC0CDD1CEE1CFF1C85CC4D915C914C5034
:101F000051094B30510508F0F1CCCC0CDD1CEE1C16
:101F1000FF1CC8CC4CEB51E0BE01695F7F4FCE0186
:101F200001960E94FA027C010330110569F44CEB22
:101F300051E0BE01695F7F4FCE0101960E94FA0217
:101F4000E816F90609F0B2CDC114D10459F4EA94A7
:101F5000EF2809F0ABCD880C991CAA1CBB1C689417
:101F600080F80BC0CA94CD2809F0A0CDEF2809F065
:101F70009DCD880C991CAA1CBB1C0F5F1F4F71CDF7
:101F8000109335040093340480923004909231040D
:101F9000A0923204B092330482E090E04EC01296D8
:101FA000CD90DC90139714E0C11AD10815E0C1164A
:101FB000D10420F401E00E946018B1CD8091DD04CD
:101FC000893340F082819381895791098335910546
:101FD00008F42CC38091DD04823209F419C2828195
:101FE0009381895791098335910508F49AC38281B9
:101FF00093818C549109C59708F016C28091DD0435
:10200000843009F00CC2848195818097479708F04D
:1020100006C2868197810997099708F000C210923D
:10202000350410923404409230045092310460928E
:1020300032047092330487E090E090932D048093F3
:102040002C048CCD8FEFC816D806E806F80609F4E4
:10205000B7CDC0921304D0921404E0921504F0920C
:102060001604B6CDAFE6CA16A0E9DA06AFEFEA0667
:10207000F10409F4C2CDFFE2CF16F0EDDF06F0EE79
:10208000EF06FF0641F017E5C11618EAD1061FEF6B
:10209000E106F10491F40E94B5046093AB057093DE
:1020A000AC058093AD059093AE0581E0809310045C
:1020B0001092DF051092DE05B3CD2FEDC21620E29F
:1020C000D20620EEE206F20641F03FECC31630E302
:1020D000D3063FEFE306F10419F482ED95E084C0E6
:1020E0008FE5C81680EAD80680EEE806F80641F0CB
:1020F00097EEC91698E1D9069FEFE906F10419F4A5
:102100008FEC95E071C0AFE9CA16A0E6DA06A0EE42
:10211000EA06FA0641F0B5E8CB16BAE7DB06BFEFF0
:10212000EB06F10419F48CEC95E05EC0EFEECE16F0
:10213000E0E1DE06E0EEEE06FE0641F0FFEECF1631
:10214000F0E1DF06FFEFEF06F10419F489EC95E00A
:102150004BC01FE6C11610E9D10610EEE106F106EC
:1021600041F027ECC21628E3D2062FEFE206F10475
:1021700019F486EC95E038C03FEAC31630E5D30683
:1021800030EEE306F30641F085EAC8168AE5D80684
:102190008FEFE806F10419F483EC95E025C09FEC7D
:1021A000C91690E3D90690EEE906F90641F0ADEBC9
:1021B000CA16A2E4DA06AFEFEA06F10419F480ECDD
:1021C00095E012C0BFE4CB16B0EBDB06B0EEEB0639
:1021D000FB0641F0E5EBCE16EAE4DE06EFEFEE0695
:1021E000F10429F48DEB95E00E9421083FC0F1E64F
:1021F000CF16FEE9DF06F0EEEF06FF0641F01DE127
:10220000C11612EED1061FEFE106F104D1F4909150
:102210001F0481E0892780931F0487EB95E00E94CB
:1022200037088BE792E00E94230280911F048111FE
:1022300003C08CE492E002C084E492E00E94240295
:1022400015C08091170490911804A0911904B091C1
:102250001A0487599109A109B10980931704909331
:102260001804A0931904B0931A04DACC80911104D5
:10227000909112049C012F5F3F4F309312042093E2
:1022800011040E94EF018EE892E00E9423024AE0CE
:10229000C701B6010E94AF0188E792E00E949E014B
:1022A0006AE772E0CE0107960E94A10682ED95E0F2
:1022B0000E941608019719F068E572E002C065E512
:1022C00072E0CE0107960E9437068FEC95E00E94DF
:1022D0001608019719F068E572E002C065E572E042
:1022E000CE0107960E9437068CEC95E00E941608F6
:1022F000019719F068E572E002C065E572E0CE0171
:1023000007960E94370689EC95E00E94160801970F
:1023100019F068E572E002C065E572E0CE0107964B
:102320000E94370686EC95E00E941608019719F086
:1023300068E572E002C065E572E0CE0107960E9492
:10234000370683EC95E00E941608019719F068E5BE
:1023500072E002C065E572E0CE0107960E94370682
:1023600080EC95E00E941608019719F068E572E08C
:1023700002C065E572E0CE0107960E9437068DEB3C
:1023800095E00E941608019719F068E572E002C016
:1023900065E572E0CE0107960E9437061A8219821F
:1023A0001C821B821E821D826F81788561157105DA
:1023B00039F04B855C85CE0101960E947D0604C0F4
:1023C000CE0101960E946B0660E0CE0101960E944C
:1023D0003002CE0101960E949C0680911F04882342
:1023E00019F06AE972E002C069EA72E0CE01019672
:1023F0000E94A10661E0CE0101960E943002CE014A
:1024000001960E949C06CE0107960E949C0608CC6D
:10241000828193810A97099708F467C1E0CD809182
:10242000DD04843408F0E2C18091DD04863460F17B
:10243000828193810C970B9708F427C225C0D9019C
:1024400012966D917C9113976E51710967317105E8
:1024500008F051C2D701C601880F991FAA1FBB1FE0
:102460006C017D016894C0F84E5F5F4F2C5F3F4F59
:102470004534510509F424C2D9016D917C916C5009
:1024800071096B307105D8F28091DD04883578F1DF
:1024900082819381855891098B35910508F43BC25F
:1024A00026C0BC016F5F7F4FD8014D915C914750B2
:1024B00051094730510508F03DC2220F331F2160FA
:1024C00002960C5F1F4F4091DD0450E044505109CB
:1024D000841795070CF037C2A80142505109DA0160
:1024E0004D915C914950510948305105D0F280918D
:1024F000DD048032E1F48281938106970697B8F477
:10250000848195810997099790F49F012A5F3F4F35
:10251000BF01625C7F4FC12CD12C7601D9014D9156
:102520005C91465051094630510508F428C220916B
:10253000380430913904388B2F87263031050CF45C
:102540006FCB8F010A5F1F4F95ECC92E9DE9D92EE5
:102550009CE1E92E91E8F92E83E090E09E878D873B
:10256000D8016D917C91F8013497A080B18080E012
:1025700090E041D3698B7A8B8B8B9C8BB50180E08B
:1025800090E039D34B015C012DEC3CEC4CE45FE373
:1025900093D39B01AC0169897A898B899C8927D364
:1025A00087FD17C02DEC3CEC4CE45FE369897A8928
:1025B0008B899C8981D39B01AC01C501B40117D3E0
:1025C000E82F880FFF0BEE27FF0FEE1FFF27319636
:1025D00002C0E0E0F0E0A701960163E971E080E06D
:1025E00091E035D56F01FF0FEE08FF08C626D7260C
:1025F000E826F926ED85FE853196FE87ED870E5F8C
:102600001F4F2F853889E217F30709F0A9CFC09231
:102610003004D0923104E0923204F09233043092CC
:102620003504209234048FEF9FEF07CD848195818C
:10263000CA97899708F0CECC9F012A5F3F4FC12CE3
:10264000D12C760143E050E0D9016D917C916A5024
:1026500071096930710508F0BDCCD90112966D91F0
:102660007C911397665171096131710570F5D7013D
:10267000C601880F991FAA1FBB1F6C017D016894BA
:10268000C0F84E5F5F4F2C5F3F4F4B335105E1F673
:102690009F012A583F4FD9012D913C912A50310971
:1026A0002930310508F096CC2CE130E03093350428
:1026B00020933404C0923004D0923104E09232046A
:1026C000F09233048AE090E0B8CCD90112966D9173
:1026D0007C911397665071096730710508F07ACCC8
:1026E000CC0CDD1CEE1CFF1CCCCF2091DD04CF01F7
:1026F000820F911D820F911DDC0112978D919C918B
:102700000A97099708F06BCC1092350410923404A4
:10271000409230045092310460923204709233043B
:1027200062C08091DD04813208F461CC848195819E
:10273000CA97899708F05BCC9F012A5F3F4FC12C55
:10274000D12C760143E050E0D9016D917C916A5023
:1027500071096930710508F04ACCD90112966D9162
:102760007C911397665171096131710560F5D7014C
:10277000C601880F991FAA1FBB1F6C017D016894B9
:10278000C0F84E5F5F4F2C5F3F4F43325105E1F67B
:102790009F012A5B3F4FD9012D913C912A5031096D
:1027A0002930310508F023CCE0E1F0E0F093350466
:1027B000E0933404C0923004D0923104E0923204A9
:1027C000F092330410C0D90112966D917C91139749
:1027D000665071096730710508F009CCCC0CDD1C1E
:1027E000EE1CFF1CCECF86E090E027CC8481958143
:1027F00089549109C39708F017CE9F012A5F3F4F74
:10280000BF016A577F4FC12CD12C7601D9014D9160
:102810005C91495051094930510508F005CED90164
:1028200012964D915C9113974651510941315105D2
:10283000E0F4D701C601880F991FAA1FBB1F6C01C6
:102840007D016894C0F82C5F3F4F26173707F1F6DB
:102850003092350420923404C0923004D092310476
:10286000E0923204F0923304E6CBD90112964D91F6
:102870005C911397465051094730510508F0D4CD6B
:10288000CC0CDD1CEE1CFF1CDECF848195810997EA
:10289000099708F0F9CD868197818C974F9708F0BA
:1028A000F3CD8085918589974D9708F0EDCD9F01F7
:1028B000265F3F4FC12CD12C760145E050E0DCCDA6
:1028C0009F0126573F4FD9012D913C912C50310942
:1028D0002B30310508F0D8CD3092350420923404E5
:1028E000C0923004D0923104E0923204F09233046A
:1028F00088E090E0A2CBD90112966D917C9113975C
:10290000695071096930710508F0BECDCC0CDD1C31
:10291000EE1CFF1CA9CD84819581825491098E976C
:1029200008F0E5CD8F01045C1F4F8DE190E020E0C1
:1029300030E0C9CDD8014D915C91485151094231E7
:102940005105D0F0CB01019795958795909335046B
:10295000809334048A970CF4CACDC901330FAA0BB3
:10296000BB0B8093300490933104A0933204B09356
:10297000330489E090E061CB220F331FA1CDD90150
:1029800012964D915C91139749515109433151056C
:1029900008F5D701C601880F991FAA1FBB1F6C013C
:1029A0007D016894C0F82C5F3F4F2617370709F068
:1029B000B5CD2EE030E03093350420933404C0923E
:1029C0003004D0923104E0923204F09233048FE06C
:1029D00090E033CBD90112964D915C9113974950F9
:1029E00051094930510508F0A2CDCC0CDD1CEE1C7C
:1029F000FF1CD9CF1F93CF93DF93ECE3F4E0138256
:102A0000128288EE93E0A0E0B0E084839583A683F1
:102A1000B7838AE092E09183808385EC90E095878C
:102A2000848784EC90E09787868780EC90E0918B98
:102A3000808B81EC90E0938B828B82EC90E0958B85
:102A4000848B86EC90E0978B868B118E128E138E82
:102A5000148EC1EED5E01B821A8284E292E0998343
:102A6000888386E18C838FEF8D8387E18E8382E07C
:102A70008F8313E0188784E0898785E08A871B8627
:102A80001C861D861E861F8641E060E1CE010E94E5
:102A9000FE0380E392E099838883198E188E1A8E44
:102AA0001B8EE9EDF4E08CE081831382C5EDD5E067
:102AB000888386E089831A8389E08B8388E28C830C
:102AC00089E28D838AE28E838BE28F8318861A8651
:102AD000198661E088E20E94C20361E08D810E9454
:102AE000C20361E08E810E94C20361E08F810E9477
:102AF000C2036CE182ED95E00E9458086DE18FEC15
:102B000095E00E9458086EE18CEC95E00E94580810
:102B10006FE189EC95E00E94580860E286EC95E050
:102B20000E94580861E283EC95E00E94580862E236
:102B300080EC95E00E94580863E28DEB95E00E94DE
:102B4000580866E28AEB95E00E94580863E387EB39
:102B500095E00E945808E3EBF5E0CCE1D2E0D183A8
:102B6000C08382E38283138260E00E94C203EFEAA3
:102B7000F5E0D183C0838CE28283138260E00E94FF
:102B8000C2030E94B5046093AB057093AC058093BB
:102B9000AD059093AE05DF91CF911F91089587EB1E
:102BA00095E00E9449088AEB95E00E9449088DEB68
:102BB00095E00E94490880EC95E00E94490883EC6A
:102BC00095E00E94490886EC95E00E94490889EC4E
:102BD00095E00E9449088CEC95E00E9449088FEC32
:102BE00095E00E94490882ED95E00C94490840D098
:102BF00008F481E00895E89409C097FB3EF49095AD
:102C00008095709561957F4F8F4F9F4F9923A9F0C5
:102C1000F92F96E9BB279395F69587957795679554
:102C2000B795F111F8CFFAF4BB0F11F460FF1BC098
:102C30006F5F7F4F8F4F9F4F16C0882311F096E92B
:102C400011C0772321F09EE8872F762F05C06623D9
:102C500071F096E8862F70E060E02AF09A95660F92
:102C6000771F881FDAF7880F9695879597F908954B
:102C7000990F0008550FAA0BE0E8FEEF161617068D
:102C8000E807F907C0F012161306E407F50798F0F5
:102C9000621B730B840B950B39F40A2661F0232B0E
:102CA000242B252B21F408950A2609F4A140A6958A
:102CB0008FEF811D811D08950BD078C069D028F059
:102CC0006ED018F0952309F05AC05FC01124A2C03D
:102CD0007ED0A0F3959FD1F3950F50E0551F629FD2
:102CE000F001729FBB27F00DB11D639FAA27F00D65
:102CF000B11DAA1F649F6627B00DA11D661F829F8C
:102D00002227B00DA11D621F739FB00DA11D621F70
:102D1000839FA00D611D221F749F3327A00D611D8D
:102D2000231F849F600D211D822F762F6A2F11246F
:102D30009F5750408AF0E1F088234AF0EE0FFF1FC2
:102D4000BB1F661F771F881F91505040A9F79E3FF9
:102D5000510570F014C05EC05F3FECF3983EDCF3A9
:102D6000869577956795B795F795E7959F5FC1F736
:102D7000FE2B880F911D9695879597F9089597F9E1
:102D80009F6780E870E060E008959FEF80EC089511
:102D900000240A941616170618060906089500243A
:102DA0000A9412161306140605060895092E0394B4
:102DB000000C11F4882352F0BB0F40F4BF2B11F428
:102DC00060FF04C06F5F7F4F8F4F9F4F089557FD87
:102DD0009058440F551F59F05F3F71F04795880F89
:102DE00097FB991F61F09F3F79F087950895121620
:102DF00013061406551FF2CF4695F1DF08C01616CC
:102E000017061806991FF1CF86957105610508947C
:102E10000895E894BB2766277727CB0197F9089593
:102E200009D0A59F900DB49F900DA49F800D911D7A
:102E300011240895A29FB001B39FC001A39F700DFC
:102E4000811D1124911DB29F700D811D1124911DB2
:102E500008955058BB27AA270ED0A8CF99DF30F08D
:102E60009EDF20F031F49F3F11F41EF48ECF0EF45C
:102E7000E095E7FB84CFE92FAADF80F3BA1762075A
:102E800073078407950718F071F49EF5C2CF0EF40E
:102E9000E0950B2EBA2FA02D0B01B90190010C016A
:102EA000CA01A0011124FF27591B99F0593F50F482
:102EB000503E68F11A16F040A22F232F342F4427DA
:102EC000585FF3CF469537952795A795F0405395D2
:102ED000C9F77EF41F16BA0B620B730B840BBAF0A2
:102EE0009150A1F0FF0FBB1F661F771F881FC2F70D
:102EF0000EC0BA0F621F731F841F48F48795779521
:102F00006795B795F7959E3F08F0B3CF9395880FD7
:102F100008F09927EE0F9795879508950CD046CF26
:102F20003EDF40F035DF30F021F45F3F19F027CF6E
:102F3000511170CF2ACF4BDF98F39923C9F3552352
:102F4000B1F3951B550BBB27AA276217730784079C
:102F500038F09F5F5F4F220F331F441FAA1FA9F352
:102F600033D00E2E3AF0E0E830D091505040E69544
:102F7000001CCAF729D0FE2F27D0660F771F881FA5
:102F8000BB1F261737074807AB07B0E809F0BB0B94
:102F9000802DBF01FF2793585F4F2AF09E3F5105B8
:102FA00068F0EDCE37CF5F3FECF3983EDCF38695CB
:102FB00077956795B795F7959F5FC9F7880F911D2E
:102FC0009695879597F90895E1E0660F771F881F1A
:102FD000BB1F621773078407BA0720F0621B730BCD
:102FE000840BBA0BEE1F88F7E095089504D068941F
:102FF000B11110CF0895F3DE88F09F5790F0B92FEC
:103000009927B751A0F0D1F0660F771F881F991F3D
:103010001AF0BA95C9F712C0B13081F0FADEB1E00A
:103020000895F7CE672F782F8827B85F39F0B93F1A
:10303000CCF3869577956795B395D9F73EF490953F
:103040008095709561957F4F8F4F9F4F0895DB015D
:103050008F939F93E5DEBF91AF91A29F800D911D4D
:10306000A39F900DB29F900D11240895A1E21A2EF6
:10307000AA1BBB1BFD010DC0AA1FBB1FEE1FFF1F1C
:10308000A217B307E407F50720F0A21BB30BE40B6C
:10309000F50B661F771F881F991F1A9469F76095B3
:1030A0007095809590959B01AC01BD01CF0108956D
:1030B000EE0FFF1F881F8BBF0790F691E02D19942C
:1030C0000F93083090F0982F872F762F652F542F6D
:1030D000432F322F22270850F4CF220F331F441FD3
:1030E000551F661F771F881F991F0A95B2F70F910A
:1030F000089597FB10F8169400080F93083098F085
:103100000850232F342F452F562F672F782F892FC4
:10311000902DF4CF0594979587957795679557955A
:103120004795379527950A95AAF70F910895CF935C
:10313000DF938230910510F482E090E0E0910C067C
:10314000F0910D0620E030E0C0E0D0E0309711F1C2
:103150004081518148175907C0F04817590761F459
:1031600082819381209719F09B838A832BC090934F
:103170000D0680930C0626C02115310519F0421763
:10318000530718F49A01BE01DF01EF010280F381B9
:10319000E02DDCCF2115310509F1281B390B243036
:1031A000310590F412968D919C91139761157105DC
:1031B00021F0FB019383828304C090930D068093DA
:1031C0000C06FD01329644C0FD01E20FF31F81930E
:1031D0009193225031092D933C933AC020910A06D5
:1031E00030910B06232B41F420910202309103020F
:1031F00030930B0620930A062091000230910102C1
:103200002115310541F42DB73EB74091040250918C
:103210000502241B350BE0910A06F0910B06E2171C
:10322000F307A0F42E1B3F0B2817390778F0AC01E9
:103230004E5F5F4F2417350748F04E0F5F1F5093C6
:103240000B0640930A068193919302C0E0E0F0E000
:10325000CF01DF91CF9108950F931F93CF93DF9309
:10326000009709F48CC0FC013297138212820091FE
:103270000C0610910D060115110581F42081318194
:10328000820F931F20910A0630910B0628173907E9
:1032900079F5F0930B06E0930A0671C0D80140E07F
:1032A00050E0AE17BF0750F412962D913C91139742
:1032B000AD012115310509F1D901F3CF9D01DA01E5
:1032C0003383228360817181860F971F8217930752
:1032D00069F4EC0128813981260F371F2E5F3F4F9B
:1032E000318320838A819B8193838283452B29F4B8
:1032F000F0930D06E0930C0642C01396FC93EE93F8
:103300001297ED01499159919E01240F351FE21743
:10331000F30771F480819181840F951F02961196B5
:103320009C938E938281938113969C938E93129794
:10333000E0E0F0E0D80112968D919C9113970097F0
:1033400019F0F8018C01F6CF8D919C9198012E5FB8
:103350003F4F820F931F20910A0630910B062817CA
:10336000390769F4309729F410920D0610920C0673
:1033700002C01382128210930B0600930A06DF919B
:10338000CF911F910F9108956F927F928F929F928C
:10339000AF92BF92CF92DF92EF92FF920F931F9363
:1033A000CF93DF93EC01009781F4CB01DF91CF91B4
:1033B0001F910F91FF90EF90DF90CF90BF90AF9053
:1033C0009F908F907F906F90B2CEFC01E60FF71F19
:1033D0009C0122503109E217F30708F4A8C0D90173
:1033E0000D911C91119706171707A8F005301105CC
:1033F00008F49BC0C80104978617970708F495C086
:1034000002501109061B170B019311936D937C93C6
:10341000CF0122DF8AC05B01A01AB10A4C01800EE5
:10342000911EA0910C06B0910D0640E050E0E12CF9
:10343000F12C109709F44AC0A815B905D1F56D9083
:103440007C901197630182E0C80ED11CCA14DB0482
:1034500080F1A3014A195B096A0182E0C80ED11C00
:103460001296BC9012971396AC91B5E0CB16D1048E
:1034700040F0B282A38351834083D9016D937C9342
:103480000AC00E5F1F4FC301800F911FF901918386
:103490008083EB2DFA2FE114F10431F0D70113965C
:1034A000FC93EE93129741C0F0930D06E0930C0647
:1034B0003CC08D919C9111974817590708F4AC01B5
:1034C0007D0112960D90BC91A02DB3CF80910A067C
:1034D00090910B0688159905E1F446175707C8F433
:1034E0008091000290910102009741F48DB79EB740
:1034F0004091040250910502841B950BE817F907CF
:10350000B0F4F0930B06E0930A06F901718360832F
:103510000CC0CB010CDE7C01009749F0A801BE0174
:103520001BD0CE0199DEC70104C0CE0102C080E0ED
:1035300090E0DF91CF911F910F91FF90EF90DF907E
:10354000CF90BF90AF909F908F907F906F90089595
:1035500081E090E0F89410C0FB01DC0102C0019012
:103560000D9241505040D8F70895FB01DC010190C5
:103570000D920020E1F7089511E0C5E1D1E000E0EF
:1035800005C0802FFE0194DD2196011DC631D107B3
:0A35900080E00807B1F7F894FFCFC0
:10359A0000000E068000000000005405C204ED047D
:1035AA009A051E05FC0410050000000015072206F6
:1035BA0000000000DF08C204F405F3050000000063
:1035CA00DF08C204F405F305140720060000000012
:1035DA0049084F08454E41424C454400444953412D
:1035EA00424C45440031200030200020202057451D
:1035FA004C434F4D4520544F002020534D415254C7
:10360A0020484F55534521000D0A004D6F74696FCC
:10361A006E20646574656374696F6E3A20002E20AB
:10362A00495220726563763A20004D5F646574657D
:10363A0063746F723A204F4E004D5F646574656320
:10364A00746F723A204F4646005B4552525D5B47A3
:10365A0070696F426173655D205265616428293A19
:10366A0020496E76616C69642070696E206E756D92
:10367A00626572206F72206E6F7420696E69746958
:10368A00616C697A65643A20002E20005072657375
:10369A00656E6365206465746563746564210050B2
:1036AA00726573656E6365207374617274656421F3
:1036BA00005B4552525D5B4C45445D204F6E2829A4
:1036CA003A20496E76616C69642070696E206F7267
:1036DA00206E6F7420696E697469616C697A6564B9
:1036EA003A200050726573656E636520656E646585
:1036FA006421005B4552525D5B42617369634C63AE
:10370A00645D205072696E744C696E6528293A208E
:10371A00496E76616C6964206F72206E6F742073D3
:10372A007570706F72746564206C696E65206E7551
:10373A006D62657221005B4552525D5B4C45445D8A
:10374A0020546F67676C6528293A20496E76616C48
:10375A0069642070696E206F72206E6F7420696EC2
:10376A00697469616C697A65643A20005B455252F2
:10377A005D5B4C45445D204F666628293A20496EB8
:10378A0076616C69642070696E206F72206E6F7446
:10379A0020696E697469616C697A65643A2000000F
:00000001FF
