:1000000014C1000042C1000040C100003EC1000018
:100010003CC100003AC1000038C1000036C10000F8
:1000200034C1000032C1000030C100002EC1000008
:100030002CC1000008C6000028C1000026C1000035
:1000400024C1000022C1000020C100001EC1000028
:100050001CC100001AC1000018C1000091C30000BB
:1000600014C10000BAC500008FC500000EC1000019
:100070000CC100000AC1000008C1000006C1000058
:1000800004C1000002C1000000C10000FEC0000069
:10009000FCC00000FAC00000F8C00000F6C000007C
:1000A000F4C00000F2C00000F0C00000EEC000008C
:1000B000ECC00000EAC00000E8C00000E6C000009C
:1000C000E4C00000E2C00000E0C00000DEC00000AC
:1000D000DCC00000DAC00000D8C00000D6C00000BC
:1000E000D4C0000061016401530157015D019B010F
:1000F00068016C01720176017A0180018401880136
:100100009B018E019201960100002100240027002E
:100110002A002D0030003300010100000401070116
:100120000A0100002200250028002B002E003100CB
:10013000340002010000050108010B01000020004D
:100140002300260029002C002F00320000010000AF
:10015000030106010901050505050705080808084A
:10016000020202020A0A080804040404010101014F
:10017000010101010303030303030303040707074A
:100180000C0C0C0C0C0C0C0C0202020206060606EF
:10019000060606060B0B0B0B0B0B0B0B01021020BC
:1001A00020080810204010204080020102010804AD
:1001B0000201010204081020408080402010080441
:1001C000020180040201804020100804020108049A
:1001D00002010102040810204080010204081020DE
:1001E000408000000A0B02090C0D0E0807030401F1
:1001F00000000000000000000000000000000000FF
:1002000000000000000000000000000000001211CB
:1002100010000000000000000000000000000000CE
:1002200000000000000000001A1211241FBECFEFD2
:10023000D1E2DEBFCDBF00E00CBF24E0AAE9B2E00E
:1002400001C01D92A436B207E1F712E0A0E0B2E0CF
:10025000E8ECFEE200E00BBF02C007900D92AA3965
:10026000B107D9F711E0C5E1D1E000E006C0219760
:100270000109802FFE010E94FE14C431D10780E0E5
:100280000807A9F766D60C946217BACE90E0FC0175
:100290003197E231F10508F04EC08827EE58FF4F44
:1002A0008F4F0C94FE14809180008F7703C0809153
:1002B00080008F7D80938000089580918000877FEB
:1002C000F9CF84B58F7702C084B58F7D84BD089542
:1002D0008091B0008F7703C08091B0008F7D8093B4
:1002E000B0000895809190008F7707C080919000B2
:1002F0008F7D03C080919000877F80939000089548
:100300008091A0008F7707C08091A0008F7D03C0EF
:100310008091A000877F8093A000089580912001A4
:100320008F7707C0809120018F7D03C080912001CD
:10033000877F8093200108958F929F92AF92BF9202
:100340000F931F93CF93DF93CDB7DEB7A1970FB66F
:10035000F894DEBF0FBECDBF19A2423008F44AE0C8
:100360008E010F5D1F4F842E912CA12CB12CA50165
:1003700094010E94DC14E62FB901CA010150110951
:10038000EA3014F4E05D01C0E95CD801EC93232B62
:10039000242B252B61F7B80180EC92E0E0D3A196E5
:1003A0000FB6F894DEBF0FBECDBFDF91CF911F9186
:1003B0000F91BF90AF909F908F900895CF92DF9252
:1003C000EF92FF92CF93DF936C01990FEE08FF0835
:1003D000F7FE1EC0E091C002F091C1020190F081D1
:1003E000E02D6DE280EC92E01995EC01662777270D
:1003F000CB016C197D098E099F094AE09DDF8C0FA6
:100400009D1FDF91CF91FF90EF90DF90CF900895E7
:100410004AE0C701B601DF91CF91FF90EF90DF90E6
:10042000CF908ACF843008F083E0909146048917FA
:1004300010F08FEF890FE82FF0E0ED5CFB4F64893F
:10044000606883E394E07CC58F929F92AF92BF92E5
:10045000CF92DF92EF92FF920F931F93CF93DF9390
:10046000FC01C081D1812091BC023091BD02C21734
:10047000D3070CF048C09E01220F331FE091BA024F
:10048000F091BB02E20FF31F80809180C170DD27E5
:10049000F1E0CF27209719F404E610E002C00CE940
:1004A0001FEF7A015B016C01040F151FB801C40135
:1004B00086D4892B89F40E0D1F1DB801C4017FD489
:1004C000892B69F4B8016E0D7F1DC40178D4892B86
:1004D000E9F023E030E005C021E030E002C022E096
:1004E00030E0F501808191810196821793073CF0FD
:1004F000F50111821082F60180819181019691832C
:100500008083CE0105C081E090E002C08FEF9FEFB5
:10051000DF91CF911F910F91FF90EF90DF90CF90DF
:10052000BF90AF909F908F900895CF93DF93282F27
:1005300030E0F901EE51FE4F8491F901E456FE4F8F
:10054000D491F901EA5AFE4FC491CC2389F081116C
:100550009DDEEC2FF0E0EE0FFF1FE45CFE4FA59157
:10056000B491EC91ED2381E090E021F480E002C0B1
:1005700080E090E0DF91CF9108951F93CF93DF93B8
:10058000282F30E0F901EE51FE4F8491F901E45635
:10059000FE4FD491F901EA5AFE4FC491CC23C1F029
:1005A000162F811173DEEC2FF0E0EE0FFF1FEE5DD2
:1005B000FE4FA591B4918FB7F894111105C09C918D
:1005C000ED2FE095E92302C0EC91ED2BEC938FBF6A
:1005D000DF91CF911F910895CF93DF9390E0FC01BD
:1005E000E456FE4F2491FC01EA5AFE4F8491882381
:1005F00061F190E0880F991FFC01E85FFE4FC59103
:10060000D491FC01EE5DFE4FA591B491611109C03A
:100610009FB7F8948881209582238883EC912E23BC
:100620000BC0623061F49FB7F8943881822F8095B7
:1006300083238883EC912E2B2C939FBF06C08FB70A
:10064000F894E8812E2B28838FBFDF91CF910895F6
:10065000EF92FF920F931F93CF93DF93EC016230E1
:1006600018F08F8588608F876B8B1C8A80E48D8B58
:1006700080E18E8B80E58F8B61E08C81ADDF8D8199
:100680008F3F11F061E0A8DF61E08E81A5DF7E0180
:1006900087E0E80EF11C00E010E08F8584FD03C0C8
:1006A00084E090E002C088E090E00817190744F465
:1006B00061E0F70181917F018FDF0F5F1F4FEDCF69
:1006C0008BE39DE00197F1F760E08C8156DF60E0FD
:1006D0008E8153DF8D818F3F11F060E04EDF6F859B
:1006E00064FD19C063E0CE01AED30BE416E4C8018B
:1006F0000197F1F763E0CE01A6D3C8010197F1F7A6
:1007000063E0CE01A0D383E592E00197F1F762E0C8
:10071000CE0199D313C06062CE0112D48BE496E46B
:100720000197F1F76F856062CE010AD483E592E00C
:100730000197F1F76F856062CE0102D46F85606228
:10074000CE01FED384E0888B6CE0CE01F9D3CE01DC
:10075000F9D382E0898B66E0CE01DF91CF911F91C2
:100760000F91FF90EF90ECC32FB7F89460915C0469
:1007700070915D0480915E0490915F042FBF089595
:100780001F920F920FB60F9211242F933F938F93C6
:100790009F93AF93BF9380915C0490915D04A0916F
:1007A0005E04B0915F0430915B0423E0230F2D378A
:1007B00020F40196A11DB11D05C026E8230F029665
:1007C000A11DB11D20935B0480935C0490935D0494
:1007D000A0935E04B0935F048091570490915804F5
:1007E000A0915904B0915A040196A11DB11D8093A6
:1007F000570490935804A0935904B0935A04BF919E
:10080000AF919F918F913F912F910F900FBE0F90BD
:100810001F901895CF92DF92EF92FF920F931F9344
:10082000CF93DF936C017A018B01C0E0D0E0CE154D
:10083000DF0589F0D8016D918D01D601ED91FC9114
:100840000190F081E02DC6011995892B11F47E01EC
:1008500002C02196ECCFC701DF91CF911F910F917C
:10086000FF90EF90DF90CF900895FC01538D448D61
:10087000252F30E0842F90E0821B930B541710F04B
:10088000CF96089501970895FC01918D828D981758
:1008900061F0828DDF01A80FB11D5D968C91928D64
:1008A0009F5F9F73928F90E008958FEF9FEF089561
:1008B000FC01918D828D981731F0828DE80FF11D2A
:1008C000858D90E008958FEF9FEF0895FC01918D45
:1008D000228D892F90E0805C9F4F821B91098F733E
:1008E0009927089580EC92E0F1DF21E0892B09F44B
:1008F00020E0822F0895FC01848DDF01A80FB11D37
:10090000A35ABF4F2C91848D90E001968F73992745
:10091000848FA689B7892C93A089B1898C91806432
:100920008C93938D848D981306C00288F389E02DF3
:1009300080818F7D80830895EF92FF920F931F93A4
:10094000CF93DF93EC0181E0888F9B8D8C8D981382
:1009500005C0E889F989808185FD23C0F62E0B8DBD
:1009600010E00F5F1F4F0F731127E02E8C8DE812E0
:100970000BC00FB607FCFACFE889F989808185FFA3
:10098000F5CFCE01B8DFF2CF8B8DFE01E80FF11D60
:10099000E35AFF4FF0820B8FEA89FB8980818062E6
:1009A00007C0EE89FF896083E889F98980818064C6
:1009B000808381E090E0DF91CF911F910F91FF90B4
:1009C000EF900895CF93DF93EC01888D8823C1F0D9
:1009D000EA89FB89808185FD05C0A889B9898C9148
:1009E00086FD0EC00FB607FCF5CF808185FFF2CFE4
:1009F000A889B9898C9185FFEDCFCE017CDFE8CF46
:100A0000DF91CF91089580E090E0892B19F06ADFA3
:100A1000811125C080E090E0892B41F080E090E0DA
:100A2000892B21F00E94000081111CC080E090E021
:100A3000892B41F080E090E0892B21F00E9400009A
:100A4000811113C080E090E0892BA1F080E090E05C
:100A5000892B81F00E94000081110AC008950E9434
:100A60000000D8CF0E940000E1CF0E940000EACF32
:100A70000C9400000895089580E090E008950E948D
:100A80004E17CF93DF93EC0160E08E8176DD61E05D
:100A90008E8173DD60E08E8170DD8BE891E00197DF
:100AA000F1F7DF91CF9108950F931F93CF93DF93C9
:100AB000EC0188819981009729F02A813B812617D2
:100AC000370788F48B016F5F7F4F0E946A1600978B
:100AD00061F0998388831B830A832C813D81232BBA
:100AE00011F4FC01108281E001C080E0DF91CF9120
:100AF0001F910F910895EF92FF920F931F93CF9341
:100B0000DF936115710511F480E022C0FB010190B3
:100B10000020E9F73197E61BF70BDC0114960D91E5
:100B20001C911597309799F07B01EC010E0F1F1F58
:100B3000B801BADF882341F3288139818C819D81F6
:100B4000B701820F931F0E945B171D830C8381E006
:100B5000DF91CF911F910F91FF90EF900895611554
:100B6000710579F0FB0101900020E9F73197AF01A1
:100B7000461B570BDC01ED91FC910280F381E02DC7
:100B8000199480E090E008951F920F920FB60F9293
:100B900011240BB60F922F933F934F935F936F9354
:100BA0007F938F939F93AF93BF93EF93FF9380ECCB
:100BB00092E0A1DEFF91EF91BF91AF919F918F9154
:100BC0007F916F915F914F913F912F910F900BBE4D
:100BD0000F900FBE0F901F9018951F920F920FB697
:100BE0000F9211240BB60F922F938F939F93EF9335
:100BF000FF93E091D002F091D1028081E091D60282
:100C0000F091D70282FD12C090818091D9028F5F4E
:100C10008F732091DA02821751F0E091D902F0E04F
:100C2000E054FD4F958F8093D90201C08081FF91E0
:100C3000EF919F918F912F910F900BBE0F900FBE50
:100C40000F901F9018951F920F920FB60F921124BC
:100C50000BB60F922F933F934F935F936F937F93B6
:100C60008F939F93AF93BF93EF93FF9380915E0316
:100C70005CDC20916203309163032F5F3F4F309320
:100C800063032093620390916103953618F096E018
:100C900090935D0390915D039430C9F128F49230F4
:100CA00069F09330D1F05EC0953009F451C09630B0
:100CB00009F058C091E090932E0451C0811152C0A8
:100CC00020916203309163032436310508F442C059
:100CD00010922E04109261031CC0813009F042C0B2
:100CE000E091610391E09E0F90936103F0E0209109
:100CF000620330916303EE0FFF1FE35AFC4F30870E
:100D00002783109263031092620394E029C081113B
:100D100017C0E091610391E09E0F90936103F0E0B2
:100D20002091620330916303EE0FFF1FE35AFC4FE3
:100D300030872783109263031092620393E010C000
:100D400020916203309163032536310558F007C0C6
:100D5000811108C0109263031092620303C095E0F2
:100D600090935D03909160039923B1F081110AC0C3
:100D700080915F03882321F080915F0361E009C0C7
:100D80002F9A0AC080915F03882329F080915F0326
:100D900060E0F3DB01C02F98FF91EF91BF91AF911D
:100DA0009F918F917F916F915F914F913F912F9183
:100DB0000F900BBE0F900FBE0F901F901895CF9203
:100DC000DF92EF92FF92CF93DF93EC01072E000C9E
:100DD000880B990B0E94A3126B017C0120E030E08C
:100DE00040E45FE30E94021320E030E048E452E474
:100DF0000E9434140E949C14C617D707D4F020E038
:100E000030E040EA5FE3C701B6010E94021320E030
:100E100030E048E452E40E94341420E030E040E83E
:100E20005FE30E94D0130E949C1421E06C177D07A1
:100E30000CF420E0822F90E0DF91CF91FF90EF90B3
:100E4000DF90CF900895CF92DF92EF92FF920F93B1
:100E50001F93CF93DF937C016C0187E0C80ED11CF8
:100E6000C0E0D0E0062F10E0B8010C2E02C075954E
:100E700067950A94E2F76170F60181916F017DDB5D
:100E80002196C430D10581F7C701DF91CF911F9121
:100E90000F91FF90EF90DF90CF90F3CDCF92DF9244
:100EA000EF92FF920F931F93CF93DF93EC01F62EF7
:100EB000642F8C8162DB8D818F3F11F060E05DDB00
:100EC0008F850F2D10E084FF23C06E0187E0C80ED0
:100ED000D11CE12CF12CB8010E2C02C07595679540
:100EE0000A94E2F76170F60181916F0146DBFFEF32
:100EF000EF1AFF0A88E0E816F10469F7CE01DF91E6
:100F0000CF911F910F91FF90EF90DF90CF90B9CDCF
:100F1000B80184E0759567958A95E1F7CE0193DF76
:100F20006F2DCE01DF91CF911F910F91FF90EF9028
:100F3000DF90CF9088CF41E0B1DF81E090E008956D
:100F400040E0ACCF61E0FCDF8BE39FE10197F1F77C
:100F50000895CF93DF93CDB7DEB760970FB6F894BF
:100F6000DEBF0FBECDBF789484B5826084BD84B5EA
:100F7000816084BD85B5826085BD85B5816085BD94
:100F800080916E00816080936E001092810080914C
:100F900081008260809381008091810081608093D4
:100FA0008100809180008160809380008091B100F9
:100FB00084608093B1008091B00081608093B00024
:100FC0008091910082608093910080919100816076
:100FD0008093910080919000816080939000809137
:100FE000A10082608093A1008091A1008160809324
:100FF000A1008091A00081608093A00080912101D8
:101000008260809321018091210181608093210180
:101010008091200181608093200180917A0084601A
:1010200080937A0080917A00826080937A00809128
:101030007A00816080937A0080917A008068809342
:101040007A001092C10061E08CE1C6DA61E08DE1C6
:10105000C3DA61E08EE1C0DA61E08FE1BDDA61E020
:1010600080E2BADA61E081E2B7DA61E082E2B4DA22
:1010700061E083E2B1DA61E088E1AEDA61E089E162
:10108000ABDA61E08AE1A8DA61E08BE1A5DA61E040
:1010900086E1A2DA61E087E19FDA61E086E29CDA2C
:1010A00061E083E399DA60E083E096DA60E08CE265
:1010B00093DA60E08CE090DAF89412E01093B000DC
:1010C0001093B10084E68093B3001092B2001093A5
:1010D0007000789410935D031092610380915E0319
:1010E00060E07ADA81E08093600361E08DE074DA99
:1010F00062E083E394E0ACDAE091D002F091D102B7
:101100001083E091CC02F091CD021082E091CE02EA
:10111000F091CF0280E180831092D802E091D40256
:10112000F091D50286E08083E091D202F091D30263
:10113000808180618083E091D202F091D30280812E
:1011400088608083E091D202F091D3028081806830
:101150008083E091D202F091D30280818F7D8083E1
:1011600083E394E0EFDE80E05DD965E272E083E343
:1011700094E0F5DC81E056D963E372E083E394E028
:10118000EEDC22242394312C44244A94542C320142
:1011900024E633E03093BB022093BA0280916103CE
:1011A00090E09093BD028093BC0280912E0490E069
:1011B0009093BF028093BE0280915D03853009F059
:1011C0004EC38091660390916703885891098D35CD
:1011D000910588F480916103843041F48091680323
:1011E000909169038097479708F4CBC18091610380
:1011F000843408F0EAC3809161038A3108F44FC057
:101200008091640390916503843F914068F410924B
:10121000B9021092B8024092B4025092B5026092A4
:10122000B6027092B70259C080916603909167032D
:1012300085974B97A0F5EAE6F3E082E090E0C12CB9
:10124000D12C7601AC014F5F5F4F2091610330E0FC
:10125000421753075CF4DF0112972D913C91275000
:1012600031092730310508F4FAC3CA010197959571
:1012700087959093B9028093B8020C972CF4109242
:10128000B9021092B8020BC0C092B402D092B5025B
:10129000E092B602F092B70284E090E088C18091BB
:1012A00061038A3108F44CC0809164039091650316
:1012B0008032934008F4ABCF80916603909167032E
:1012C000C697869708F4E8C33BC0C092B402D09298
:1012D000B502E092B602F092B7028BE090E067C1EF
:1012E00020813181255231092B31310508F0E4C3C9
:1012F000CC0CDD1CEE1CFF1C6894C0F802963496E2
:10130000AC014F5F5F4F2091610330E042175307FC
:1013100054F4DF0112972D913C912C5031092B3060
:101320003105F0F2CA010197959587959093B9021E
:101330008093B8020C974CF61092B9021092B80242
:10134000809161038232E8F1809166039091670396
:1013500006970797B0F5EAE6F3E082E090E0C12C4B
:10136000D12C76019C012F5F3F4F4091610350E0EB
:10137000241735076CF4DF0112974D915C9111979A
:101380004E5151094731510508F4BAC3A2C3C901EE
:101390000197959587959093B9028093B8024097ED
:1013A0002CF41092B9021092B8020BC0C092B40291
:1013B000D092B502E092B602F092B7028CE090E0D3
:1013C000F6C018861F823A822982809161038D308F
:1013D00008F469C049E753E0BE01695F7F4FCE0161
:1013E000019632D8892B09F05EC049E753E0BE016F
:1013F000695F7F4FCE01019627D8019709F053C04E
:1014000049E753E0BE01695F7F4FCE0101961CD8CA
:10141000892B09F048C0812C912C540100E010E088
:101420008091610390E029813A812817390754F5AA
:1014300049E753E0BE01695F7F4FCE01019604D8B2
:101440007C0149E753E0BE01695F7F4FCE01019601
:101450000E94240231E0E316F10449F4892B19F5C6
:10146000880C991CAA1CBB1C689480F808C0EF2843
:10147000D1F40197C1F4880C991CAA1CBB1C0F5F06
:101480001F4FCECF1093B9020093B8028092B402DE
:101490009092B502A092B602B092B7023092B10219
:1014A0002092B002D3C018861F823A82298280918E
:1014B000BC029091BD02181619060CF058C0E091BC
:1014C000BA02F091BB0282E090E09A838983828124
:1014D000938189974E9708F04AC023E030E03A8321
:1014E0002983848195810B970A9708F040C04CEBC3
:1014F00051E0BE01695F7F4FCE0101960E94240238
:10150000892BA9F54CEB51E0BE01695F7F4FCE01FD
:1015100001960E942402019751F5812C912C5401CF
:1015200000E010E029813A818091BC029091BD02D7
:10153000281739070CF021C34CEB51E0BE01695F5D
:101540007F4FCE0101960E9424026C0103301105E9
:1015500009F0DDC24CEB51E0BE01695F7F4FCE0167
:1015600001960E942402C816D90609F4D0C2E0915F
:10157000BA02F091BB0282819381C6978697E0F010
:101580001CC480916A0390916B030997099708F036
:101590002DCE1092B9021092B8024092B40250922D
:1015A000B5026092B6027092B70283E090E0909329
:1015B000B1028093B0024AC0848195814B974597D0
:1015C00008F0FBC3DF0116967F0136ECE30EF11C39
:1015D00020E030E040E050E060E070E080E090E04B
:1015E0000D911C911197095011090830110508F04F
:1015F000E4C312960D911C911397015111090D30FE
:10160000110508F0C9C201E00E9406152160149678
:10161000AE15BF0529F72093B4023093B50240936D
:10162000B6025093B70200E20E9421152093B20245
:101630003093B30285E090E09093B1028093B002C2
:1016400080E390E09093B9028093B802C090B40216
:10165000D090B502E090B602F090B70285D8009124
:10166000A4021091A5022091A6023091A702DC01EC
:10167000CB01801B910BA20BB30B84369105A10506
:10168000B10508F4E7C070D86093A4027093A50276
:101690008093A6029093A7028091A2029091A30248
:1016A0009C012F5F3F4F3093A3022093A2020E9420
:1016B000DE0162E472E080EC92E051DA4AE0C701B8
:1016C000B6010E949C016EE472E080EC92E047DA81
:1016D0009FEDC91690E2D90690EEE906F90609F4E5
:1016E00068C2A0EFCA16ABECDA06A7E8EA06A6E0E5
:1016F000FA0609F45EC2BFE5CB16B0EADB06B0EE2F
:10170000EB06FB0609F465C2E8ECCE16EBECDE0650
:10171000E7E8EE06E6E0FE0609F45BC2FFE9CF1655
:10172000F0E6DF06F0EEEF06FF0609F462C228EEEF
:10173000C2162BECD20627E8E20626E0F20609F4F0
:1017400058C23FEEC31630E1D30630EEE306F3068F
:1017500009F45FC288EFC8168BECD80687E8E80664
:1017600086E0F80609F455C29FE6C91690E9D90645
:1017700090EEE906F90609F45CC2A4ECCA16ABECDB
:10178000DA06A7E8EA06A6E0FA0609F452C2BFEABA
:10179000CB16B0E5DB06B0EEEB06FB0609F459C24A
:1017A000E4EECE16EBECDE06E7E8EE06E6E0FE063B
:1017B00009F44FC2FFECCF16F0E3DF06F0EEEF06C0
:1017C000FF0609F456C224EFC2162BECD20627E816
:1017D000E20626E0F20609F44CC23FE4C31630EB01
:1017E000D30630EEE306F30609F453C28CECC816B8
:1017F0008BECD80687E8E80686E0F80609F449C2CB
:1018000091E6C9169EE9D90690EEE906F90609F4B3
:1018100050C2ACEDCA16ABECDA06A7E8EA06A6E0C1
:10182000FA0609F446C2B7EBCB16B8E4DB06B0EE15
:10183000EB06FB0609F048C20E94B40360932F0434
:1018400070933004809331049093320410925504C5
:101850001092540482E080935D03109261038091A2
:101860000002882309F43FC083E00E94950221E032
:10187000892B09F420E02093AB028091AA0228175B
:1018800091F18091A8029091A9029C012F5F3F4F96
:101890003093A9022093A8020E94DE0164E772E05F
:1018A00080EC92E05CD98091AB028093AA028823FD
:1018B00061F067E772E080EC92E051D96EE472E08B
:1018C00080EC92E04CD961E00BC06AE872E080ECF9
:1018D00092E045D96EE472E080EC92E040D960E09D
:1018E00083E30E94BD020E94B40300912F04109173
:1018F00030042091310430913204DC01CB01801B93
:10190000910BA20BB30B883C9105A105B10508F022
:101910005AC00E94B4030091AC021091AD02209114
:10192000AE023091AF02DC01CB01801B910BA20B08
:10193000B30B0297A105B10508F445C00E94B4039A
:101940006093AC027093AD028093AE029093AF02AD
:101950002091540430915504809153042115310590
:1019600039F4833010F48F5F0BC0109253040AC017
:101970002130310539F4811102C083E001C081506A
:10198000809353040091530410E0055B1B4FF80152
:101990006081687080914F040E94BD02D8016C91F3
:1019A0006470809150040E94BD02F80160816270F1
:1019B000809151040E94BD02D8016C9161708091A8
:1019C00052040E94BD021FD8E3CB8091680390911E
:1019D0006903825491098E9708F00DCC80E090E065
:1019E00040E050E0BA01FC01E659FC4F2081318112
:1019F000295031092930310508F0FDCBFC01E459AB
:101A0000FC4F208131812751310922313105D0F439
:101A1000440F551F661F771F41600496803891055B
:101A200011F7A0E2B0E0B093B902A093B8024093DE
:101A3000B4025093B5026093B6027093B702E3E02C
:101A4000F0E0F3C42081318126503109273031057F
:101A500008F0D1CB440F551F661F771FDECF2081C2
:101A60003181235131092F30310578F020813181C6
:101A70002A5031092930310508F011CCCC0CDD1C7D
:101A8000EE1CFF1C02963496DDCBCC0CDD1CEE1C4C
:101A9000FF1C6894C0F8F6CF8091680390916903A9
:101AA000C697869708F04CCCECE6F3E083E090E034
:101AB000C12CD12C760124CC208131812C503109CC
:101AC0002A30310508F03CCCCC0CDD1CEE1CFF1C90
:101AD00015CC4D915C914C5051094B30510508F09B
:101AE00070CCCC0CDD1CEE1CFF1C40815181349667
:101AF000435051094530510508F049CC029632CC8B
:101B0000CC0CDD1CEE1CFF1C6894C0F8EECF4CEB37
:101B100051E0BE01695F7F4FCE0101960E94240211
:101B20007C010330110569F44CEB51E0BE01695FA3
:101B30007F4FCE0101960E942402E816F90609F0B3
:101B400016CDC114D10459F4EA94EF2809F00FCD51
:101B5000880C991CAA1CBB1C689480F80BC0CA9402
:101B6000CD2809F004CDEF2809F001CD880C991C8F
:101B7000AA1CBB1C0F5F1F4FD5CC1093B90200935A
:101B8000B8028092B4029092B502A092B602B092CE
:101B9000B70282E090E00BCD12960D911C91139745
:101BA000045011090530110508F007C101E02ED7D6
:101BB0002ECD8CE10E94950261E0892B09F060E056
:101BC0008CE10E94BD028CE10E94950280939A02F2
:101BD00094C08DE10E94950261E0892B09F060E0DC
:101BE0008DE10E94BD028DE10E94950280939B02CF
:101BF00084C08EE10E94950261E0892B09F060E0CB
:101C00008EE10E94BD028EE10E94950280939C02AB
:101C100074C08FE10E94950261E0892B09F060E0B9
:101C20008FE10E94BD028FE10E94950280939D0288
:101C300064C080E20E94950261E0892B09F060E0B7
:101C400080E20E94BD0280E20E94950280939E0283
:101C500054C081E20E94950261E0892B09F060E0A6
:101C600081E20E94BD0281E20E94950280939F0260
:101C700044C082E20E94950261E0892B09F060E095
:101C800082E20E94BD0282E20E9495028093A0023D
:101C900034C083E20E94950261E0892B09F060E084
:101CA00083E20E94BD0283E20E9495028093A1021A
:101CB00024C09091000281E089278093000260E0B7
:101CC00083E30E94BD0219C0E2EDCE16EBECDE0606
:101CD000E7E8EE06E6E0FE0609F4AECD0E94B403A6
:101CE00060932F04709330048093310490933204F6
:101CF0003092550420925404ADCD1A8219821C8270
:101D00001B821E821D8260E070E0CE0101960E945F
:101D1000540529813A8181110EC02115310511F038
:101D2000C90140D71A8219821E821D821C821B8221
:101D30000AE912E018C01E821D8260E572E0C90146
:101D40000E945B17F5CF63E572E0CE0101960E9419
:101D50007B0565E772E0CE0101960E947B05B2E04B
:101D6000023A1B0741F0D8018D918D018111EBCF13
:101D700061E572E0EACF83E394E0E4D880E00E947A
:101D800012024D815E8169817A8183E394E00E9431
:101D90000A0481E00E94120280910002882319F057
:101DA00065E572E002C064E672E083E394E00E94BD
:101DB000AF0589819A81F6D64DCD80916103893333
:101DC00070F182819381895791098335910508F4D7
:101DD0006AC125C0D90112966D917C911397665105
:101DE00071096131710508F08AC1D701C601880FF8
:101DF000991FAA1FBB1F6C017D016894C0F84E5F3C
:101E00005F4F2C5F3F4F4B33510509F45BC1D90144
:101E10006D917C916A50710969307105D8F2809199
:101E20006103823231F4828193810A97099708F421
:101E300076C1828193818957910983359105D0F4C8
:101E4000809161038132B0F084819581CA9789972E
:101E500088F49F012A5F3F4FC12CD12C760143E0CB
:101E600050E0D9016D917C916A507109693071051A
:101E700008F473C1828193818C549109C59778F4D9
:101E800080916103843031F48481958180974797F4
:101E900008F4F3C180916103843408F0A7C18091F4
:101EA0006103863460F1828193810C970B9708F46B
:101EB00007C225C0D90112966D917C9113976E517E
:101EC00071096731710508F016C2D701C601880F84
:101ED000991FAA1FBB1F6C017D016894C0F84E5F5B
:101EE0005F4F2C5F3F4F4534510509F413C2D901B0
:101EF0006D917C916C5071096B307105D8F28091B5
:101F00006103883578F182819381855891098B35F9
:101F1000910508F41CC226C0BC016F5F7F4FD80139
:101F20004D915C91475051094730510508F01EC250
:101F3000220F331F216002960C5F1F4F40916103F7
:101F400050E044505109841795070CF018C2A801BD
:101F500042505109DA014D915C9149505109483084
:101F60005105D0F2809161038032E1F48281938146
:101F700006970697B8F4848195810997099790F49C
:101F80009F012A5F3F4FBF01625C7F4FC12CD12C64
:101F90007601D9014D915C91465051094630510569
:101FA00008F409C22091BC023091BD023C872B8706
:101FB000263031050CF44ECC8F010A5F1F4F83E0B1
:101FC00090E09A87898795ECC92E9DE9D92E9CE1EE
:101FD000E92E91E8F92ED8016D917C91F8013497A2
:101FE000A080B18080E090E0ACD26D877E878F8743
:101FF000988BB50180E090E0A4D24B015C012DEC00
:102000003CEC4CE45FE3FED29B01AC016D857E8528
:102010008F85988992D287FD17C02DEC3CEC4CE45B
:102020005FE36D857E858F859889ECD29B01AC013D
:10203000C501B40182D2E82F880FFF0BEE27FF0FF6
:10204000EE1FFF27319602C0E0E0F0E0A701960105
:1020500063E971E080E091E0A0D46F01FF0FEE082A
:10206000FF08C626D726E826F926E985FA8531969F
:10207000FA87E9870E5F1F4F2B853C85E217F30730
:1020800009F0A9CFC092B402D092B502E092B60294
:10209000F092B70280E290E09093B9028093B80288
:1020A0008FEF9FEF84CA84819581CA97899708F042
:1020B000B6CE9F012A5F3F4FC12CD12C760143E061
:1020C00050E0A5CE9F012A583F4FD9012D913C9158
:1020D0002A5031092930310508F0A1CE2CE130E039
:1020E0003093B9022093B802C092B402D092B502E4
:1020F000E092B602F092B7028AE090E058CAD901A5
:1021000012966D917C911397665071096730710535
:1021100008F085CECC0CDD1CEE1CFF1C70CE20918F
:102120006103CF01820F911D820F911DDC01129777
:102130008D919C910A97099708F07BCE1092B90275
:102140001092B8024092B4025092B5026092B60268
:102150007092B702E6E0F0E068C1D90112966D9185
:102160007C911397665171096131710578F5D7013A
:10217000C601880F991FAA1FBB1F6C017D016894BF
:10218000C0F84E5F5F4F2C5F3F4F4332510509F05F
:1021900068CE9F012A5B3F4FD9012D913C912A5077
:1021A00031092930310508F065CEE0E1F0E0F09327
:1021B000B902E093B802C092B402D092B502E092A4
:1021C000B602F092B70226E030E052C0D901129672
:1021D0006D917C911397665071096730710508F015
:1021E00049CECC0CDD1CEE1CFF1CCBCF848195812D
:1021F00089549109C39708F052CE9F012A5F3F4F3F
:10220000BF016A577F4FC12CD12C7601D9014D9166
:102210005C91495051094930510508F040CED9012F
:1022200012964D915C9113974651510941315105D8
:10223000B8F5D701C601880F991FAA1FBB1F6C01F3
:102240007D016894C0F82C5F3F4F26173707F1F6E1
:10225000E0E2F0E0F093B902E093B802C092B40279
:10226000D092B502E092B602F092B70227E030E0D9
:102270003093B1022093B002E9C986819781099712
:10228000099708F007CE1092B9021092B802409256
:10229000B4025092B5026092B6027092B702E6CFD5
:1022A000D90112964D915C911397465051094730D0
:1022B000510508F0F4CDCC0CDD1CEE1CFF1CC3CF87
:1022C000848195810997099708F019CE86819781B5
:1022D0008C974F9708F013CE8085918589974D97FD
:1022E00008F00DCE9F01265F3F4FC12CD12C760107
:1022F00045E050E0FCCD12966D917C9113976950AA
:1023000071096930710508F0FACDCC0CDD1CEE1CAA
:10231000FF1CE5CD9F0126573F4FD9012D913C91E0
:102320002C5031092B30310508F0E9CDE0E2F0E026
:10233000F093B902E093B802C092B402D092B50211
:10234000E092B602F092B70288E090E030C9848152
:102350009581825491098E9708F004CE8F01045C18
:102360001F4F8DE190E020E030E0E8CDD8014D91A5
:102370005C914851510942315105D0F0CB01019790
:10238000959587959093B9028093B8028A970CF43B
:10239000E9CDC901330FAA0BBB0B8093B402909314
:1023A000B502A093B602B093B70289E090E0FFC8EF
:1023B000220F331FC0CDD90112964D915C91139716
:1023C000495151094331510528F112964D915C91C3
:1023D0001397495051094930510508F0E3CDCC0C11
:1023E000DD1CEE1CFF1C2C5F3F4F2617370709F042
:1023F000D0CD2EE030E03093B9022093B802C092E5
:10240000B402D092B502E092B602F092B7028FE029
:1024100090E0CDC8D701C601880F991FAA1FBB1F26
:102420006C017D016894C0F8DECFF093B102E093B7
:10243000B0020CC9CF93DF93E0ECF2E0138212827A
:1024400088EE93E0A0E0B0E084839583A683B78311
:102450008BE092E09183808385EC90E09587848780
:1024600084EC90E09787868780EC90E0918B808B5E
:1024700081EC90E0938B828B82EC90E0958B848B47
:1024800086EC90E0978B868B118E128E138E148EB5
:10249000EDE5F3E08CE081831382CBE4D4E0888324
:1024A00086E0898383E08A8389E08B8388E28C835A
:1024B00089E28D838AE28E838BE28F8318861A8667
:1024C000198661E088E20E94EC0261E08D810E9441
:1024D000EC0261E08E810E94EC0261E08F810E943B
:1024E000EC02E3E3F4E0138212828DE192E0918347
:1024F000808386E184838FEF858387E1868388E10B
:10250000878389E180878AE181878BE182871386CF
:10251000148615861686178661E0CF010E9428036F
:102520000E94B40360932F047093300480933104AD
:1025300090933204DF91CF91089540D008F481E068
:102540000895E89409C097FB3EF4909580957095A6
:1025500061957F4F8F4F9F4F9923A9F0F92F96E9EF
:10256000BB279395F695879577956795B795F11164
:10257000F8CFFAF4BB0F11F460FF1BC06F5F7F4F01
:102580008F4F9F4F16C0882311F096E911C0772313
:1025900021F09EE8872F762F05C0662371F096E81C
:1025A000862F70E060E02AF09A95660F771F881FEB
:1025B000DAF7880F9695879597F90895990F00088F
:1025C000550FAA0BE0E8FEEF16161706E807F90705
:1025D000C0F012161306E407F50798F0621B730BA0
:1025E000840B950B39F40A2661F0232B242B252B21
:1025F00021F408950A2609F4A140A6958FEF811DC4
:10260000811D08950BD078C069D028F06ED018F0E5
:10261000952309F05AC05FC01124A2C07ED0A0F358
:10262000959FD1F3950F50E0551F629FF001729F67
:10263000BB27F00DB11D639FAA27F00DB11DAA1F86
:10264000649F6627B00DA11D661F829F2227B00DD3
:10265000A11D621F739FB00DA11D621F839FA00D5E
:10266000611D221F749F3327A00D611D231F849FAE
:10267000600D211D822F762F6A2F11249F57504005
:102680008AF0E1F088234AF0EE0FFF1FBB1F661FA0
:10269000771F881F91505040A9F79E3F510570F059
:1026A00014C05EC05F3FECF3983EDCF386957795EF
:1026B0006795B795F795E7959F5FC1F7FE2B880F54
:1026C000911D9695879597F9089597F99F6780E8EA
:1026D00070E060E008959FEF80EC089500240A9474
:1026E0001616170618060906089500240A941216ED
:1026F0001306140605060895092E0394000C11F420
:10270000882352F0BB0F40F4BF2B11F460FF04C0CC
:102710006F5F7F4F8F4F9F4F089557FD9058440F25
:10272000551F59F05F3F71F04795880F97FB991F30
:1027300061F09F3F79F087950895121613061406ED
:10274000551FF2CF4695F1DF08C01616170618067A
:10275000991FF1CF86957105610508940895E89455
:10276000BB2766277727CB0197F9089509D0A59F46
:10277000900DB49F900DA49F800D911D112408957C
:10278000A29FB001B39FC001A39F700D811D1124B2
:10279000911DB29F700D811D1124911D08955058F7
:1027A000BB27AA270ED0A8CF99DF30F09EDF20F0FC
:1027B00031F49F3F11F41EF48ECF0EF4E095E7FB49
:1027C00084CFE92FAADF80F3BA1762077307840763
:1027D000950718F071F49EF5C2CF0EF4E0950B2E1C
:1027E000BA2FA02D0B01B90190010C01CA01A00163
:1027F0001124FF27591B99F0593F50F4503E68F1BE
:102800001A16F040A22F232F342F4427585FF3CFFE
:10281000469537952795A795F0405395C9F77EF4CF
:102820001F16BA0B620B730B840BBAF09150A1F018
:10283000FF0FBB1F661F771F881FC2F70EC0BA0F9E
:10284000621F731F841F48F4879577956795B79526
:10285000F7959E3F08F0B3CF9395880F08F099271E
:10286000EE0F9795879508950CD046CF3EDF40F048
:1028700035DF30F021F45F3F19F027CF511170CFD1
:102880002ACF4BDF98F39923C9F35523B1F3951B56
:10289000550BBB27AA2762177307840738F09F5F81
:1028A0005F4F220F331F441FAA1FA9F333D00E2EF0
:1028B0003AF0E0E830D091505040E695001CCAF75D
:1028C00029D0FE2F27D0660F771F881FBB1F261722
:1028D00037074807AB07B0E809F0BB0B802DBF01F5
:1028E000FF2793585F4F2AF09E3F510568F0EDCEC9
:1028F00037CF5F3FECF3983EDCF38695779567958D
:10290000B795F7959F5FC9F7880F911D96958795A5
:1029100097F90895E1E0660F771F881FBB1F6217C4
:1029200073078407BA0720F0621B730B840BBA0B82
:10293000EE1F88F7E095089504D06894B11110CF88
:102940000895F3DE88F09F5790F0B92F9927B7517B
:10295000A0F0D1F0660F771F881F991F1AF0BA9563
:10296000C9F712C0B13081F0FADEB1E00895F7CEB8
:10297000672F782F8827B85F39F0B93FCCF3869559
:1029800077956795B395D9F73EF4909580957095B6
:1029900061957F4F8F4F9F4F0895DB018F939F93DA
:1029A000E5DEBF91AF91A29F800D911DA39F900D79
:1029B000B29F900D11240895A1E21A2EAA1BBB1BF1
:1029C000FD010DC0AA1FBB1FEE1FFF1FA217B307FB
:1029D000E407F50720F0A21BB30BE40BF50B661F11
:1029E000771F881F991F1A9469F7609570958095D5
:1029F00090959B01AC01BD01CF010895EE0FFF1F23
:102A0000881F8BBF0790F691E02D19940F93083023
:102A100090F0982F872F762F652F542F432F322F2A
:102A200022270850F4CF220F331F441F551F661F63
:102A3000771F881F991F0A95B2F70F91089597FB8A
:102A400010F8169400080F93083098F00850232FC0
:102A5000342F452F562F672F782F892F902DF4CFA5
:102A600005949795879577956795579547953795E9
:102A700027950A95AAF70F910895CF93DF93823097
:102A8000910510F482E090E0E0916204F09163041B
:102A900020E030E0C0E0D0E0309711F1408151817A
:102AA00048175907C0F04817590761F4828193818C
:102AB000209719F09B838A832BC0909363048093A3
:102AC000620426C02115310519F04217530718F486
:102AD0009A01BE01DF01EF010280F381E02DDCCF1E
:102AE0002115310509F1281B390B2430310590F4EB
:102AF00012968D919C9113976115710521F0FB0140
:102B00009383828304C09093630480936204FD01E5
:102B1000329644C0FD01E20FF31F8193919322503E
:102B200031092D933C933AC02091600430916104A7
:102B3000232B41F42091030230910402309361046D
:102B40002093600420910102309102022115310589
:102B500041F42DB73EB74091050250910602241B67
:102B6000350BE0916004F0916104E217F307A0F4E3
:102B70002E1B3F0B2817390778F0AC014E5F5F4FD3
:102B80002417350748F04E0F5F1F509361044093A0
:102B900060048193919302C0E0E0F0E0CF01DF9107
:102BA000CF9108950F931F93CF93DF93009709F46C
:102BB0008CC0FC0132971382128200916204109142
:102BC00063040115110581F420813181820F931F67
:102BD00020916004309161042817390779F5F0934A
:102BE0006104E093600471C0D80140E050E0AE178A
:102BF000BF0750F412962D913C911397AD0121150A
:102C0000310509F1D901F3CF9D01DA013383228324
:102C100060817181860F971F8217930769F4EC0119
:102C200028813981260F371F2E5F3F4F3183208344
:102C30008A819B8193838283452B29F4F0936304DB
:102C4000E093620442C01396FC93EE931297ED0159
:102C5000499159919E01240F351FE217F30771F432
:102C600080819181840F951F029611969C938E937B
:102C70008281938113969C938E931297E0E0F0E00B
:102C8000D80112968D919C911397009719F0F80135
:102C90008C01F6CF8D919C9198012E5F3F4F820F52
:102CA000931F20916004309161042817390769F45B
:102CB000309729F4109263041092620402C01382C8
:102CC00012821093610400936004DF91CF911F91F1
:102CD0000F9108956F927F928F929F92AF92BF92C1
:102CE000CF92DF92EF92FF920F931F93CF93DF93D8
:102CF000EC01009781F4CB01DF91CF911F910F91EF
:102D0000FF90EF90DF90CF90BF90AF909F908F900B
:102D10007F906F90B2CEFC01E60FF71F9C0122500E
:102D20003109E217F30708F4A8C0D9010D911C91ED
:102D3000119706171707A8F00530110508F49BC076
:102D4000C80104978617970708F495C00250110927
:102D5000061B170B019311936D937C93CF0122DF18
:102D60008AC05B01A01AB10A4C01800E911EA0918D
:102D70006204B091630440E050E0E12CF12C109724
:102D800009F44AC0A815B905D1F56D907C9011974A
:102D9000630182E0C80ED11CCA14DB0480F1A301D8
:102DA0004A195B096A0182E0C80ED11C1296BC90D8
:102DB00012971396AC91B5E0CB16D10440F0B282D5
:102DC000A38351834083D9016D937C930AC00E5F26
:102DD0001F4FC301800F911FF90191838083EB2D59
:102DE000FA2FE114F10431F0D7011396FC93EE931E
:102DF000129741C0F0936304E09362043CC08D914C
:102E00009C9111974817590708F4AC017D0112965F
:102E10000D90BC91A02DB3CF80916004909161047E
:102E200088159905E1F446175707C8F48091010207
:102E300090910202009741F48DB79EB74091050230
:102E400050910602841B950BE817F907B0F4F09334
:102E50006104E0936004F901718360830CC0CB01CD
:102E60000CDE7C01009749F0A801BE011BD0CE0109
:102E700099DEC70104C0CE0102C080E090E0DF917E
:102E8000CF911F910F91FF90EF90DF90CF90BF9067
:102E9000AF909F908F907F906F90089581E090E029
:102EA000F89410C0FB01DC0102C001900D9241506A
:102EB0005040D8F70895FB01DC0101900D920020ED
:082EC000E1F70895F894FFCF3B
:102EC80001000064048000000000009C040A04352E
:102ED80004E204660444045804000000009B070A46
:102EE800043C053B0520202057454C434F4D4520C9
:102EF800544F002020534D41525420484F555345BC
:102F080021002E20495220726563763A20000D0A6E
:102F1800002F0030004D5F6465746563746F723A0A
:102F2800204F4E004D5F6465746563746F723A207C
:102F38004F4646002E200050726573656E6365200B
:102F48006465746563746564210050726573656EA9
:0A2F5800636520656E646564210066
:00000001FF
