:1000000014C1000042C1000040C100003EC1000018
:100010003CC100003AC1000038C1000036C10000F8
:1000200034C1000032C1000030C100002EC1000008
:100030002CC1000019C6000028C1000026C1000024
:1000400024C1000022C1000020C100001EC1000028
:100050001CC100001AC1000018C10000A2C30000AA
:1000600014C10000CBC50000A0C500000EC10000F7
:100070000CC100000AC1000008C1000006C1000058
:1000800004C1000002C1000000C10000FEC0000069
:10009000FCC00000FAC00000F8C00000F6C000007C
:1000A000F4C00000F2C00000F0C00000EEC000008C
:1000B000ECC00000EAC00000E8C00000E6C000009C
:1000C000E4C00000E2C00000E0C00000DEC00000AC
:1000D000DCC00000DAC00000D8C00000D6C00000BC
:1000E000D4C0000061016401530157015D019B010F
:1000F00068016C01720176017A0180018401880136
:100100009B018E019201960100002100240027002E
:100110002A002D0030003300010100000401070116
:100120000A0100002200250028002B002E003100CB
:10013000340002010000050108010B01000020004D
:100140002300260029002C002F00320000010000AF
:10015000030106010901050505050705080808084A
:10016000020202020A0A080804040404010101014F
:10017000010101010303030303030303040707074A
:100180000C0C0C0C0C0C0C0C0202020206060606EF
:10019000060606060B0B0B0B0B0B0B0B01021020BC
:1001A00020080810204010204080020102010804AD
:1001B0000201010204081020408080402010080441
:1001C000020180040201804020100804020108049A
:1001D00002010102040810204080010204081020DE
:1001E000408000000A0B02090C0D0E0807030401F1
:1001F00000000000000000000000000000000000FF
:1002000000000000000000000000000000001211CB
:1002100010000000000000000000000000000000CE
:100220000000000000000000291211241FBECFEFC3
:10023000D1E2DEBFCDBF00E00CBF24E0AEEBB2E008
:1002400001C01D92A838B207E1F712E0A0E0B2E0C9
:10025000E6EEFEE200E00BBF02C007900D92AE3B5F
:10026000B107D9F711E0C5E1D1E000E006C0219760
:100270000109802FFE010E940D15C431D10780E0D5
:100280000807A9F777D60C947117BACE90E0FC0155
:100290003197E231F10508F04EC08827EE58FF4F44
:1002A0008F4F0C940D15809180008F7703C0809143
:1002B00080008F7D80938000089580918000877FEB
:1002C000F9CF84B58F7702C084B58F7D84BD089542
:1002D0008091B0008F7703C08091B0008F7D8093B4
:1002E000B0000895809190008F7707C080919000B2
:1002F0008F7D03C080919000877F80939000089548
:100300008091A0008F7707C08091A0008F7D03C0EF
:100310008091A000877F8093A000089580912001A4
:100320008F7707C0809120018F7D03C080912001CD
:10033000877F809320010895CF93DF93BC0184EEE3
:1003400092E01ED4EC016FE572E084EE92E018D4E6
:100350008C0F9D1FDF91CF9108958F929F92AF9246
:10036000BF920F931F93CF93DF93CDB7DEB7A197C3
:100370000FB6F894DEBF0FBECDBF19A2423008F40D
:100380004AE08E010F5D1F4F842E912CA12CB12CC1
:10039000A50194010E94EB14E62FB901CA01015096
:1003A0001109EA3014F4E05D01C0E95CD801EC9376
:1003B000232B242B252B61F7B80184EE92E0E0D3A8
:1003C000A1960FB6F894DEBF0FBECDBFDF91CF91DF
:1003D0001F910F91BF90AF909F908F900895CF92F3
:1003E000DF92EF92FF92CF93DF936C01990FEE08AB
:1003F000FF08F7FE1EC0E091E402F091E5020190D3
:10040000F081E02D6DE284EE92E01995EC01662713
:100410007727CB016C197D098E099F094AE09DDF82
:100420008C0F9D1FDF91CF91FF90EF90DF90CF90C9
:1004300008954AE0C701B601DF91CF91FF90EF9098
:10044000DF90CF908ACF843008F083E090916A04E7
:10045000891710F08FEF890FE82FF0E0E95AFB4F72
:100460006489606887E594E07CC58F929F92AF9223
:10047000BF92CF92DF92EF92FF920F931F93CF9391
:10048000DF93FC01C081D1812091E0023091E10233
:10049000C217D3070CF048C09E01220F331FE09112
:1004A000DE02F091DF02E20FF31F80809180C170C5
:1004B000DD27F1E0CF27209719F404E610E002C011
:1004C0000CE91FEF7A015B016C01040F151FB801E5
:1004D000C40186D4892B89F40E0D1F1DB801C401F7
:1004E0007FD4892B69F4B8016E0D7F1DC40178D4C7
:1004F000892BE9F023E030E005C021E030E002C0C4
:1005000022E030E0F5018081918101968217930706
:100510003CF0F50111821082F601808191810196F3
:1005200091838083CE0105C081E090E002C08FEF0F
:100530009FEFDF91CF911F910F91FF90EF90DF9090
:10054000CF90BF90AF909F908F900895CF93DF93FF
:10055000282F30E0F901EE51FE4F8491F901E45665
:10056000FE4FD491F901EA5AFE4FC491CC2389F091
:1005700081118CDEEC2FF0E0EE0FFF1FE45CFE4FEC
:10058000A591B491EC91ED2381E090E021F480E01D
:1005900002C080E090E0DF91CF9108951F93CF9348
:1005A000DF93282F30E0F901EE51FE4F8491F901DD
:1005B000E456FE4FD491F901EA5AFE4FC491CC2380
:1005C000C1F0162F811162DEEC2FF0E0EE0FFF1F5D
:1005D000EE5DFE4FA591B4918FB7F894111105C04F
:1005E0009C91ED2FE095E92302C0EC91ED2BEC936B
:1005F0008FBFDF91CF911F910895CF93DF9390E04C
:10060000FC01E456FE4F2491FC01EA5AFE4F84910E
:10061000882361F190E0880F991FFC01E85FFE4F8D
:10062000C591D491FC01EE5DFE4FA591B49161118D
:1006300009C09FB7F8948881209582238883EC9124
:100640002E230BC0623061F49FB7F8943881822F5B
:10065000809583238883EC912E2B2C939FBF06C01B
:100660008FB7F894E8812E2B28838FBFDF91CF912D
:100670000895EF92FF920F931F93CF93DF93EC01B6
:10068000623018F08F8588608F876B8B1C8A80E4BE
:100690008D8B80E18E8B80E58F8B61E08C81ADDF6F
:1006A0008D818F3F11F061E0A8DF61E08E81A5DFD1
:1006B0007E0187E0E80EF11C00E010E08F8584FDEC
:1006C00003C084E090E002C088E090E008171907BA
:1006D00044F461E0F70181917F018FDF0F5F1F4FCD
:1006E000EDCF8BE39DE00197F1F760E08C8156DF61
:1006F00060E08E8153DF8D818F3F11F060E04EDF2F
:100700006F8564FD19C063E0CE01AED30BE416E43F
:10071000C8010197F1F763E0CE01A6D3C8010197A4
:10072000F1F763E0CE01A0D383E592E00197F1F702
:1007300062E0CE0199D313C06062CE0112D48BE483
:1007400096E40197F1F76F856062CE010AD483E5E4
:1007500092E00197F1F76F856062CE0102D46F8558
:100760006062CE01FED384E0888B6CE0CE01F9D3C9
:10077000CE01F9D382E0898B66E0CE01DF91CF9183
:100780001F910F91FF90EF90ECC32FB7F8946091F9
:1007900080047091810480918204909183042FBF22
:1007A00008951F920F920FB60F9211242F933F932B
:1007B0008F939F93AF93BF93809180049091810416
:1007C000A0918204B091830430917F0423E0230F31
:1007D0002D3720F40196A11DB11D05C026E8230F79
:1007E0000296A11DB11D20937F04809380049093F5
:1007F0008104A0938204B093830480917B04909140
:100800007C04A0917D04B0917E040196A11DB11DD0
:1008100080937B0490937C04A0937D04B0937E042A
:10082000BF91AF919F918F913F912F910F900FBEEC
:100830000F901F901895CF92DF92EF92FF920F9337
:100840001F93CF93DF936C017A018B01C0E0D0E05E
:10085000CE15DF0589F0D8016D918D01D601ED919E
:10086000FC910190F081E02DC6011995892B11F4BE
:100870007E0102C02196ECCFC701DF91CF911F917D
:100880000F91FF90EF90DF90CF900895FC01538D72
:10089000448D252F30E0842F90E0821B930B54175A
:1008A00010F0CF96089501970895FC01918D828DE7
:1008B000981761F0828DDF01A80FB11D5D968C91B4
:1008C000928D9F5F9F73928F90E008958FEF9FEFBF
:1008D0000895FC01918D828D981731F0828DE80F7B
:1008E000F11D858D90E008958FEF9FEF0895FC0135
:1008F000918D228D892F90E0805C9F4F821B910902
:100900008F739927089584EE92E0F1DF21E0892B1F
:1009100009F420E0822F0895FC01848DDF01A80FE7
:10092000B11DA35ABF4F2C91848D90E001968F7317
:100930009927848FA689B7892C93A089B1898C9136
:1009400080648C93938D848D981306C00288F389FC
:10095000E02D80818F7D80830895EF92FF920F9329
:100960001F93CF93DF93EC0181E0888F9B8D8C8D5B
:10097000981305C0E889F989808185FD23C0F62E8A
:100980000B8D10E00F5F1F4F0F731127E02E8C8D22
:10099000E8120BC00FB607FCFACFE889F98980810D
:1009A00085FFF5CFCE01B8DFF2CF8B8DFE01E80FCA
:1009B000F11DE35AFF4FF0820B8FEA89FB8980819A
:1009C000806207C0EE89FF896083E889F9898081A8
:1009D0008064808381E090E0DF91CF911F910F913F
:1009E000FF90EF900895CF93DF93EC01888D8823DB
:1009F000C1F0EA89FB89808185FD05C0A889B98994
:100A00008C9186FD0EC00FB607FCF5CF808185FF67
:100A1000F2CFA889B9898C9185FFEDCFCE017CDF1B
:100A2000E8CFDF91CF91089580E090E0892B19F015
:100A30006ADF811125C080E090E0892B41F080E0E1
:100A400090E0892B21F00E94000081111CC080E001
:100A500090E0892B41F080E090E0892B21F00E940A
:100A60000000811113C080E090E0892BA1F080E0AC
:100A700090E0892B81F00E94000081110AC0089546
:100A80000E940000D8CF0E940000E1CF0E94000029
:100A9000EACF0C9400000895089580E090E0089556
:100AA0000E945D17CF93DF93EC0160E08E8176DDCD
:100AB00061E08E8173DD60E08E8170DD8BE891E016
:100AC0000197F1F7DF91CF9108950F931F93CF9383
:100AD000DF93EC0188819981009729F02A813B817D
:100AE0002617370788F48B016F5F7F4F0E947916B6
:100AF000009761F0998388831B830A832C813D8151
:100B0000232B11F4FC01108281E001C080E0DF9111
:100B1000CF911F910F910895EF92FF920F931F9322
:100B2000CF93DF936115710511F480E022C0FB01C2
:100B300001900020E9F73197E61BF70BDC011496D2
:100B40000D911C911597309799F07B01EC010E0FD8
:100B50001F1FB801BADF882341F3288139818C81B6
:100B60009D81B701820F931F0E946A171D830C831A
:100B700081E0DF91CF911F910F91FF90EF90089549
:100B80006115710579F0FB0101900020E9F73197BB
:100B9000AF01461B570BDC01ED91FC910280F38104
:100BA000E02D199480E090E008951F920F920FB607
:100BB0000F9211240BB60F922F933F934F935F9395
:100BC0006F937F938F939F93AF93BF93EF93FF9315
:100BD00084EE92E0A1DEFF91EF91BF91AF919F91E2
:100BE0008F917F916F915F914F913F912F910F90D6
:100BF0000BBE0F900FBE0F901F9018951F920F9273
:100C00000FB60F9211240BB60F922F938F939F93D1
:100C1000EF93FF93E091F402F091F5028081E0916F
:100C2000FA02F091FB0282FD12C090818091FD02D8
:100C30008F5F8F732091FE02821751F0E091FD02C9
:100C4000F0E0EC51FD4F958F8093FD0201C0808153
:100C5000FF91EF919F918F912F910F900BBE0F906D
:100C60000FBE0F901F9018951F920F920FB60F9204
:100C700011240BB60F922F933F934F935F936F9373
:100C80007F938F939F93AF93BF93EF93FF93809145
:100C900082035CDC20918603309187032F5F3F4FF6
:100CA000309387032093860390918503953618F03F
:100CB00096E090938103909181039430C9F128F4D8
:100CC000923069F09330D1F05EC0953009F451C094
:100CD000963009F058C091E09093520451C08111B0
:100CE00052C020918603309187032436310508F4E1
:100CF00042C010925204109285031CC0813009F04A
:100D000042C0E091850391E09E0F90938503F0E04F
:100D10002091860330918703EE0FFF1FEF57FC4FA2
:100D200030872783109287031092860394E029C0AE
:100D3000811117C0E091850391E09E0F9093850388
:100D4000F0E02091860330918703EE0FFF1FEF57ED
:100D5000FC4F30872783109287031092860393E01D
:100D600010C020918603309187032536310558F055
:100D700007C0811108C0109287031092860303C038
:100D800095E090938103909184039923B1F08111B0
:100D90000AC080918303882321F08091830361E05E
:100DA00009C02F9A0AC080918303882329F080917B
:100DB000830360E0F3DB01C02F98FF91EF91BF91B7
:100DC000AF919F918F917F916F915F914F913F91E3
:100DD0002F910F900BBE0F900FBE0F901F90189584
:100DE000CF92DF92EF92FF92CF93DF93EC01072E29
:100DF000000C880B990B0E94B2126B017C0120E061
:100E000030E040E45FE30E94111320E030E048E46A
:100E100052E40E9443140E94AB14C617D707D4F0C3
:100E200020E030E040EA5FE3C701B6010E94111301
:100E300020E030E048E452E40E94431420E030E037
:100E400040E85FE30E94DF130E94AB1421E06C17BF
:100E50007D070CF420E0822F90E0DF91CF91FF908E
:100E6000EF90DF90CF900895CF92DF92EF92FF92B4
:100E70000F931F93CF93DF937C016C0187E0C80E23
:100E8000D11CC0E0D0E0062F10E0B8010C2E02C04B
:100E9000759567950A94E2F76170F60181916F018B
:100EA0007DDB2196C430D10581F7C701DF91CF9159
:100EB0001F910F91FF90EF90DF90CF90F3CDCF92E5
:100EC000DF92EF92FF920F931F93CF93DF93EC018A
:100ED000F62E642F8C8162DB8D818F3F11F060E0F4
:100EE0005DDB8F850F2D10E084FF23C06E0187E04E
:100EF000C80ED11CE12CF12CB8010E2C02C0759546
:100F000067950A94E2F76170F60181916F0146DB03
:100F1000FFEFEF1AFF0A88E0E816F10469F7CE0147
:100F2000DF91CF911F910F91FF90EF90DF90CF90C5
:100F3000B9CDB80184E0759567958A95E1F7CE0142
:100F400093DF6F2DCE01DF91CF911F910F91FF9015
:100F5000EF90DF90CF9088CF41E0B1DF81E090E06B
:100F6000089540E0ACCF61E0FCDF8BE39FE10197A7
:100F7000F1F70895CF93DF93CDB7DEB760970FB643
:100F8000F894DEBF0FBECDBF789484B5826084BD77
:100F900084B5816084BD85B5826085BD85B581607D
:100FA00085BD80916E00816080936E0010928100FB
:100FB00080918100826080938100809181008160B6
:100FC0008093810080918000816080938000809177
:100FD000B10084608093B1008091B0008160809303
:100FE000B000809191008260809391008091910087
:100FF0008160809391008091900081608093900047
:101000008091A10082608093A1008091A100816005
:101010008093A1008091A00081608093A0008091C6
:101020002101826080932101809121018160809360
:1010300021018091200181608093200180917A00BC
:10104000846080937A0080917A00826080937A0035
:1010500080917A00816080937A0080917A00806824
:1010600080937A001092C10061E08CE1C6DA61E001
:101070008DE1C3DA61E08EE1C0DA61E08FE1BDDAD3
:1010800061E080E2BADA61E081E2B7DA61E082E24F
:10109000B4DA61E083E2B1DA61E088E1AEDA61E01E
:1010A00089E1ABDA61E08AE1A8DA61E08BE1A5DAF7
:1010B00061E086E1A2DA61E087E19FDA61E086E241
:1010C0009CDA61E083E399DA60E083E096DA60E03D
:1010D0008CE293DA60E08CE090DAF89412E01093FE
:1010E000B0001093B10084E68093B3001092B20078
:1010F000109370007894109381031092850380916F
:10110000820360E07ADA81E08093840361E08DE01D
:1011100074DA62E087E594E0ACDAE091F402F091F1
:10112000F5021083E091F002F091F1021082E0915B
:10113000F202F091F30280E180831092FC02E091D0
:10114000F802F091F90286E08083E091F602F091D6
:10115000F702808180618083E091F602F091F702CE
:10116000808188608083E091F602F091F7028081AF
:1011700080688083E091F602F091F70280818F7D94
:10118000808387E594E0EFDE80E05DD966E372E07E
:1011900087E594E0F5DC81E056D964E472E087E508
:1011A00094E0EEDC10E2212E312C44244A94542C9D
:1011B000320128E833E03093DF022093DE02809191
:1011C000850390E09093E1028093E00280915204C5
:1011D00090E09093E3028093E20280918103853056
:1011E00009F07FC280918A0390918B0388589109FE
:1011F0008D35910588F480918503843041F4809188
:101200008C0390918D038097479708F411C38091C8
:101210008503843408F0C9C1809185038A3108F4BC
:101220004FC08091880390918903843F914068F476
:101230001092DD021092DC024092D8025092D90244
:101240006092DA027092DB0259C080918A03909119
:101250008B0385974B97A0F5EEE8F3E082E090E0F2
:10126000C12CD12C7601AC014F5F5F4F20918503DB
:1012700030E0421753075CF4DF0112972D913C9147
:10128000275031092730310508F4F6C2CA01019709
:10129000959587959093DD028093DC020C972CF452
:1012A0001092DD021092DC020BC0C092D802D092E4
:1012B000D902E092DA02F092DB0284E090E014C4FA
:1012C000809185038A3108F44CC080918803909105
:1012D00089038032934008F4ABCF80918A039091C8
:1012E0008B03C697869708F4E4C23BC0C092D8022D
:1012F000D092D902E092DA02F092DB028BE090E029
:10130000F3C320813181255231092B31310508F099
:10131000E0C2CC0CDD1CEE1CFF1C6894C0F80296E9
:101320003496AC014F5F5F4F2091850330E0421748
:10133000530754F4DF0112972D913C912C50310941
:101340002B303105F0F2CA0101979595879590935E
:10135000DD028093DC020C974CF61092DD021092B5
:10136000DC02809185038232E8F180918A039091BA
:101370008B0306970797B0F5EEE8F3E082E090E084
:10138000C12CD12C76019C012F5F3F4F40918503EA
:1013900050E0241735076CF4DF0112974D915C91F2
:1013A00011974E5151094731510508F4B6C29EC2FA
:1013B000C9010197959587959093DD028093DC0292
:1013C00040972CF41092DD021092DC020BC0C09208
:1013D000D802D092D902E092DA02F092DB028CE0DD
:1013E00090E082C318861F8221E030E03A8329838F
:1013F000809185038D3008F467C049E753E0BE0152
:10140000695F7F4FCE01019630D8892B09F05CC00F
:1014100049E753E0BE01695F7F4FCE01019625D8B1
:10142000019709F051C049E753E0BE01695F7F4F62
:10143000CE0101961AD8892B09F046C0812C912C37
:10144000540100E010E08091850390E029813A8109
:101450002817390754F549E753E0BE01695F7F4F0C
:10146000CE01019602D87C0149E753E0BE01695FD5
:101470007F4FCE0101960E94350231E0E316F10460
:1014800049F4892B09F5880C991CAA1CBB1C68948B
:1014900080F808C0EF28C1F40197B1F4880C991CBA
:1014A000AA1CBB1C0F5F1F4FCECF1093DD02009311
:1014B000DC028092D8029092D902A092DA02B09215
:1014C000DB0281E090E010C318861F82A1E0B0E04B
:1014D000BA83A9838091E0029091E102181619065F
:1014E0000CF058C0E091DE02F091DF0282E090E063
:1014F0009A8389838281938189974E9708F04AC0A5
:1015000023E030E03A832983848195810B970A9701
:1015100008F040C04CEB51E0BE01695F7F4FCE0147
:1015200001960E943502892BA9F54CEB51E0BE01D2
:10153000695F7F4FCE0101960E943502019751F5F8
:10154000812C912C540100E010E029813A81809196
:10155000E0029091E102281739070CF01BC24CEB16
:1015600051E0BE01695F7F4FCE0101960E943502B6
:101570006C010330110509F0D7C14CEB51E0BE01FD
:10158000695F7F4FCE0101960E943502C816D906C9
:1015900009F4CAC1E091DE02F091DF0282819381F9
:1015A000C697869708F405C265C480918C03909114
:1015B0008D03825491098E9708F02ECE80E090E042
:1015C00040E050E0BA01FC01E257FC4F208131813C
:1015D000295031092930310508F01ECEFC01E057B1
:1015E000FC4F20813181275131092231310508F02A
:1015F00036C1440F551F661F771F4160049680381F
:10160000910509F73092DD022092DC024093D80266
:101610005093D9026093DA027093DB02A3E0B0E04A
:10162000B093D502A093D402C090D802D090D90232
:10163000E090DA02F090DB02A8D80091C802109185
:10164000C9022091CA023091CB02DC01CB01801B80
:10165000910BA20BB30B84369105A105B10508F4DB
:101660003BC093D86093C8027093C9028093CA02AA
:101670009093CB028091C6029091C7029C012F5F8C
:101680003F4F3093C7022093C6020E94EF0163E5EB
:1016900072E084EE92E074DA4AE0C701B6010E947B
:1016A000AD016FE572E084EE92E06ADA37EBC316C3
:1016B00038E4D30630EEE306F30609F01AC265D823
:1016C000609353047093540480935504909356048C
:1016D000109279041092780482E080938103109232
:1016E000850380910002882399F183E00E94A6027D
:1016F00021E0892B09F420E02093CF028091CE02D3
:10170000281731F18091CC029091CD029C012F5F7E
:101710003F4F3093CD022093CC020E94EF0168E945
:1017200072E084EE92E02CDA8091CF028093CE02B8
:10173000882331F08BE992E00E949C0161E005C0B2
:101740008EEA92E00E949C0160E083E30E94CE0258
:101750001CD80091530410915404209155043091E9
:101760005604DC01CB01801B910BA20BB30B883C10
:101770009105A105B10508F059C007D80091D00224
:101780001091D1022091D2023091D302DC01CB0121
:10179000801B910BA20BB30B0297A105B10508F4B6
:1017A00045C00E94C5036093D0027093D10280931C
:1017B000D2029093D30220917804309179048091E1
:1017C00077042115310539F4833010F48F5F0BC095
:1017D000109277040AC02130310539F4811102C01A
:1017E00083E001C08150809377040091770410E07A
:1017F00001591B4FF80160816870809173040E9449
:10180000CE02D8016C916470809174040E94CE0263
:10181000F80160816270809175040E94CE02D80147
:101820006C916170809176040E94CE02FDD8C1CC8B
:1018300080918E0390918F030997099708F0E7CC68
:101840001092DD021092DC024092D8025092D9022E
:101850006092DA027092DB0283E090E045C1208161
:101860003181265031092730310508F0D5CC440F9D
:10187000551F661F771FC2CE208131812351310948
:101880002F30310578F0208131812A5031092930FB
:10189000310508F015CDCC0CDD1CEE1CFF1C0296AA
:1018A0003496E1CCCC0CDD1CEE1CFF1C6894C0F817
:1018B000F6CF80918C0390918D03C697869708F0A0
:1018C00050CDE0E9F3E083E090E0C12CD12C76012B
:1018D00028CD208131812C5031092A30310508F082
:1018E00040CDCC0CDD1CEE1CFF1C19CD4D915C9144
:1018F0004C5051094B30510508F074CDCC0CDD1C17
:10190000EE1CFF1C408151813496435051094530F3
:10191000510508F04DCD029636CDCC0CDD1CEE1CE9
:10192000FF1C6894C0F8EECF4CEB51E0BE01695F3C
:101930007F4FCE0101960E9435027C0103301105D4
:1019400069F44CEB51E0BE01695F7F4FCE01019617
:101950000E943502E816F90609F01CCEC114D10424
:1019600059F4EA94EF2809F015CE880C991CAA1CAA
:10197000BB1C689480F80BC0CA94CD2809F00ACE2D
:10198000EF2809F007CE880C991CAA1CBB1C0F5F1E
:101990001F4FDBCD1093DD020093DC028092D80252
:1019A0009092D902A092DA02B092DB0282E090E03B
:1019B0009BC0848195814B97459708F05BC2DF01FE
:1019C00016967F0136ECE30EF11C20E030E040E09B
:1019D00050E060E070E080E090E0CD90DC90119706
:1019E00019E0C11AD10818E0C116D10408F042C2AA
:1019F0001296CD90DC90139711E1C11AD1081DE029
:101A0000C116D10420F501E00E941515216014963D
:101A1000AE15BF0511F72093D8023093D902409339
:101A2000DA025093DB0200E20E9430152093D602C6
:101A30003093D70285E090E09093D5028093D40252
:101A400080E390E09093DD028093DC02EDCD12966E
:101A5000CD90DC90139714E0C11AD10815E0C1169F
:101A6000D10408F007C201E0E0D7D1CFA80142506D
:101A70005109DA014D915C914950510948305105A5
:101A800008F0A6C2BC016F5F7F4FD8014D915C91F9
:101A9000475051094730510508F08EC4220F331FBB
:101AA000216002960C5F1F4F4091850350E0445027
:101AB000510984179507D4F20197959587959093CE
:101AC000DD028093DC028A970CF482C2C901330FD5
:101AD000AA0BBB0B8093D8029093D902A093DA0291
:101AE000B093DB0289E090E09093D5028093D4021A
:101AF0009BCD82EDC8168BECD80687E8E80686E019
:101B0000F80609F4DCCD97EFC91698E0D90690EEF7
:101B1000E906F90649F0A2EFCA16ABECDA06A7E827
:101B2000EA06A6E0FA0689F40E94C503609353040E
:101B3000709354048093550490935604E1E0F0E0D0
:101B4000F0937904E0937804C7CDFFEDCF16F0E26F
:101B5000DF06F0EEEF06FF0649F010EFC1161BECB2
:101B6000D10617E8E10616E0F10681F48CE10E9447
:101B7000A60261E0892B09F060E08CE10E94CE02B0
:101B80008CE10E94A6028093BE0214C12FE5C2160A
:101B900020EAD20620EEE206F20649F038ECC3163F
:101BA0003BECD30637E8E30636E0F30681F48DE13B
:101BB0000E94A60261E0892B09F060E08DE10E949D
:101BC000CE028DE10E94A6028093BF02F3C08FE98E
:101BD000C81680E6D80680EEE806F80649F098EECA
:101BE000C9169BECD90697E8E90696E0F90681F458
:101BF0008EE10E94A60261E0892B09F060E08EE18F
:101C00000E94CE028EE10E94A6028093C002D2C042
:101C1000AFEECA16A0E1DA06A0EEEA06FA0649F02F
:101C2000B8EFCB16BBECDB06B7E8EB06B6E0FB067D
:101C300081F48FE10E94A60261E0892B09F060E047
:101C40008FE10E94CE028FE10E94A6028093C10222
:101C5000B1C0EFE6CE16E0E9DE06E0EEEE06FE06E7
:101C600049F0F4ECCF16FBECDF06F7E8EF06F6E000
:101C7000FF0681F480E20E94A60261E0892B09F050
:101C800060E080E20E94CE0280E20E94A602809381
:101C9000C20290C01FEAC11610E5D10610EEE1069F
:101CA000F10649F024EEC2162BECD20627E8E20634
:101CB00026E0F20681F481E20E94A60261E0892B0F
:101CC00009F060E081E20E94CE0281E20E94A60259
:101CD0008093C3026FC03FECC31630E3D30630EEEF
:101CE000E306F30649F084EFC8168BECD80687E8C4
:101CF000E80686E0F80681F482E20E94A60261E02E
:101D0000892B09F060E082E20E94CE0282E20E940A
:101D1000A6028093C4024EC09FE4C91690EBD90678
:101D200090EEE906F90649F0ACECCA16ABECDA061F
:101D3000A7E8EA06A6E0FA0681F483E20E94A6027A
:101D400061E0892B09F060E083E20E94CE0283E229
:101D50000E94A6028093C5022DC0B1E6CB16BEE953
:101D6000DB06B0EEEB06FB0651F0ECEDCE16EBEC2D
:101D7000DE06E7E8EE06E6E0FE0609F0ADCC90915F
:101D8000000281E089278093000260E083E30E94E3
:101D9000CE0262E672E084EE92E00E94C00580917D
:101DA0000002811103C08DE292E002C085E292E060
:101DB0000E949C011A8219821C821B821E821D8233
:101DC00060E070E0CE0101960E94650529813A81AC
:101DD00081110EC02115310511F0C901F2D61A8208
:101DE00019821E821D821C821B820EEB12E018C01B
:101DF0001E821D8261E672E0C9010E946A17F5CF5A
:101E000067E772E0CE0101960E948C0569E972E0F5
:101E1000CE0101960E948C05B2E0063C1B0741F002
:101E2000D8018D918D018111EBCF65E772E0EACF8A
:101E300087E594E098D880E00E9423024D815E817E
:101E400069817A8187E594E00E941B0481E00E9409
:101E5000230280910002882319F069E772E002C032
:101E600068E872E087E594E00E94C00589819A8164
:101E7000A8D632CC80918503893370F18281938119
:101E8000895791098335910508F441C125C0D901CD
:101E900012966D917C9113976651710961317105AC
:101EA00008F061C1D701C601880F991FAA1FBB1F87
:101EB0006C017D016894C0F84E5F5F4F2C5F3F4F0F
:101EC0004B33510509F432C1D9016D917C916A50AF
:101ED000710969307105D8F280918503823231F43D
:101EE000828193810A97099708F44DC18281938179
:101EF0008957910983359105D0F48091850381320A
:101F0000B0F084819581CA97899788F49F012A5FF0
:101F10003F4FC12CD12C760143E050E0D9016D91A7
:101F20007C916A5071096930710508F448C1828159
:101F300093818C549109C59778F4809185038430FE
:101F400031F4848195818097479708F498C18091F6
:101F50008503843408F07AC180918503863460F16A
:101F6000828193810C970B9708F4D2C125C0D901C7
:101F700012966D917C9113976E51710967317105BD
:101F800008F0E1C1D701C601880F991FAA1FBB1F26
:101F90006C017D016894C0F84E5F5F4F2C5F3F4F2E
:101FA0004534510509F4DEC1D9016D917C916C5025
:101FB00071096B307105D8F280918503883540F046
:101FC00082819381855891098B35910508F4E5C18B
:101FD000809185038032E1F4828193810697069790
:101FE000B8F4848195810997099790F49F012A5F3D
:101FF0003F4FBF01625C7F4FC12CD12C7601D901CC
:102000004D915C91465051094630510508F4E1C1AB
:102010002091E0023091E1023C872B872630310588
:102020000CF45ACB8F010A5F1F4F83E090E09A8730
:10203000898795ECC92E9DE9D92E9CE1E92E91E87E
:10204000F92ED8016D917C91F8013497A080B18070
:1020500080E090E085D26D877E878F87988BB50171
:1020600080E090E07DD24B015C012DEC3CEC4CE437
:102070005FE3D7D29B01AC016D857E858F85988902
:102080006BD287FD17C02DEC3CEC4CE45FE36D8513
:102090007E858F859889C5D29B01AC01C501B401AD
:1020A0005BD2E82F880FFF0BEE27FF0FEE1FFF27F5
:1020B000319602C0E0E0F0E0A701960163E971E02B
:1020C00080E091E079D46F01FF0FEE08FF08C6268B
:1020D000D726E826F926E985FA853196FA87E98731
:1020E0000E5F1F4F2B853C85E217F30709F0A9CF40
:1020F000C092D802D092D902E092DA02F092DB02CA
:102100003092DD022092DC028FEF9FEFEDCC8481D4
:102110009581CA97899708F0DFCE9F012A5F3F4FCC
:10212000C12CD12C760143E050E0CECE9F012A583D
:102130003F4FD9012D913C912A5031092930310569
:1021400008F0CACE2CE130E03093DD022093DC02AF
:10215000C092D802D092D902E092DA02F092DB0269
:102160008AE090E0C1CCD90112966D917C911397D1
:10217000665071096730710508F0AECECC0CDD1CDD
:10218000EE1CFF1C99CE20918503CF01820F911D7B
:10219000820F911DDC0112978D919C910A970997EE
:1021A00008F0A4CE1092DD021092DC024092D80218
:1021B0005092D9026092DA027092DB0244C1D901D6
:1021C00012966D917C911397665171096131710579
:1021D00068F5D701C601880F991FAA1FBB1F6C01A4
:1021E0007D016894C0F84E5F5F4F2C5F3F4F4332D4
:1021F000510509F093CE9F012A5B3F4FD9012D91E4
:102200003C912A5031092930310508F090CEE0E1A7
:10221000F0E0F093DD02E093DC02C092D802D092AD
:10222000D902E092DA02F092DB020DC1D9011296D6
:102230006D917C911397665071096730710508F0B4
:1022400076CECC0CDD1CEE1CFF1CCDCF848195819D
:1022500089549109C39708F07FCE9F012A5F3F4FB1
:10226000BF016A577F4FC12CD12C7601D9014D9106
:102270005C914950510949305105A0F06DCE8681DD
:1022800097810997099708F062CE1092DD021092AB
:10229000DC024092D8025092D9026092DA02709227
:1022A000DB02D4C0D90112964D915C91139746512F
:1022B000510941315105E0F4D701C601880F991F3A
:1022C000AA1FBB1F6C017D016894C0F82C5F3F4FB3
:1022D0002617370759F63092DD022092DC02C092B1
:1022E000D802D092D902E092DA02F092DB02AEC0BC
:1022F000D90112964D915C91139746505109473080
:10230000510508F029CECC0CDD1CEE1CFF1CDECFE5
:10231000848195810997099708F04ECE868197812F
:102320008C974F9708F048CE8085918589974D9777
:1023300008F042CE9F01265F3F4FC12CD12C760181
:1023400045E050E031CE12966D917C911397695023
:1023500071096930710508F02FCECC0CDD1CEE1C24
:10236000FF1C1ACE9F0126573F4FD9012D913C915A
:102370002C5031092B30310508F01ECE3092DD0291
:102380002092DC02C092D802D092D902E092DA0206
:10239000F092DB0288E090E0A7CB848195818254A3
:1023A00091098E9708F014CE8F01045C1F4F8DE1C8
:1023B00090E020E030E078CBD8014D915C9148511D
:1023C00051094231510510F0CB0176CB220F331F5A
:1023D00068CBD90112964D915C91139749515109DF
:1023E0004331510528F112964D915C911397495054
:1023F00051094930510508F00BCECC0CDD1CEE1C08
:10240000FF1C2C5F3F4F2617370709F0F8CD2EE051
:1024100030E03093DD022093DC02C092D802D092EB
:10242000D902E092DA02F092DB028FE090E05CCB1E
:10243000D701C601880F991FAA1FBB1F6C017D0120
:102440006894C0F8DECF86E090E04ECB87E090E065
:102450004BCBCF93DF93E4EEF2E01382128288EE4F
:1024600093E0A0E0B0E084839583A683B7838BE0FC
:1024700092E09183808385EC90E09587848784EC5B
:1024800090E09787868780EC90E0918B808B81EC41
:1024900090E0938B828B82EC90E0958B848B86EC22
:1024A00090E0978B868B118E128E138E148EE1E83E
:1024B000F3E08CE081831382CFE6D4E0888386E06A
:1024C000898383E08A8389E08B8388E28C8389E235
:1024D0008D838AE28E838BE28F8318861A86198613
:1024E00061E088E20E94FD0261E08D810E94FD02B0
:1024F00061E08E810E94FD0261E08F810E94FD02F9
:10250000E7E5F4E0138212828DE192E0918380830B
:1025100086E184838FEF858387E1868388E18783E3
:1025200089E180878AE181878BE18287138614861F
:1025300015861686178661E0CF010E9439030E9436
:10254000C50360935304709354048093550490938F
:102550005604DF91CF91089540D008F481E00895AA
:10256000E89409C097FB3EF490958095709561952D
:102570007F4F8F4F9F4F9923A9F0F92F96E9BB27E3
:102580009395F695879577956795B795F111F8CF5F
:10259000FAF4BB0F11F460FF1BC06F5F7F4F8F4FCA
:1025A0009F4F16C0882311F096E911C0772321F0C0
:1025B0009EE8872F762F05C0662371F096E8862F58
:1025C00070E060E02AF09A95660F771F881FDAF7AF
:1025D000880F9695879597F90895990F0008550FDC
:1025E000AA0BE0E8FEEF16161706E807F907C0F099
:1025F00012161306E407F50798F0621B730B840BA1
:10260000950B39F40A2661F0232B242B252B21F47A
:1026100008950A2609F4A140A6958FEF811D811D1A
:1026200008950BD078C069D028F06ED018F09523AB
:1026300009F05AC05FC01124A2C07ED0A0F3959FBC
:10264000D1F3950F50E0551F629FF001729FBB2799
:10265000F00DB11D639FAA27F00DB11DAA1F649F45
:102660006627B00DA11D661F829F2227B00DA11DF8
:10267000621F739FB00DA11D621F839FA00D611D7E
:10268000221F749F3327A00D611D231F849F600D9F
:10269000211D822F762F6A2F11249F5750408AF0D8
:1026A000E1F088234AF0EE0FFF1FBB1F661F771F64
:1026B000881F91505040A9F79E3F510570F014C0FB
:1026C0005EC05F3FECF3983EDCF3869577956795A7
:1026D000B795F795E7959F5FC1F7FE2B880F911D82
:1026E0009695879597F9089597F99F6780E870E028
:1026F00060E008959FEF80EC089500240A94161678
:10270000170618060906089500240A9412161306DF
:10271000140605060895092E0394000C11F488236D
:1027200052F0BB0F40F4BF2B11F460FF04C06F5F89
:102730007F4F8F4F9F4F089557FD9058440F551F5F
:1027400059F05F3F71F04795880F97FB991F61F033
:102750009F3F79F087950895121613061406551FAA
:10276000F2CF4695F1DF08C0161617061806991F16
:10277000F1CF86957105610508940895E894BB270B
:1027800066277727CB0197F9089509D0A59F900D6B
:10279000B49F900DA49F800D911D11240895A29FB8
:1027A000B001B39FC001A39F700D811D1124911D25
:1027B000B29F700D811D1124911D08955058BB27A3
:1027C000AA270ED0A8CF99DF30F09EDF20F031F499
:1027D0009F3F11F41EF48ECF0EF4E095E7FB84CFFB
:1027E000E92FAADF80F3BA176207730784079507FA
:1027F00018F071F49EF5C2CF0EF4E0950B2EBA2FAF
:10280000A02D0B01B90190010C01CA01A0011124F6
:10281000FF27591B99F0593F50F4503E68F11A16A2
:10282000F040A22F232F342F4427585FF3CF469533
:1028300037952795A795F0405395C9F77EF41F1655
:10284000BA0B620B730B840BBAF09150A1F0FF0F1F
:10285000BB1F661F771F881FC2F70EC0BA0F621F0B
:10286000731F841F48F4879577956795B795F795FB
:102870009E3F08F0B3CF9395880F08F09927EE0F8D
:102880009795879508950CD046CF3EDF40F035DF11
:1028900030F021F45F3F19F027CF511170CF2ACFCC
:1028A0004BDF98F39923C9F35523B1F3951B550BCF
:1028B000BB27AA2762177307840738F09F5F5F4F13
:1028C000220F331F441FAA1FA9F333D00E2E3AF054
:1028D000E0E830D091505040E695001CCAF729D06E
:1028E000FE2F27D0660F771F881FBB1F26173707BD
:1028F0004807AB07B0E809F0BB0B802DBF01FF27ED
:1029000093585F4F2AF09E3F510568F0EDCE37CFC8
:102910005F3FECF3983EDCF3869577956795B79526
:10292000F7959F5FC9F7880F911D9695879597F941
:102930000895E1E0660F771F881FBB1F62177307BA
:102940008407BA0720F0621B730B840BBA0BEE1FCF
:1029500088F7E095089504D06894B11110CF0895D8
:10296000F3DE88F09F5790F0B92F9927B751A0F068
:10297000D1F0660F771F881F991F1AF0BA95C9F713
:1029800012C0B13081F0FADEB1E00895F7CE672FC2
:10299000782F8827B85F39F0B93FCCF386957795C3
:1029A0006795B395D9F73EF49095809570956195AC
:1029B0007F4F8F4F9F4F0895DB018F939F93E5DEED
:1029C000BF91AF91A29F800D911DA39F900DB29FCB
:1029D000900D11240895A1E21A2EAA1BBB1BFD0124
:1029E0000DC0AA1FBB1FEE1FFF1FA217B307E407EE
:1029F000F50720F0A21BB30BE40BF50B661F771F46
:102A0000881F991F1A9469F7609570958095909525
:102A10009B01AC01BD01CF010895EE0FFF1F881F80
:102A20008BBF0790F691E02D19940F93083090F02A
:102A3000982F872F762F652F542F432F322F222741
:102A40000850F4CF220F331F441F551F661F771FF6
:102A5000881F991F0A95B2F70F91089597FB10F8F8
:102A6000169400080F93083098F00850232F342F45
:102A7000452F562F672F782F892F902DF4CF05944F
:102A800097958795779567955795479537952795A6
:102A90000A95AAF70F910895CF93DF93823091059D
:102AA00010F482E090E0E0918604F091870420E049
:102AB00030E0C0E0D0E0309711F1408151814817FB
:102AC0005907C0F04817590761F482819381209714
:102AD00019F09B838A832BC090938704809386048C
:102AE00026C02115310519F04217530718F49A0131
:102AF000BE01DF01EF010280F381E02DDCCF211563
:102B0000310509F1281B390B2430310590F4129658
:102B10008D919C9113976115710521F0FB019383B1
:102B2000828304C09093870480938604FD013296CB
:102B300044C0FD01E20FF31F8193919322503109AC
:102B40002D933C933AC02091840430918504232B2B
:102B500041F42091030230910402309385042093C4
:102B6000840420910102309102022115310541F4C3
:102B70002DB73EB74091050250910602241B350B3C
:102B8000E0918404F0918504E217F307A0F42E1B72
:102B90003F0B2817390778F0AC014E5F5F4F2417C1
:102BA000350748F04E0F5F1F50938504409384040F
:102BB0008193919302C0E0E0F0E0CF01DF91CF91EB
:102BC00008950F931F93CF93DF93009709F48CC060
:102BD000FC013297138212820091860410918704BF
:102BE0000115110581F420813181820F931F2091FD
:102BF0008404309185042817390779F5F09385040A
:102C0000E093840471C0D80140E050E0AE17BF07E4
:102C100050F412962D913C911397AD012115310579
:102C200009F1D901F3CF9D01DA0133832283608159
:102C30007181860F971F8217930769F4EC01288131
:102C40003981260F371F2E5F3F4F318320838A81C2
:102C50009B8193838283452B29F4F0938704E0932F
:102C6000860442C01396FC93EE931297ED014991AE
:102C700059919E01240F351FE217F30771F48081EB
:102C80009181840F951F029611969C938E93828159
:102C9000938113969C938E931297E0E0F0E0D80115
:102CA00012968D919C911397009719F0F8018C0161
:102CB000F6CF8D919C9198012E5F3F4F820F931F0D
:102CC00020918404309185042817390769F43097DE
:102CD00029F4109287041092860402C01382128293
:102CE0001093850400938404DF91CF911F910F917D
:102CF00008956F927F928F929F92AF92BF92CF92E0
:102D0000DF92EF92FF920F931F93CF93DF93EC012B
:102D1000009781F4CB01DF91CF911F910F91FF902C
:102D2000EF90DF90CF90BF90AF909F908F907F906B
:102D30006F90B2CEFC01E60FF71F9C0122503109C3
:102D4000E217F30708F4A8C0D9010D911C9111975F
:102D500006171707A8F00530110508F49BC0C80135
:102D600004978617970708F495C002501109061BAF
:102D7000170B019311936D937C93CF0122DF8AC0CF
:102D80005B01A01AB10A4C01800E911EA09186042D
:102D9000B091870440E050E0E12CF12C109709F449
:102DA0004AC0A815B905D1F56D907C9011976301C3
:102DB00082E0C80ED11CCA14DB0480F1A3014A19B9
:102DC0005B096A0182E0C80ED11C1296BC90129772
:102DD0001396AC91B5E0CB16D10440F0B282A38338
:102DE00051834083D9016D937C930AC00E5F1F4FBE
:102DF000C301800F911FF90191838083EB2DFA2F7E
:102E0000E114F10431F0D7011396FC93EE9312977D
:102E100041C0F0938704E09386043CC08D919C915F
:102E200011974817590708F4AC017D0112960D90CF
:102E3000BC91A02DB3CF8091840490918504881516
:102E40009905E1F446175707C8F480910102909163
:102E50000202009741F48DB79EB740910502509150
:102E60000602841B950BE817F907B0F4F09385046C
:102E7000E0938404F901718360830CC0CB010CDE04
:102E80007C01009749F0A801BE011BD0CE0199DE5C
:102E9000C70104C0CE0102C080E090E0DF91CF9175
:102EA0001F910F91FF90EF90DF90CF90BF90AF9068
:102EB0009F908F907F906F90089581E090E0F894BC
:102EC00010C0FB01DC0102C001900D924150504046
:102ED000D8F70895FB01DC0101900D920020E1F785
:062EE0000895F894FFCFF5
:102EE6000100008804800000000000AD041B0446B9
:102EF60004F30477045504690400000000AC071BC2
:102F0600044D054C05454E41424C45440044495349
:102F160041424C45440020202057454C434F4D45E7
:102F260020544F002020534D41525420484F5553B2
:102F36004521002E20495220726563763A20000D05
:102F46000A004D6F74696F6E2064657465637469F9
:102F56006F6E3A20002F0030004D5F646574656324
:102F6600746F723A204F4E004D5F646574656374EA
:102F76006F723A204F4646002E20005072657365E8
:102F86006E636520646574656374656421005072C0
:0E2F96006573656E636520656E646564210079
:00000001FF
