:100000000C945D000C9485000C9485000C94850084
:100010000C9485000C9485000C9485000C9485004C
:100020000C9485000C9485000C9485000C9485003C
:100030000C9485000C9485000C9485000C9485002C
:100040000C9474030C9485000C94E4030C94BE038C
:100050000C9485000C9485000C9485000C9485000C
:100060000C9416040C9485000000000800020100A6
:100070000003040700000000000000000000000072
:10008000250028002B0000000000240027002A0083
:10009000040404040404040402020202020203032E
:1000A0000303030301020408102040800102040836
:1000B0001020010204081020440511241FBECFEFB8
:1000C000D8E0DEBFCDBF22E0A0E4B1E001C01D92C8
:1000D000AD37B207E1F711E0A0E0B1E0EAEFF3E1FC
:1000E00002C005900D92A034B107D9F710E0CDE51C
:1000F000D0E004C02197FE010E94E907CC35D1076A
:10010000C9F70E94AF050C94FB090C94000090E025
:10011000FC01EC55FF4F2491FC01E057FF4F849107
:10012000882399F090E0880F991FFC01EA57FF4F50
:10013000A591B491FC01E458FF4F859194918FB73C
:10014000F894EC91E22BEC938FBF089590E0FC01C2
:10015000E859FF4F3491FC01EC55FF4F2491FC010D
:10016000E057FF4FE491EE2309F43BC0332339F10C
:10017000333091F038F43130A9F0323001F584B5E4
:100180008F7D12C0373091F03830A1F03430B9F49F
:10019000809180008F7D03C0809180008F77809355
:1001A00080000DC084B58F7784BD09C08091B000F8
:1001B0008F7703C08091B0008F7D8093B000F0E016
:1001C000EE0FFF1FE458FF4FA591B4918FB7F8943D
:1001D000EC91611103C020952E2301C02E2B2C938E
:1001E0008FBF08952FB7F8946091BA017091BB0149
:1001F0008091BC019091BD012FBF08950F931F9373
:100200000E94F2006093C6017093C7018093C801F9
:100210009093C901E091BE01F091BF010680F78182
:10022000E02D8EEB91E0099597FF1FC00E94F20030
:100230000091C6011091C7012091C8013091C901F8
:10024000DC01CB01801B910BA20BB30B0091C2010F
:100250001091C3012091C4013091C501801791070D
:10026000A207B307B8F28FEF9FEF1F910F91089588
:10027000CF92DF92EF92FF920F931F93CF93DF9372
:100280006C017A018B01C0E0D0E0CE15DF0589F06A
:10029000D8016D918D01D601ED91FC910190F08115
:1002A000E02DC6010995892B11F47E0102C021962B
:1002B000ECCFC701DF91CF911F910F91FF90EF908D
:1002C000DF90CF900895FC01918D828D981761F099
:1002D000828DDF01A80FB11D5D968C91928D9F5F7D
:1002E0009F73928F90E008958FEF9FEF0895FC0128
:1002F000918D828D981731F0828DE80FF11D858DDB
:1003000090E008958FEF9FEF0895FC01918D228D6D
:10031000892F90E0805C9F4F821B91098F739927F2
:1003200008958EEB91E00E94850121E0892B09F46C
:1003300020E0822F0895FC01848DDF01A80FB11DFC
:10034000A35ABF4F2C91848D90E001968F7399270B
:10035000848FA689B7892C93A089B1898C918064F8
:100360008C93938D848D981306C00288F389E02DB9
:1003700080818F7D80830895EF92FF920F931F936A
:10038000CF93DF93EC0181E0888F9B8D8C8D981348
:1003900005C0E889F989808185FD24C0F62E0B8D82
:1003A00010E00F5F1F4F0F731127E02E8C8DE812A6
:1003B0000CC00FB607FCFACFE889F989808185FF68
:1003C000F5CFCE010E949B01F1CF8B8DFE01E80F8E
:1003D000F11DE35AFF4FF0820B8FEA89FB89808180
:1003E000806207C0EE89FF896083E889F98980818E
:1003F0008064808381E090E0DF91CF911F910F9125
:10040000FF90EF900895CF93DF93EC01888D8823C0
:10041000C9F0EA89FB89808185FD05C0A889B98971
:100420008C9186FD0FC00FB607FCF5CF808185FF4C
:10043000F2CFA889B9898C9185FFEDCFCE010E94BA
:100440009B01E7CFDF91CF91089580E090E0892B69
:1004500029F00E94910181110C94000008950895E3
:100460008FEF9FEF08958FEF9FEF08958091AE017A
:1004700090E0919581959109089585ED8093BC0058
:100480008091BC0084FDFCCF1092880108954091BA
:100490006201262F30E0240F311D21323105DCF4BA
:1004A000209188012430C9F4FC0180E090E0861797
:1004B00058F4309162012191DC01A05CBE4FA30F82
:1004C000B11D2C930196F3CF80916201680F609368
:1004D000620180E0089581E0089582E00895CF935D
:1004E000DF9300D0CDB7DEB7CB01642F49835A83A9
:1004F0000E9447024981842F5A81952F0F900F90B7
:10050000DF91CF910895CF93DF931F92CDB7DEB7E0
:10051000698361E0CE0101960E94470281E090E08C
:100520000F90DF91CF9108950F931F93CF93DF9397
:100530008C01FC018085882311F0608107C061E097
:10054000F80180819181892B09F060E0F8018681B2
:100550000E94A600F801C281D38104811581802FF9
:100560000E948700209709F447C0CF3FD10509F4C6
:1005700045C0F801FF27E859FF4FE491E330F9F057
:1005800048F4E130B9F0E230A1F584B5806284BD71
:10059000C8BD3CC0E730E9F0E83019F1E43049F576
:1005A00080918000806280938000D0938B00C09304
:1005B0008A002CC084B5806884BDC7BD27C08091E7
:1005C0008000806880938000D0938900C093880069
:1005D0001DC08091B00080688093B000C093B300CC
:1005E00015C08091B00080628093B000C093B400C9
:1005F0000DC0C038D10514F460E001C061E0802F67
:10060000DF91CF911F910F910C94A600DF91CF91B4
:100610001F910F9108950E94E6090F931F93CF93A6
:10062000DF93EC0188819981009729F02A813B8131
:100630002617370788F48B016F5F7F4F0E941C09D4
:10064000009761F0998388831B830A832C813D8105
:10065000232B11F4FC01108281E001C080E0DF91C6
:10066000CF911F910F910895EF92FF920F931F93D7
:10067000CF93DF93EC01198218821B821A821D82AC
:100680001C826115710549F18B01FB01019000206D
:10069000E9F731977F01E61AF70AB7010E940D03C7
:1006A0002881398181110DC02115310519F0C90149
:1006B0000E948408198218821D821C821B821A8261
:1006C0000CC0FD82EC82B801C901DF91CF911F916E
:1006D0000F91FF90EF900C94F409DF91CF911F914F
:1006E0000F91FF90EF9008951F920F920FB60F9207
:1006F00011242F933F938F939F93AF93BF93809138
:10070000BA019091BB01A091BC01B091BD013091A3
:10071000B90123E0230F2D3720F40196A11DB11D4F
:1007200005C026E8230F0296A11DB11D2093B90133
:100730008093BA019093BB01A093BC01B093BD011B
:100740008091B5019091B601A091B701B091B80127
:100750000196A11DB11D8093B5019093B601A093A0
:10076000B701B093B801BF91AF919F918F913F9125
:100770002F910F900FBE0F901F9018951F920F9200
:100780000FB60F9211242F933F934F935F936F9364
:100790007F938F939F93AF93BF93EF93FF938EEBD2
:1007A00091E00E949B01FF91EF91BF91AF919F91CA
:1007B0008F917F916F915F914F913F912F910F900A
:1007C0000FBE0F901F9018951F920F920FB60F92A9
:1007D00011242F938F939F93EF93FF93E091CE017A
:1007E000F091CF018081E091D401F091D50182FD9B
:1007F00012C090818091D7018F5F8F732091D801B3
:10080000821751F0E091D701F0E0E254FE4F958F4E
:100810008093D70101C08081FF91EF919F918F91CB
:100820002F910F900FBE0F901F9018951F920F924F
:100830000FB60F9211242F933F934F935F936F93B3
:100840007F938F939F93AF93BF93EF93FF93809189
:10085000B900887F803609F49CC068F5883209F4B5
:100860005BC090F4803109F454C038F4882309F453
:10087000F6C0883009F44DC0F6C0883109F44CC088
:10088000803209F45DC0EFC0803409F468C048F4D8
:10089000803309F455C0883309F0E5C0809387019F
:1008A000D8C0803509F44FC0883509F45DC088345C
:1008B00009F0D9C0D6C0883909F4C7C0A8F4883770
:1008C00009F467C038F4883609F463C0803709F446
:1008D00060C0C9C0883809F4B8C0803909F45FC065
:1008E000803809F0C0C05BC0803B09F486C038F492
:1008F000803A09F466C0883A09F47FC0B4C0803CED
:1009000009F4A7C0883C09F4A4C0883B09F48AC054
:10091000AAC08091AD0110C09091AC018091AB0153
:10092000981770F5E091AC0181E08E0F8093AC01D7
:10093000F0E0E557FE4F80818093BB0085EC86C0D8
:10094000809387018EC0E091AC0181E08E0F80938F
:10095000AC018091BB00F0E0E557FE4F80839091A1
:10096000AC018091AB016EC0E091AC0181E08E0FD3
:100970008093AC018091BB00F0E0E557FE4F80838F
:1009800080918A0181116DC081E08093890184EAA0
:1009900061C083E08093880110928601CFCF80915F
:1009A0008601803208F051C0E091860181E08E0F0F
:1009B000809386018091BB00F0E0EA59FE4F80836E
:1009C000BDCF85EC8093BC00109288018091860198
:1009D000803230F4E0918601F0E0EA59FE4F108257
:1009E0006091860170E0E0916401F091650186E616
:1009F00091E009951092860136C084E080938801C9
:100A00001092630110926201E0916001F091610126
:100A1000099580916201811105C081E08093620196
:100A200010924001E091630181E08E0F8093630199
:100A3000F0E0E05CFE4F80818093BB009091630109
:100A400080916201981708F479CF85E88093BC0003
:100A50000AC085EC8093BC001092880104C01092FB
:100A600087010E943D02FF91EF91BF91AF919F914D
:100A70008F917F916F915F914F913F912F910F9047
:100A80000FBE0F901F9018950F931F93CF93EEEB0F
:100A9000F1E01382128288EE93E0A0E0B0E084835C
:100AA0009583A683B7832AE031E03183208325EC48
:100AB00030E03587248724EC30E03787268720EC28
:100AC00030E0318B208B21EC30E0338B228B22EC19
:100AD00030E0358B248B26EC30E0378B268B118E63
:100AE000128E138E148EEBE5F2E013821282848351
:100AF0009583A683B7838AE191E091838083E0E7C1
:100B0000F2E001E010E01183008313821282C1E061
:100B1000C08783E090E0958384838CE090E09783A6
:100B2000868383E00E9487008CE00E948700E7E6CE
:100B3000F2E01183008313821282C0878BE090E081
:100B4000958384838DE090E0978386838BE00E9479
:100B500087008DE0CF911F910F910C948700CF9368
:100B6000DF93CDB7DEB76C970FB6F894DEBF0FBE3C
:100B7000CDBF789484B5826084BD84B5816084BD26
:100B800085B5826085BD85B5816085BD80916E002B
:100B9000816080936E00109281008091810082605C
:100BA0008093810080918100816080938100809199
:100BB00080008160809380008091B1008460809388
:100BC000B1008091B00081608093B00080917A0084
:100BD000846080937A0080917A00826080937A00AA
:100BE00080917A00816080937A0080917A00806899
:100BF00080937A001092C100E091CE01F091CF0174
:100C000082E08083E091CA01F091CB011082E091F3
:100C1000CC01F091CD0180E180831092D601E0916A
:100C2000D201F091D30186E08083E091D001F09170
:100C3000D101808180618083E091D001F091D10168
:100C4000808188608083E091D001F091D101808122
:100C500080688083E091D001F091D10180818F7D07
:100C600080834DE050E066E271E08EEB91E00E94FF
:100C7000380142E050E064E371E08EEB91E00E94C5
:100C80003801109273021092720210917402812F37
:100C90000E94870060E0812F0E94A60010926A02E5
:100CA0001092690210916B02812F0E94870060E010
:100CB000812F0E94A60081E090E0909371028093C2
:100CC0007002909368028093670280E792E00E942E
:100CD000940287E692E00E9494028EEB91E00E94DB
:100CE0008501892BD1F166E371E0CE0101960E9466
:100CF00034030E94FE0097FD1BC0898B1A8A0D8168
:100D00001E810F5F1F4FB801CE0101960E940D0397
:100D1000882379F329813A818D819E81BE016F5E9E
:100D20007F4F820F931F0E94F4091E830D83E1CF32
:100D3000E980FA80C7010E9457078C019093B401A3
:100D40008093B301C7010E9484081093730200933B
:100D5000720210936A02009369024AE0BE016F5F5B
:100D60007F4F8091B3019091B4010E947507BE013D
:100D70006F5F7F4FCE0141960E94340367E371E0BD
:100D8000CE0147960E9434038D899E89E988FA88AE
:100D90000B8D1C8DE114F104B9F0009709F1080FD7
:100DA000191FB801CE0147960E940D03882361F0F8
:100DB0002F89388D8B8D9C8DB701820F931F0E94D8
:100DC000F4091C8F0B8F0CC08F89988D009711F040
:100DD0000E948408188E1F8A1C8E1B8E1A8E198EF4
:100DE0001A8219821C821B821E821D820F89188D15
:100DF00001151105F1F0EB8CFC8CB701CE010196C9
:100E00000E940D0329813A8181110DC02115310500
:100E100019F0C9010E9484081A8219821E821D825B
:100E20001C821B8206C0FE82ED82B801C9010E94AD
:100E3000F4090E94F2000091AF011091B0012091DD
:100E4000B1013091B201DC01CB01801B910BA20BEF
:100E5000B30B893E9340A105B105D0F00E94F2008A
:100E60006093AF017093B0018093B1019093B20190
:100E70004D815E8169817A818EEB91E00E9438011B
:100E800042E050E064E371E08EEB91E00E943801B3
:100E900089819A810E9484088F89988D0E94840894
:100EA00089899A890E9484080E9425020ECFFC013C
:100EB00088279927E89421912032E9F3293010F00E
:100EC0002E30C8F32B3241F02D3239F4689404C02F
:100ED0000E948007820F911D219120532A30C0F378
:100EE0001EF4909581959F4F0895BB274A3031F4A9
:100EF000992322F4BDE2909581959F4F0C94890728
:100F00007AE0979F902D879F802D910D1124089551
:100F1000BB27FB015527AA27880F991FAA1FA417D3
:100F200010F0A41B83955051B9F7A05DAA3308F0C7
:100F3000A95DA193009779F7B111B1931192CB01FB
:100F40000C94A207DC01FC01672F71917723E1F774
:100F5000329704C07C916D9370836291AE17BF0786
:100F6000C8F308952F923F924F925F926F927F92B3
:100F70008F929F92AF92BF92CF92DF92EF92FF92A9
:100F80000F931F93CF93DF93CDB7DEB7CA1BDB0B55
:100F90000FB6F894DEBF0FBECDBF09942A883988FA
:100FA00048885F846E847D848C849B84AA84B98401
:100FB000C884DF80EE80FD800C811B81AA81B9810D
:100FC000CE0FD11D0FB6F894DEBF0FBECDBFED0121
:100FD0000895EE0FFF1F0590F491E02D0994CF9333
:100FE000DF938230910510F482E090E0E0917B0283
:100FF000F0917C0220E030E0C0E0D0E0309711F1C9
:101000004081518148175907C0F04817590761F4CA
:1010100082819381209719F09B838A832BC09093C0
:101020007C0280937B0226C02115310519F04217FE
:10103000530718F49A01BE01DF01EF010280F3812A
:10104000E02DDCCF2115310509F1281B390B2430A7
:10105000310590F412968D919C911397611571054D
:1010600021F0FB019383828304C090937C028093E0
:101070007B02FD01329644C0FD01E20FF31F819314
:101080009193225031092D933C933AC020917902DB
:1010900030917A02232B41F4209102013091030117
:1010A00030937A022093790220910001309101015E
:1010B0002115310541F42DB73EB7409104015091FF
:1010C0000501241B350BE0917902F0917A02E217B9
:1010D000F307A0F42E1B3F0B2817390778F0AC015B
:1010E0004E5F5F4F2417350748F04E0F5F1F509338
:1010F0007A02409379028193919302C0E0E0F0E09C
:10110000CF01DF91CF9108950F931F93CF93DF937A
:10111000009709F48CC0FC0132971382128200916F
:101120007B0210917C020115110581F4208131812F
:10113000820F931F2091790230917A022817390784
:1011400079F5F0937A02E093790271C0D80140E01A
:1011500050E0AE17BF0750F412962D913C911397B3
:10116000AD012115310509F1D901F3CF9D01DA0156
:101170003383228360817181860F971F82179307C3
:1011800069F4EC0128813981260F371F2E5F3F4F0C
:10119000318320838A819B8193838283452B29F429
:1011A000F0937C02E0937B0242C01396FC93EE9393
:1011B0001297ED01499159919E01240F351FE217B5
:1011C000F30771F480819181840F951F0296119627
:1011D0009C938E938281938113969C938E93129706
:1011E000E0E0F0E0D80112968D919C911397009762
:1011F00019F0F8018C01F6CF8D919C9198012E5F2A
:101200003F4F820F931F2091790230917A02281765
:10121000390769F4309729F410927C0210927B020E
:1012200002C01382128210937A0200937902DF9136
:10123000CF911F910F910895A0E0B0E0E2E2F9E0B4
:101240000C94B607EC01009721F4CB010E94EF0744
:10125000B8C0FC01E60FF71F9C0122503109E217CC
:10126000F30708F4ACC0D9010D911C911197061732
:101270001707B0F00530110508F49FC0C8010497A6
:101280008617970708F499C002501109061B170B1F
:10129000019311936D937C93CF010E9484088DC0BC
:1012A0005B01A01AB10A4C01800E911EA0917B0235
:1012B000B0917C0240E050E0E12CF12C109709F451
:1012C0004AC0A815B905D1F56D907C9011976301BE
:1012D00082E0C80ED11CCA14DB0480F1A3014A19B4
:1012E0005B096A0182E0C80ED11C1296BC9012976D
:1012F0001396AC91B5E0CB16D10440F0B282A38333
:1013000051834083D9016D937C930AC00E5F1F4FB8
:10131000C301800F911FF90191838083EB2DFA2F78
:10132000E114F10431F0D7011396FC93EE93129778
:1013300044C0F0937C02E0937B023FC08D919C916E
:1013400011974817590708F4AC017D0112960D90CA
:10135000BC91A02DB3CF8091790290917A0288152B
:101360009905E1F446175707C8F480910001909160
:101370000101009741F48DB79EB74091040150914F
:101380000501841B950BE817F907C8F4F0937A025E
:10139000E0937902F901718360830FC0CB010E9451
:1013A000EF077C01009759F0A801BE010E94EB09EC
:1013B000CE010E948408C70104C0CE0102C080E0B3
:1013C00090E0CDB7DEB7EEE00C94D20781E090E07C
:1013D000F8940C94FB09FB01DC0102C001900D9212
:1013E00041505040D8F70895FB01DC0101900D9267
:0A13F0000020E1F70895F894FFCF04
:1013FA0000007D02800000000000BC013801850168
:10140A006301770103020000000083026F023602C3
:10141A00330230022F022D2D2D535441525445448C
:10142A002D2D2D000D0A0053706565643A200000C9
:00000001FF
