:100000000C945D000C9485000C9485000C94850084
:100010000C9485000C9485000C9485000C9485004C
:100020000C9485000C9485000C9485000C9485003C
:100030000C9485000C9485000C9485000C9485002C
:100040000C9494030C9485000C9404040C94DE032B
:100050000C9485000C9485000C9485000C9485000C
:100060000C9485000C94850000000008000201003B
:100070000003040700000000000000000000000072
:10008000250028002B0000000000240027002A0083
:10009000040404040404040402020202020203032E
:1000A0000303030301020408102040800102040836
:1000B0001020010204081020360411241FBECFEFC7
:1000C000D8E0DEBFCDBF22E0AAE3B1E001C01D92BF
:1000D000AA31B207E1F711E0A0E0B1E0E8E9FBE105
:1000E00002C005900D92AA33B107D9F710E0CDE513
:1000F000D0E004C02197FE010E94B80BCC35D10797
:10010000C9F70E9495040C94CA0D0C94000090E06D
:10011000FC01EC55FF4F2491FC01E057FF4F849107
:10012000882399F090E0880F991FFC01EA57FF4F50
:10013000A591B491FC01E458FF4F859194918FB73C
:10014000F894EC91E22BEC938FBF08952FB7F894BD
:100150008091430190914401A0914501B0914601E5
:100160002FBF80934F0190935001A0935101B09302
:100170005201E0914701F09148010284F385E02D9E
:1001800087E491E0099597FF26C02FB7F8948091F6
:10019000430190914401A0914501B09146012FBFC8
:1001A00040914F0150915001609151017091520165
:1001B000841B950BA60BB70B40914B0150914C0142
:1001C00060914D0170914E0184179507A607B707FE
:1001D00080F28FEF9FEF089590E0FC01E859FF4F08
:1001E0003491FC01EC55FF4F2491FC01E057FF4F87
:1001F000E491EE2309F43BC0332339F1333091F01D
:1002000038F43130A9F0323001F584B58F7D12C059
:10021000373091F03830A1F03430B9F4809180005B
:100220008F7D03C0809180008F77809380000DC008
:1002300084B58F7784BD09C08091B0008F7703C0EB
:100240008091B0008F7D8093B000F0E0EE0FFF1F33
:10025000E458FF4FA591B4918FB7F894EC916111D8
:1002600003C020952E2301C02E2B2C938FBF089501
:100270003FB7F89480913F0190914001A0914101D6
:10028000B091420126B5A89B05C02F3F19F00196F9
:10029000A11DB11D3FBFBA2FA92F982F8827820F0C
:1002A000911DA11DB11DBC01CD0142E0660F771F5C
:1002B000881F991F4A95D1F70895CF92DF92EF9248
:1002C000FF920F931F93CF93DF936C017A018B0101
:1002D000C0E0D0E0CE15DF0589F0D8016D918D0129
:1002E000D601ED91FC910190F081E02DC6010995B8
:1002F000892B11F47E0102C02196ECCFC701DF915A
:10030000CF911F910F91FF90EF90DF90CF900895C4
:10031000089580E090E00895FC01538D448D252FD1
:1003200030E0842F90E0821B930B541710F0CF968F
:10033000089501970895FC01918D828D981761F0C1
:10034000828DDF01A80FB11D5D968C91928D9F5F0C
:100350009F73928F90E008958FEF9FEF0895FC01B7
:10036000918D828D981731F0828DE80FF11D858D6A
:1003700090E008958FEF9FEF0895FC01918D228DFD
:10038000892F90E0805C9F4F821B91098F73992782
:10039000089587E491E00E94BD0121E0892B09F4D2
:1003A00020E0822F0895FC01848DDF01A80FB11D8C
:1003B000A35ABF4F2C91848D90E001968F7399279B
:1003C000848FA689B7892C93A089B1898C91806488
:1003D0008C93938D848D981306C00288F389E02D49
:1003E00080818F7D80830895EF92FF920F931F93FA
:1003F000CF93DF93EC0181E0888F9B8D8C8D9813D8
:1004000005C0E889F989808185FD24C0F62E0B8D11
:1004100010E00F5F1F4F0F731127E02E8C8DE81235
:100420000CC00FB607FCFACFE889F989808185FFF7
:10043000F5CFCE010E94D301F1CF8B8DFE01E80FE5
:10044000F11DE35AFF4FF0820B8FEA89FB8980810F
:10045000806207C0EE89FF896083E889F98980811D
:100460008064808381E090E0DF91CF911F910F91B4
:10047000FF90EF900895CF93DF93EC01888D882350
:10048000C9F0EA89FB89808185FD05C0A889B98901
:100490008C9186FD0FC00FB607FCF5CF808185FFDC
:1004A000F2CFA889B9898C9185FFEDCFCE010E944A
:1004B000D301E7CFDF91CF91089580E090E0892BC1
:1004C00029F00E94C90181110C940000089580E870
:1004D00090E00895EF92FF920F931F93CF93DF93D5
:1004E000EC017B0101E010E0E881F9810190F081ED
:1004F000E02DCE010995801791074CF0E016F1062A
:1005000019F4FF86EE8603C0000F111FEDCF8E8514
:100510009F85DF91CF911F910F91FF90EF900895EC
:10052000EF92FF920F931F93CF93DF93EC017B0128
:100530008A0188850E94870061E088850E94EC001E
:100540008A850E94870060E08A850E94EC008C8585
:100550009D858F3F2FEF920731F00E94870061E069
:100560008C850E94EC00F98AE88AE881F981028092
:10057000F381E02DB801CE0109958C859D858F3FD3
:100580002FEF920749F060E0DF91CF911F910F911B
:10059000FF90EF900C94EC00DF91CF911F910F91A1
:1005A000FF90EF90089580E190E0089585E090E05D
:1005B000089586E091E008950F931F93CF93DF9302
:1005C000EC010E946A028CA59DA50196E9F18EA519
:1005D0009FA50196C9F188A999A90196A9F1E88179
:1005E000F9810480F581E02DCE0109958C01E88127
:1005F000F9810680F781E02DCE01099520E030E0F9
:100600002817390709F14E855F85022E02C05595DE
:1006100047950A94E2F740FF14C0F801E20FF31F78
:100620001081612F647088A90E94EC00612F6270B4
:100630008EA50E94EC00612F61708CA50E94EC00D9
:1006400003C02F5F3F4FDCCF8E859F85DF91CF9119
:100650001F910F9108950E94B50D0F931F93CF9393
:10066000DF93EC0188819981009729F02A813B81F1
:100670002617370788F48B016F5F7F4F0E94EB0CC2
:10068000009761F0998388831B830A832C813D81C5
:10069000232B11F4FC01108281E001C080E0DF9186
:1006A000CF911F910F910895EF92FF920F931F9397
:1006B000CF93DF93EC01198218821B821A821D826C
:1006C0001C826115710549F18B01FB01019000202D
:1006D000E9F731977F01E61AF70AB7010E942D0367
:1006E0002881398181110DC02115310519F0C90109
:1006F0000E94530C198218821D821C821B821A824E
:100700000CC0FD82EC82B801C901DF91CF911F912D
:100710000F91FF90EF900C94C30DDF91CF911F913B
:100720000F91FF90EF9008951F920F920FB60F92C6
:1007300011242F933F938F939F93AF93BF938091F7
:10074000430190914401A0914501B091460130913F
:100750003E0123E0230F2D3720F40196A11DB11D8A
:1007600005C026E8230F0296A11DB11D20933E016E
:100770008093430190934401A0934501B0934601B7
:1007800080913F0190914001A0914101B0914201BF
:100790000196A11DB11D80933F0190934001A0934C
:1007A0004101B0934201BF91AF919F918F913F91D1
:1007B0002F910F900FBE0F901F9018951F920F92C0
:1007C0000FB60F9211242F933F934F935F936F9324
:1007D0007F938F939F93AF93BF93EF93FF9387E4A0
:1007E00091E00E94D301FF91EF91BF91AF919F9152
:1007F0008F917F916F915F914F913F912F910F90CA
:100800000FBE0F901F9018951F920F920FB60F9268
:1008100011242F938F939F93EF93FF93E0915701B0
:10082000F09158018081E0915D01F0915E0182FDBF
:1008300012C09081809160018F5F8F732091610160
:10084000821751F0E0916001F0E0E95BFE4F958F77
:100850008093600101C08081FF91EF919F918F9102
:100860002F910F900FBE0F901F901895E7E4F1E0C5
:100870001382128288EE93E0A0E0B0E08483958337
:10088000A683B7838FE091E09183808385EC90E02D
:100890009587848784EC90E09787868780EC90E04A
:1008A000918B808B81EC90E0938B828B82EC90E03B
:1008B000958B848B86EC90E0978B868B118E128EB5
:1008C000138E148EE4EEF1E088EC90E09383828343
:1008D00088EE93E0958384839783868388E090E015
:1008E0009187808789E090E0938782878DE090E010
:1008F0009587848781E090E097878687118A108AA0
:10090000138A128A13A612A681E291E09183808352
:100910008AE090E095A784A78BE090E097A786A750
:100920008CE090E091AB80AB0895CF93DF93CDB78F
:10093000DEB7A2970FB6F894DEBF0FBECDBF789496
:1009400084B5826084BD84B5816084BD85B58260D4
:1009500085BD85B5816085BD80916E008160809385
:100960006E001092810080918100826080938100EE
:1009700080918100816080938100809180008160FE
:10098000809380008091B10084608093B100809159
:10099000B00081608093B00080917A008460809381
:1009A0007A0080917A00826080937A0080917A0048
:1009B000816080937A0080917A00806880937A00C9
:1009C0001092C100E0915701F091580182E08083BC
:1009D000E0915301F09154011082E0915501F091A2
:1009E000560180E1808310925F01E0915B01F091FC
:1009F0005C0186E08083E0915901F0915A01808189
:100A000080618083E0915901F0915A018081886072
:100A10008083E0915901F0915A0180818068808340
:100A2000E0915901F0915A0180818F7D808340E1EE
:100A300050E068EC70E084EE91E00E9490028091BA
:100A40001002909111028F3F2FEF9207C1F0209179
:100A50001202309113022F3F3F4F89F02091140270
:100A6000309115022F3F3F4F51F00E948700809137
:100A700012020E948700809114020E94870001E008
:100A800010E0FCE32F2E312C87E491E00E94BD01A1
:100A9000892B09F4D4C061E371E0CE0101960E9474
:100AA00054030E94A60097FD1CC0898B1A8AED8012
:100AB000FE808FEFE81AF80AB701CE0101960E9476
:100AC0002D03882371F329813A818D819E81BE0196
:100AD0006F5E7F4F820F931F0E94C30DFE82ED82D7
:100AE000E0CFC980DA80C6010E948E087C01C60171
:100AF0000E94530C8091F4019091F501E114F104EE
:100B000061F5892B51F44091F2015091F30160E0BD
:100B100070E084EE91E00E9490021092F501109234
:100B2000F4018091F0019091F1018F3FAFEF9A07AE
:100B300019F061E00E94EC0045E050E069E271E0EC
:100B400087E491E00E945D0142E050E06FE271E0D5
:100B500087E491E00E945D0172C0892B49F44091C5
:100B6000F2015091F301B70184EE91E00E949002EE
:100B7000F092F501E092F4018091F0019091F10181
:100B80008F3FBFEF9B0719F060E00E94EC004AE046
:100B9000BE016F5F7F4FC7010E94AC08BE016F5F4F
:100BA0007F4FCE0141960E94540362E371E0CE0173
:100BB00001960E9454038D899E89C988DA88ED8048
:100BC000FE80C114D104B9F0009709F1E80EF91EB6
:100BD000B701CE0101960E942D03882361F029817F
:100BE0003A818D819E81B601820F931F0E94C30DB1
:100BF000FE82ED820CC089819A81009711F00E94DB
:100C0000530C1A8219821E821D821C821B824D8106
:100C10005E8169817A8187E491E00E945D0142E012
:100C200050E06FE271E087E491E00E945D0189810C
:100C30009A810E94530C89899A890E94530C1093BF
:100C40000D0200930C0210920F0210920E0221E08E
:100C500030E040E050E02093FC013093FD014093F0
:100C6000FE015093FF011092F8011092F9011092C9
:100C7000FA011092FB018091F6019091F701209109
:100C8000F4013091F501E090F201F090F301C09091
:100C9000E601D090E701019709F094C02C9DC001B6
:100CA0002D9D900D3C9D900D1124B1010E94380B9B
:100CB000C090E801D090E9019B01DB010E946B0B21
:100CC0009B01AC01D7010E947A0B9601220F331FC2
:100CD000032E000C440B550B0E944C0B49015A018A
:100CE00020930002309301024093020250930302CA
:100CF0002091EA013091EB012901032E000C6608D6
:100D000077082C0D3D1D032E000C440B550BC30121
:100D1000B2010E944C0B82169306A406B50694F409
:100D2000D601A50194010E947A0BA30192010E94B1
:100D30004C0B20930402309305024093060250931B
:100D4000070218C020930002309301024093020270
:100D50005093030281E090E0A0E0B0E0821B930B8F
:100D6000A40BB50B8093040290930502A093060296
:100D7000B0930702CE9CB001CF9C700DDE9C700D2D
:100D80001124072E000C880B990B0E94EB089B0185
:100D9000AC0160E070E080E090E40E94350A0E94BF
:100DA000E30A20E03AE045E259E40E9426090E9465
:100DB000A70A609308027093090280930A02909335
:100DC0000B0226C0032E000C440B550B60E077E8A5
:100DD00083E993E00E944C0B4601DD0CAA08BB0896
:100DE000CA01B901A50194010E944C0B6701FF0CD7
:100DF000EE08FF08CA01B901A70196010E944C0B39
:100E0000209308023093090240930A0250930B0288
:100E10008091FC019091FD01A091FE01B091FF0134
:100E2000181619061A061B060CF059C160910C021F
:100E30008091EC010E94EC0080910E0290910F02D3
:100E4000892B29F410930F0200930E0204C0109214
:100E50000F0210920E0260910E028091EE010E942C
:100E6000EC000E9438016F8F78A389A39AA3809128
:100E70000E0290910F02892B09F013C18091FC01A1
:100E80009091FD01A091FE01B091FF011816190685
:100E90001A061B060CF005C19C01AD012150310959
:100EA000410951092093FC013093FD014093FE015B
:100EB0005093FF01C090F801D090F901E090FA0141
:100EC000F090FB018FEFC81AD80AE80AF80AC0921E
:100ED000F801D092F901E092FA01F092FB018091C1
:100EE000F6019091F701019709F0DBC080910002B3
:100EF00090910102A0910202B09103028F8B988F12
:100F0000A98FBA8F8C159D05AE05BF050CF469C07D
:100F100091E0C916D104E104F10441F410923A01C0
:100F200010923B0110923C0110923D012091080269
:100F30003091090240910A0250910B022B8F3C8F95
:100F40004D8F5E8F40903A0150903B0160903C0184
:100F500070903D014601570162E0880C991CAA1C63
:100F6000BB1C6A95D1F7DA01C901880F991FAA1F26
:100F7000BB1FBC01CD01640D751D861D971DA5010C
:100F8000940120953095409550950E944C0B8B8D87
:100F90009C8DAD8DBE8D820F931FA41FB51F8093B6
:100FA000080290930902A0930A02B0930B022F89C2
:100FB000388D498D5A8DC216D306E406F5066CF4B9
:100FC000880F991FAA1FBB1FBC01CD01640D751DA1
:100FD000861D971DA501940156C060E070E0CB010D
:100FE00058C08091040290910502A0910602B09130
:100FF000070282179307A407B5070CF452C040906C
:1010000008025090090260900A0270900B028090D2
:101010003A0190903B01A0903C01B0903D01ACEFB3
:10102000BFEF0E947D0B6B017C01D301C201880FD1
:10103000991FAA1FBB1FBC01CD01680D791D8A1D18
:101040009B1DA701960120953095409550950E94D3
:101050004C0BD301C201820F931FA41FB51F8093B5
:10106000080290930902A0930A02B0930B02880F22
:10107000991FAA1FBB1FBC01CD01680D791D8A1DD8
:101080009B1DA70196012F5F3F4F4F4F5F4F0E945F
:101090004C0B60933A0170933B0180933C01909319
:1010A0003D010E94380120910E0230910F02232B46
:1010B000D1F48090080290900902A0900A02B090AA
:1010C0000B0231E0831A9108A108B1084F8D58A195
:1010D000641B750B861A970AA108B10808C0812CF9
:1010E000912C540104C0812C912C540183940E94B2
:1010F000380175016401C60ED71EE81EF91E0E9454
:1011000038016C157D058E059F05C8F389288A284E
:101110008B2809F07DCE0E945D02B6CCFC018827A9
:101120009927E89421912032E9F3293010F02E30EC
:10113000C8F32B3241F02D3239F4689404C00E9478
:10114000B708820F911D219120532A30C0F31EF45D
:10115000909581959F4F0895BB274A3031F499238C
:1011600022F4BDE2909581959F4F0C94C0087AE0DF
:10117000979F902D879F802D910D11240895BB2757
:10118000FB015527AA27880F991FAA1FA41710F043
:10119000A41B83955051B9F7A05DAA3308F0A95D4F
:1011A000A193009779F7B111B1931192CB010C94EF
:1011B000D908DC01FC01672F71917723E1F73297A1
:1011C00004C07C916D9370836291AE17BF07C8F322
:1011D0000895E89409C097FB3EF49095809570952A
:1011E00061957F4F8F4F9F4F9923A9F0F92F96E973
:1011F000BB279395F695879577956795B795F111E8
:10120000F8CFFAF4BB0F11F460FF1BC06F5F7F4F84
:101210008F4F9F4F16C0882311F096E911C0772396
:1012200021F09EE8872F762F05C0662371F096E89F
:10123000862F70E060E02AF09A95660F771F881F6E
:10124000DAF7880F9695879597F908950E943909DE
:101250000C94AA090E949C0938F00E94A30920F06E
:10126000952311F00C9493090C94990911240C9472
:10127000DE090E94BB0970F3959FC1F3950F50E002
:10128000551F629FF001729FBB27F00DB11D639F38
:10129000AA27F00DB11DAA1F649F6627B00DA11DDE
:1012A000661F829F2227B00DA11D621F739FB00D84
:1012B000A11D621F839FA00D611D221F749F3327F4
:1012C000A00D611D231F849F600D211D822F762F8D
:1012D0006A2F11249F5750409AF0F1F088234AF06A
:1012E000EE0FFF1FBB1F661F771F881F91505040D6
:1012F000A9F79E3F510580F00C9493090C94DE09E8
:101300005F3FE4F3983ED4F3869577956795B7955C
:10131000F795E7959F5FC1F7FE2B880F911D969576
:10132000879597F9089597F99F6780E870E060E0E6
:1013300008959FEF80EC089500240A94161617066E
:1013400018060906089500240A94121613061406B6
:1013500005060895092E0394000C11F4882352F019
:10136000BB0F40F4BF2B11F460FF04C06F5F7F4FD1
:101370008F4F9F4F089557FD9058440F551F59F0B8
:101380005F3F71F04795880F97FB991F61F09F3F72
:1013900079F087950895121613061406551FF2CF9B
:1013A0004695F1DF08C0161617061806991FF1CFEB
:1013B00086957105610508940895E894BB27662712
:1013C0007727CB0197F908950E94260AA59F900DD3
:1013D000B49F900DA49F800D911D112408952F920C
:1013E0003F924F925F926F927F928F929F92AF92B5
:1013F000BF92CF92DF92EF92FF920F931F93CF9302
:10140000DF93CDB7DEB7CA1BDB0B0FB6F894DEBF98
:101410000FBECDBF09942A88398848885F846E84BE
:101420007D848C849B84AA84B984C884DF80EE8008
:10143000FD800C811B81AA81B981CE0FD11D0FB611
:10144000F894DEBF0FBECDBFED010895A29FB0019D
:10145000B39FC001A39F700D811D1124911DB29FE8
:10146000700D811D1124911D08950E94490A0C944C
:10147000AA090E94A30958F00E949C0940F029F48F
:101480005F3F29F00C94930951110C94DE090C94E0
:1014900099090E94BB0968F39923B1F3552391F38D
:1014A000951B550BBB27AA2762177307840738F0D3
:1014B0009F5F5F4F220F331F441FAA1FA9F335D030
:1014C0000E2E3AF0E0E832D091505040E695001CE4
:1014D000CAF72BD0FE2F29D0660F771F881FBB1F9E
:1014E000261737074807AB07B0E809F0BB0B802D7C
:1014F000BF01FF2793585F4F3AF09E3F510578F0A8
:101500000C9493090C94DE095F3FE4F3983ED4F306
:10151000869577956795B795F7959F5FC9F7880F7B
:10152000911D9695879597F90895E1E0660F771FCD
:10153000881FBB1F621773078407BA0720F0621B5E
:10154000730B840BBA0BEE1F88F7E09508950E9489
:10155000AE0A6894B1110C94DE0908950E94C30983
:1015600088F09F5798F0B92F9927B751B0F0E1F064
:10157000660F771F881F991F1AF0BA95C9F714C014
:10158000B13091F00E94DD09B1E008950C94DD09BD
:10159000672F782F8827B85F39F0B93FCCF386954D
:1015A00077956795B395D9F73EF4909580957095AA
:1015B00061957F4F8F4F9F4F089519F416F40C9447
:1015C00099090C94230B0E94C309B8F39923C9F31A
:1015D000B6F39F57550B87FF0E94310B0024A0E6FE
:1015E00040EA900180585695979528F4805C660FE4
:1015F000771F881F20F026173707480730F4621B33
:10160000730B840B202931294A2BA6951794079434
:10161000202531254A2758F7660F771F881F20F0AD
:1016200026173707480730F4620B730B840B200D25
:10163000311D411DA09581F7B901842F9158880F64
:101640009695879508959F3F31F0915020F48795A6
:1016500077956795B795880F911D9695879597F91A
:10166000089591505040660F771F881FD2F7089554
:1016700097FB072E16F4009407D077FD09D00E943F
:10168000820B07FC05D03EF4909581959F4F0895FD
:10169000709561957F4F0895052E97FB1EF4009479
:1016A0000E94630B57FD07D00E94960B07FC03D0E6
:1016B0004EF40C94630B50954095309521953F4F17
:1016C0004F4F5F4F089590958095709561957F4F2E
:1016D0008F4F9F4F08950E94260A332312F48A1BCE
:1016E0009B0B0C94750B0E94260AB7FF0895821B72
:1016F000930B0895B7FF0C94E4090E94E409821B40
:10170000930B0895AA1BBB1B51E107C0AA1FBB1F67
:10171000A617B70710F0A61BB70B881F991F5A957D
:10172000A9F780959095BC01CD010895A1E21A2EEC
:10173000AA1BBB1BFD010DC0AA1FBB1FEE1FFF1F75
:10174000A217B307E407F50720F0A21BB30BE40BC5
:10175000F50B661F771F881F991F1A9469F760950C
:101760007095809590959B01AC01BD01CF010895C6
:10177000EE0FFF1F0590F491E02D0994CF93DF93B6
:101780008230910510F482E090E0E0911802F0912F
:10179000190220E030E0C0E0D0E0309711F1408144
:1017A000518148175907C0F04817590761F48281E1
:1017B0009381209719F09B838A832BC09093190201
:1017C0008093180226C02115310519F042175307DE
:1017D00018F49A01BE01DF01EF010280F381E02DD0
:1017E000DCCF2115310509F1281B390B24303105D7
:1017F00090F412968D919C9113976115710521F0CB
:10180000FB019383828304C0909319028093180292
:10181000FD01329644C0FD01E20FF31F81939193C5
:10182000225031092D933C933AC0209116023091F9
:101830001702232B41F420910201309103013093D0
:101840001702209316022091000130910101211509
:10185000310541F42DB73EB7409104015091050187
:10186000241B350BE0911602F0911702E217F307E3
:10187000A0F42E1B3F0B2817390778F0AC014E5F00
:101880005F4F2417350748F04E0F5F1F5093170224
:10189000409316028193919302C0E0E0F0E0CF0103
:1018A000DF91CF9108950F931F93CF93DF9300970C
:1018B00009F48CC0FC013297138212820091180245
:1018C000109119020115110581F420813181820FD7
:1018D000931F20911602309117022817390779F5C6
:1018E000F0931702E093160271C0D80140E050E077
:1018F000AE17BF0750F412962D913C911397AD018E
:101900002115310509F1D901F3CF9D01DA013383A6
:10191000228360817181860F971F8217930769F474
:10192000EC0128813981260F371F2E5F3F4F31830D
:1019300020838A819B8193838283452B29F4F093B2
:101940001902E093180242C01396FC93EE9312978B
:10195000ED01499159919E01240F351FE217F307BC
:1019600071F480819181840F951F029611969C934A
:101970008E938281938113969C938E931297E0E0CD
:10198000F0E0D80112968D919C911397009719F071
:10199000F8018C01F6CF8D919C9198012E5F3F4FFD
:1019A000820F931F209116023091170228173907D2
:1019B00069F4309729F4109219021092180202C0AB
:1019C000138212821093170200931602DF91CF91B7
:1019D0001F910F910895A0E0B0E0E1EFFCE00C94BE
:1019E000F309EC01009721F4CB010E94BE0BB8C0B3
:1019F000FC01E60FF71F9C0122503109E217F307A3
:101A000008F4ACC0D9010D911C9111970617170766
:101A1000B0F00530110508F49FC0C801049786177F
:101A2000970708F499C002501109061B170B019380
:101A300011936D937C93CF010E94530C8DC05B0179
:101A4000A01AB10A4C01800E911EA0911802B0910B
:101A5000190240E050E0E12CF12C109709F44AC043
:101A6000A815B905D1F56D907C901197630182E0BE
:101A7000C80ED11CCA14DB0480F1A3014A195B090A
:101A80006A0182E0C80ED11C1296BC901297139680
:101A9000AC91B5E0CB16D10440F0B282A383518360
:101AA0004083D9016D937C930AC00E5F1F4FC30121
:101AB000800F911FF90191838083EB2DFA2FE114A0
:101AC000F10431F0D7011396FC93EE93129744C0C2
:101AD000F0931902E09318023FC08D919C911197E9
:101AE0004817590708F4AC017D0112960D90BC917E
:101AF000A02DB3CF809116029091170288159905F9
:101B0000E1F446175707C8F4809100019091010154
:101B1000009741F48DB79EB74091040150910501A3
:101B2000841B950BE817F907C8F4F0931702E093AC
:101B30001602F901718360830FC0CB010E94BE0BB6
:101B40007C01009759F0A801BE010E94BA0DCE0198
:101B50000E94530CC70104C0CE0102C080E090E097
:101B6000CDB7DEB7EEE00C940F0A81E090E0F89478
:101B70000C94CA0DFB01DC0102C001900D92415092
:101B80005040D8F70895FB01DC0101900D92002030
:081B9000E1F70895F894FFCF7E
:101B980000001A028000000102030700000000F4A0
:101BA800015D018C013B02BD019B01AF01000000FA
:101BB80000D302DC02D902D6024252414B45000D45
:0A1BC8000A0053504545443A20003E
:00000001FF
