:1000000008C1000037C1000035C1000033C1000045
:1000100031C100002FC100002DC100002BC1000024
:1000200029C1000027C1000025C1000023C1000034
:1000300021C100001FC100001DC100001BC1000044
:1000400019C1000017C1000015C1000013C1000054
:1000500011C100000FC100000DC10000FCC700006D
:1000600009C100000C949E080C94750803C100009F
:1000700001C10000FFC00000FDC00000FBC0000087
:10008000F9C00000F7C00000F5C00000F3C0000098
:10009000F1C00000EFC00000EDC00000EBC00000A8
:1000A000E9C00000E7C00000E5C00000E3C00000B8
:1000B000E1C00000DFC00000DDC00000DBC00000C8
:1000C000D9C00000D7C00000D5C00000D3C00000D8
:1000D000D1C00000CFC00000CDC00000CBC00000E8
:1000E000C9C00000F901FC01EB01EF01F30133028B
:1000F000000204020A020E02120218021C0220026E
:10010000330226022A022E020000210024002700CA
:100110002A002D0030003300010100000401070116
:100120000A0100002200250028002B002E003100CB
:10013000340002010000050108010B010505050559
:10014000070508080808020202020A0A080804044F
:10015000040401010101010101010303030303037D
:100160000303040707070C0C0C0C0C0C0C0C02020C
:10017000020206060606060606060B0B0B0B0B0B09
:100180000B0B010210202008081020401020408096
:10019000020102010804020101020408102040804B
:1001A00080402010080402018004020180402010D9
:1001B0000804020108040201010204081020408022
:1001C000010204081020408000000A0B02090C0DF7
:1001D0000E080703040100000000000000000000FA
:1001E000000000000000000000000000000000000F
:1001F00000000000121110000000000000000000CC
:100200000000000000000000000000000000D40812
:10021000500B11241FBECFEFD1E2DEBFCDBF00E0F7
:100220000CBF23E0ACEBB2E001C01D92A838B207CE
:10023000E1F712E0A0E0B2E0E2EFFEE100E00BBF88
:1002400002C007900D92AC3BB107D9F711E0C8E0AE
:10025000D1E000E006C021970109802FFE010E9435
:100260003B0DC730D10780E00807A9F70E94010ABB
:100270000C94680FC5CE089508954F925F926F92C7
:100280007F929F92AF92BF92CF92DF92EF92FF92B6
:100290000F931F93CF93DF93CDB7DEB72C970FB695
:1002A000F894DEBF0FBECDBF942EAE01445F5F4F0A
:1002B0006A017A0121153105A9F45AE0452E512C25
:1002C000612C712CA30192010E94190D605DF70150
:1002D00062937F01B901CA0161157105810591051C
:1002E00089F715C0FB01EF70FF27E20FF31F408174
:1002F000F70142937F0144E096958795779567953E
:100300004A95D1F7611571058105910559F73601B7
:100310006E187F08A12CB12C6016710688F4E0914C
:10032000C502F091C6020190F081E02D692D85ECA7
:1003300092E01995A80EB91EFFEF6F1A7F0AECCF55
:10034000EC14FD0481F0F70161917F01E091C50299
:10035000F091C6020190F081E02D85EC92E01995B4
:10036000A80EB91EEDCFC5012C960FB6F894DEBFCE
:100370000FBECDBFDF91CF911F910F91FF90EF90F6
:10038000DF90CF90BF90AF909F907F906F905F90E5
:100390004F900895362F90E0FC01E853FE4F4491B2
:1003A000FC01EE57FE4F2491FC01E45CFE4F94915A
:1003B000992309F46BC0442309F455C050E0FA01B5
:1003C0003197E231F10508F04EC08827EE58FF4F13
:1003D0008F4F0C943B0D809180008F7707C08091E8
:1003E00080008F7D03C080918000877F8093800094
:1003F0003AC084B58F7702C084B58F7D84BD33C089
:100400008091B0008F7703C08091B0008F7D809382
:10041000B00029C0809190008F7707C08091900034
:100420008F7D03C080919000877F809390001BC0D8
:100430008091A0008F7707C08091A0008F7D03C0BE
:100440008091A000877F8093A0000DC08091200143
:100450008F7707C0809120018F7D03C0809120019C
:10046000877F80932001E92FF0E0EE0FFF1FEE5D04
:10047000FE4FA591B4918FB7F894EC91311103C060
:1004800020952E2301C02E2B2C938FBF0895CF9340
:10049000DF9390E0FC01EE57FE4F2491FC01E45CF9
:1004A000FE4F8491882361F190E0880F991FFC0131
:1004B000E85FFE4FC591D491FC01EE5DFE4FA59122
:1004C000B491611109C09FB7F89488812095822367
:1004D0008883EC912E230BC0623061F49FB7F894AF
:1004E0003881822F809583238883EC912E2B2C9347
:1004F0009FBF06C08FB7F894E8812E2B28838FBF4B
:10050000DF91CF9108953FB7F8948091C102909107
:10051000C202A091C302B091C40226B5A89B05C037
:100520002F3F19F00196A11DB11D3FBFBA2FA92F72
:10053000982F8827820F911DA11DB11DBC01CD01EF
:1005400042E0660F771F881F991F4A95D1F70895DB
:10055000CF92DF92EF92FF920F931F93CF93DF938F
:100560006C017A018B01C0E0D0E0CE15DF0589F087
:10057000D8016D918D01D601ED91FC910190F08132
:10058000E02DC6011995892B11F47E0102C0219638
:10059000ECCFC701DF91CF911F910F91FF90EF90AA
:1005A000DF90CF900895FC01538D448D252F30E0CE
:1005B000842F90E0821B930B541710F0CF96089570
:1005C00001970895FC01918D828D981761F0828DBD
:1005D000DF01A80FB11D5D968C91928D9F5F9F7377
:1005E000928F90E008958FEF9FEF0895FC01918D19
:1005F000828D981731F0828DE80FF11D858D90E086
:1006000008958FEF9FEF0895FC01918D228D892F22
:1006100090E0805C9F4F821B91098F73992708950A
:1006200085EC92E0F1DF21E0892B09F420E0822FB4
:100630000895FC01848DDF01A80FB11DA35ABF4F9F
:100640002C91848D90E001968F739927848FA689D1
:10065000B7892C93A089B1898C9180648C93938DF8
:10066000848D981306C00288F389E02D80818F7DE8
:1006700080830895EF92FF920F931F93CF93DF93A0
:10068000EC0181E0888F9B8D8C8D981305C0E889E3
:10069000F989808185FD23C0F62E0B8D10E00F5F58
:1006A0001F4F0F731127E02E8C8DE8120BC00FB671
:1006B00007FCFACFE889F989808185FFF5CFCE0163
:1006C000B8DFF2CF8B8DFE01E80FF11DE35AFF4F2B
:1006D000F0820B8FEA89FB898081806207C0EE89F6
:1006E000FF896083E889F98980818064808381E063
:1006F00090E0DF91CF911F910F91FF90EF900895BF
:10070000CF93DF93EC01888D8823C1F0EA89FB89C0
:10071000808185FD05C0A889B9898C9186FD0EC0B0
:100720000FB607FCF5CF808185FFF2CFA889B98984
:100730008C9185FFEDCFCE017CDFE8CFDF91CF91AB
:10074000089580E090E0892B19F06ADF811125C0BF
:1007500080E090E0892B41F080E090E0892B21F04F
:100760000E94000081111CC080E090E0892B41F0C4
:1007700080E090E0892B21F00E940000811113C0DD
:1007800080E090E0892BA1F080E090E0892B81F05F
:100790000E94000081110AC008950E940000D8CF75
:1007A0000E940000E1CF0E940000EACF0C940000FC
:1007B0000895CF93DF93EC0160E08E81EBDD61E083
:1007C0008E81E8DD60E08E81E5DD8BE891E00197C8
:1007D000F1F7DF91CF910895CF92DF92EF92FF92E0
:1007E0000F931F93CF93DF937C016C0187E0C80EBA
:1007F000D11CC0E0D0E0062F10E0B8010C2E02C0E2
:10080000759567950A94E2F76170F60181916F0121
:10081000C1DD2196C430D10581F7C701DF91CF91A9
:100820001F910F91FF90EF90DF90CF90C2CFCF92AA
:10083000DF92EF92FF920F931F93CF93DF93EC0120
:10084000F62E642F8C81A6DD8D818F3F11F060E044
:10085000A1DD8F850F2D10E084FF23C06E0187E09E
:10086000C80ED11CE12CF12CB8010E2C02C07595DC
:1008700067950A94E2F76170F60181916F018ADD54
:10088000FFEFEF1AFF0A88E0E816F10469F7CE01DE
:10089000DF91CF911F910F91FF90EF90DF90CF905C
:1008A00088CFB80184E0759567958A95E1F7CE0108
:1008B00093DF6F2DCE01DF91CF911F910F91FF90AC
:1008C000EF90DF90CF9088CF41E0B1DF81E090E002
:1008D0000895FC01868181110CC0A281B381CD01F4
:1008E0000196938382838C91811104C091E0968359
:1008F000089580E00895089580E090E008950097BD
:1009000061F0FC0101900020E9F73197AF01481B2D
:10091000590BBC0185EC92E01BCE80E090E008957D
:100920000F931F93CF93DF93CDB7DEB7A2970FB688
:10093000F894DEBF0FBECDBF482F662319F1823277
:10094000D1F06CF48D30A1F03CF4893071F08A3034
:1009500029F585E492E014C08032A4F41FC08C35E0
:1009600069F084F08F37D4F40DC082E492E008C0BF
:1009700088E492E005C08BE492E002C08DE492E04E
:10098000BEDF38C0E091C502F091C6020190F0814F
:10099000E02D642F85EC92E019952CC08FE492E055
:1009A0004AA3ADDF8C014AA150E060E070E019A2DB
:1009B000FE01B196DB01CA018F709927AA27BB27D8
:1009C00024E076956795579547952A95D1F7319705
:1009D0008A309105A105B10510F4805D01C0895CE4
:1009E0008083411551056105710521F7CF0187DF2E
:1009F000800F911FA2960FB6F894DEBF0FBECDBF39
:100A0000DF91CF911F910F9108952F923F924F92B6
:100A10005F926F927F928F929F92AF92BF92CF928E
:100A2000DF92EF92FF920F931F93CF93DF93CDB797
:100A3000DEB766970FB6F894DEBF0FBECDBF8EA5AA
:100A40009FA52AE032E03A8329839C838B839E838F
:100A50008D831F821E0120E3220E311C1986188609
:100A6000CE01019636DF682F882309F499C26532DA
:100A700009F070C2CE0101962CDFF82F811103C05E
:100A8000E12CF12C60C2803319F030E23E8702C0C5
:100A900040E34E871A861B861C861D8680ED8F0FCD
:100AA0008A3018F5AAE0B0E02A853B854C855D8543
:100AB00011D70F2FFF0F110B220B330BDC01CB01D2
:100AC000800F911FA21FB31F9C01AD01205331095C
:100AD000410951092A873B874C875D87CE010196E2
:100AE000F8DEF82F8111DACFCBCFE12CF12CD12C0D
:100AF000812C912C540183940FEF1FEFFE3221F1D2
:100B00009CF4F33209F455C0FA3209F059C03101AE
:100B100042E0640E711CD1010D911C91CE01019631
:100B2000D8DEF82F1301EACFF53791F0F837A9F0A6
:100B3000F83509F045C0CE010196CBDEF82F52E61C
:100B4000E52E52E0F52E11C0412C512C320111C07E
:100B5000CE010196BEDEF82F08C0CE010196B9DEA7
:100B6000F82F41E5E42E42E0F42E812C912C540123
:100B7000C5CFCE010196ADDEF82F80ED8F0F8A3004
:100B800020F5AAE0B0E0A3019201A4D64F2EFF0FFA
:100B9000550866087708DC01CB01840D951DA61D5C
:100BA000B71D2C013D0130E3431A5108610871085B
:100BB000E0CFCE0101968DDEF82FDD24D3949ECFB9
:100BC00036E0432E512C612C712CF63609F4CFC03F
:100BD000CCF4F03509F455C074F4F53209F099C13C
:100BE000E091C502F091C6020190F081E02D65E22E
:100BF00085EC92E09BC1F33609F475C1F43609F433
:100C000095C087C1F03709F454C13CF4F93609F4B2
:100C100075C0FC3609F498C07CC1F33721F0FA376F
:100C200009F45EC076C1F101A080B180B2E02B0E64
:100C3000311C0F3FEFEF1E0719F0E12CF12C1DC006
:100C400085017801EA18FB08D8018D918D01882370
:100C500009F479C16D2D64DE892B99F774C1F50112
:100C600081915F01882309F46EC16D2D59DE892BB6
:100C700009F469C1BFEFEB1AFB0AE016F10679F738
:100C800062C1F101A080B180F2E02F0E311CE12C95
:100C9000F12C0F3F2FEF1207F9F4F501EE0DFF1DB8
:100CA0008491882309F44FC16D2D3ADE892B09F414
:100CB0004AC13FEFE31AF30AF0CFF501EE0DFF1D35
:100CC0008491882309F43FC16D2D2ADE892B09F414
:100CD0003AC14FEFE41AF40AE016F10671F733C196
:100CE000C10102966C0189288A288B28D9F0D1018C
:100CF0006D917C914B01A12CB12C1AC189288A28B5
:100D00008B2861F06101F2E0CF0ED11CD1016D9111
:100D10007C914B01770FAA08BB082DC16101B2E09D
:100D2000CB0ED11CF101608171810BC089288A280A
:100D30008B2841F76101F2E0CF0ED11CD1016D91FA
:100D40007C9180E090E0F6C0C10104966C01892896
:100D50008A288B2831F0F10180809180A280B380B5
:100D60000AC1D1016D917D918D919C91E3C0F101FA
:100D7000C080D180E280F380B4E02B0E311C20E0F3
:100D800030E0A901C701B6018CD487FF0FC0E09104
:100D9000C502F091C6020190F081E02D6DE285EC74
:100DA00092E01995F7FAF094F7F8F094C701B601BC
:100DB0000FD64B015C01411451046104710409F424
:100DC00050C04B8A5C8A6D8A7E8A21E030E040E028
:100DD00050E02F87388B498B5A8BAAE0B0E02F85E3
:100DE000388949895A8976D56F87788B898B9A8B10
:100DF0008B899C89AD89BE890197A109B1098B8B2B
:100E00009C8BAD8BBE8B892B8A2B8B2B31F7C5012D
:100E1000B4014BD49B01AC01C701B60174D56B0181
:100E20007C016F85788989899A893FD49B01AC01BF
:100E3000C701B6019BD420E030E040E05FE364D519
:100E4000CCD56B017C012F85388949895A89621775
:100E500073078407950741F43FEF831A930AA30AA7
:100E6000B30AC12CD12C76010A851B8520E030E025
:100E70004E85C501B40101DA5C01411451046104DD
:100E8000710409F45FC0E091C502F091C6020190BF
:100E9000F081E02D6EE285EC92E01995820120E070
:100EA00030E040E3C701B601E8D97C01EA0CFB1C45
:100EB0004AC0610142E0C40ED11CD1016D917C9108
:100EC000072E000C880B990B22E6E22E22E0F22E70
:100ED00024E030E040E050E02A873B874C875D8784
:100EE00030E33E8727C081010E5F1F4FE091C502AE
:100EF000F091C602D1016D917C91072E000C880BF8
:100F0000990B0190F081E02D85EC92E01995180184
:100F100017C0FF2309F4B4CDA091C502B091C60259
:100F20002D913C916F2F85EC92E0F901199508C045
:100F3000C501B4010A851B8597014E859ED916010E
:100F40007C0101C07C01288539852E0D3F1D398724
:100F5000288786CDE091C502F091C6020190F0810C
:100F6000E02D85EC92E0199548855985480F591F69
:100F70005987488775CDB7FEDBCFE091C502F09168
:100F8000C6020190F081E02D6DE285EC92E01995AA
:100F900066277727CB01681979098A099B09CACF87
:100FA0008885998566960FB6F894DEBF0FBECDBFD3
:100FB000DF91CF911F910F91FF90EF90DF90CF9035
:100FC000BF90AF909F908F907F906F905F904F9069
:100FD0003F902F90089568D7EBC5EAC5EF92FF9236
:100FE0000F931F93CF93DF93EC017B018A018881DC
:100FF0009981009729F02A813B8124173507E8F46D
:10100000B8016F5F7F4F6CD6009759F09983888342
:101010001B830A832C813D81232B79F4FC011082F0
:101020000CC088819981009709F0C2D51982188275
:101030001D821C821B821A8206C01D830C83B7018D
:10104000888199813ED7CE01DF91CF911F910F9179
:10105000FF90EF9008951F920F920FB60F921124F8
:101060002F933F938F939F93AF93BF938091BD0234
:101070009091BE02A091BF02B091C0023091BC021B
:1010800023E0230F2D3720F40196A11DB11D05C0CB
:1010900026E8230F0296A11DB11D2093BC02809368
:1010A000BD029093BE02A093BF02B093C002809194
:1010B000C1029091C202A091C302B091C4020196F4
:1010C000A11DB11D8093C1029093C202A093C302DF
:1010D000B093C402BF91AF919F918F913F912F9197
:1010E0000F900FBE0F901F9018951F920F920FB682
:1010F0000F9211240BB60F922F933F934F935F9350
:101100006F937F938F939F93AF93BF93EF93FF93CF
:1011100085EC92E08EDAFF91EF91BF91AF919F91B4
:101120008F917F916F915F914F913F912F910F9090
:101130000BBE0F900FBE0F901F9018951F920F922D
:101140000FB60F9211240BB60F922F938F939F938C
:10115000EF93FF93E091D502F091D6028081E09168
:10116000DB02F091DC0282FD12C090818091DE02F0
:101170008F5F8F732091DF02821751F0E091DE02C2
:10118000F0E0EB53FD4F958F8093DE0201C080812C
:10119000FF91EF919F918F912F910F900BBE0F9028
:1011A0000FBE0F901F901895CF93DF931092C80237
:1011B0001092C70288EE93E0A0E0B0E08093C902ED
:1011C0009093CA02A093CB02B093CC0280E192E04C
:1011D0009093C6028093C50285EC90E09093D20272
:1011E0008093D10284EC90E09093D4028093D30258
:1011F00080EC90E09093D6028093D50281EC90E051
:101200009093D8028093D70282EC90E09093DA0218
:101210008093D90286EC90E09093DC028093DB020D
:101220001092DE021092DF021092E0021092E102B0
:101230008EE392E090938103809380038DE080930E
:101240008203C1E0C093830361E021D9109265035A
:101250001092640382E292E09093630380936203AE
:1012600086E1809366038FEF8093670387E1809325
:10127000680388E18093690389E180936A038AE1C6
:1012800080936B038BE180936C0310926D0310923B
:101290006E0310926F031092700310927103C0934B
:1012A00075031092760380E48093770380E1809346
:1012B000780380E58093790361E086E1E8D8809146
:1012C00067038F3F11F061E0E2D861E0809168032D
:1012D000DED8C0E0D0E08091710384FD03C084E0DB
:1012E00090E002C088E090E0C817D90744F4FE01FE
:1012F000EE59FC4F61E08781CAD82196ECCF8BE391
:101300009DE00197F1F760E08091660343D860E0CB
:10131000809168033FD8809167038F3F11F060E0B0
:1013200039D86091710364FD1CC063E082E693E0EC
:1013300053DACBE4D6E4CE010197F1F763E082E61D
:1013400093E04ADA2197F1F763E082E693E044DA2A
:1013500083E592E00197F1F762E082E693E03CDA00
:101360001BC0606240E082E693E061DA8BE496E4C1
:101370000197F1F760917103606240E082E693E0CB
:1013800056DA83E592E00197F1F7609171036062AC
:1013900040E082E693E04BDA60917103606240E0E6
:1013A00082E693E044DA84E08093720340E06CE0EC
:1013B00082E693E03CDA40E061E082E693E037DAEF
:1013C0008BE39FE10197F1F782E08093730340E0A4
:1013D00066E082E693E02BDA8EE292E0909363037C
:1013E0008093620310927B0310927A0310927D0324
:1013F00010927C0310927E0310927F03DF91CF91B5
:101400000895789484B5826084BD84B5816084BD7C
:1014100085B5826085BD85B5816085BD80916E0092
:10142000816080936E0010928100809181008260C3
:101430008093810080918100816080938100809100
:1014400080008160809380008091B10084608093EF
:10145000B1008091B00081608093B00080919100D4
:1014600082608093910080919100816080939100CF
:10147000809190008160809390008091A1008260B3
:101480008093A1008091A10081608093A100809150
:10149000A00081608093A0008091210182608093F0
:1014A000210180912101816080932101809120019F
:1014B00081608093200180917A00846080937A001B
:1014C00080917A00826080937A0080917A008160B6
:1014D00080937A0080917A00806880937A001092DD
:1014E000C100E091D502F091D60222E02083E09184
:1014F000D102F091D2021082E091D302F091D40295
:1015000090E190831092DD02E091D902F091DA022D
:1015100086E08083E091D702F091D80280818061DB
:101520008083E091D702F091D80280818860808327
:10153000E091D702F091D802808180688083E091A9
:10154000D702F091D80280818F7D808320937E0323
:1015500090937F038EE090E096D2EC0182E090E0E1
:10156000DE018D939D938D011B821A821D821C8248
:101570001F821E8240E050E06AEB72E0CD012EDD5A
:10158000198618861B861A861D861C8640E050E048
:101590006AEB72E0CE01089621DD10937D03009383
:1015A0007C03C0E080917E03C81780F480917C03A7
:1015B00090917D0340E050E06AEB72E0B6E0CB9F93
:1015C000800D911D11240ADDCF5FECCF9BE7992E92
:1015D000C5ECD2E02224239422EE322E3FEA832E61
:1015E0000FE912E045EAA42E42E0B42E1F929F922A
:1015F0001F929F92A3E7B2E0BF93AF93DF93CF9385
:1016000004DA1F9282E18F9396ED9F93A7E8AF9340
:101610001F922F923F928F92A8E8B2E0BF93AF93B0
:10162000DF93CF93F2D91F930F931F9282E08F9392
:101630001F930F93BF92AF92DF93CF93E6D90E948F
:1016400083026B017C01ADB7BEB75E960FB6F8940E
:10165000BEBF0FBEADBF88EE482E83E0582E612C72
:10166000712C0E948302DC01CB018C199D09AE090B
:10167000BF09883E9340A105B10558F0B1E04B1A6F
:10168000510861087108E8EECE0EE3E0DE1EE11CB1
:10169000F11C411451046104710419F752D8A6CF0A
:1016A000089540D008F481E00895E89409C097FBBC
:1016B0003EF490958095709561957F4F8F4F9F4F29
:1016C0009923A9F0F92F96E9BB279395F69587956D
:1016D00077956795B795F111F8CFFAF4BB0F11F430
:1016E00060FF1BC06F5F7F4F8F4F9F4F16C08823D7
:1016F00011F096E911C0772321F09EE8872F762F0D
:1017000005C0662371F096E8862F70E060E02AF04D
:101710009A95660F771F881FDAF7880F9695879539
:1017200097F90895990F0008550FAA0BE0E8FEEF0E
:1017300016161706E807F907C0F012161306E40795
:10174000F50798F0621B730B840B950B39F40A268E
:1017500061F0232B242B252B21F408950A2609F46C
:10176000A140A6958FEF811D811D08950BD078C0F3
:1017700069D028F06ED018F0952309F05AC05FC0E8
:101780001124A2C07ED0A0F3959FD1F3950F50E015
:10179000551F629FF001729FBB27F00DB11D639F23
:1017A000AA27F00DB11DAA1F649F6627B00DA11DC9
:1017B000661F829F2227B00DA11D621F739FB00D6F
:1017C000A11D621F839FA00D611D221F749F3327DF
:1017D000A00D611D231F849F600D211D822F762F78
:1017E0006A2F11249F5750408AF0E1F088234AF075
:1017F000EE0FFF1FBB1F661F771F881F91505040C1
:10180000A9F79E3F510570F014C05EC05F3FECF336
:10181000983EDCF3869577956795B795F795E795AC
:101820009F5FC1F7FE2B880F911D9695879597F9BD
:10183000089597F99F6780E870E060E008959FEF52
:1018400080EC089500240A94161617061806090657
:10185000089500240A941216130614060506089526
:10186000092E0394000C11F4882352F0BB0F40F4AE
:10187000BF2B11F460FF04C06F5F7F4F8F4F9F4FEE
:10188000089557FD9058440F551F59F05F3F71F070
:101890004795880F97FB991F61F09F3F79F08795D7
:1018A0000895121613061406551FF2CF4695F1DF60
:1018B00008C0161617061806991FF1CF86957105F0
:1018C000610508940895E894BB2766277727CB0124
:1018D00097F9089509D0A59F900DB49F900DA49FEE
:1018E000800D911D11240895A29FB001B39FC001E6
:1018F000A39F700D811D1124911DB29F700D811D3C
:101900001124911D08955058BB27AA270ED0A8CFA7
:1019100099DF30F09EDF20F031F49F3F11F41EF488
:101920008ECF0EF4E095E7FB84CFE92FAADF80F39A
:10193000BA17620773078407950718F071F49EF5CC
:10194000C2CF0EF4E0950B2EBA2FA02D0B01B901DA
:1019500090010C01CA01A0011124FF27591B99F025
:10196000593F50F4503E68F11A16F040A22F232F31
:10197000342F4427585FF3CF469537952795A79581
:10198000F0405395C9F77EF41F16BA0B620B730B28
:10199000840BBAF09150A1F0FF0FBB1F661F771F99
:1019A000881FC2F70EC0BA0F621F731F841F48F44E
:1019B000879577956795B795F7959E3F08F0B3CFD4
:1019C0009395880F08F09927EE0F979587950895BE
:1019D00004D06894B11178CF08955BDF88F09F57E9
:1019E00090F0B92F9927B751A0F0D1F0660F771F6B
:1019F000881F991F1AF0BA95C9F712C0B13081F04B
:101A000062DFB1E008955FCF672F782F8827B85F36
:101A100039F0B93FCCF3869577956795B395D9F7AB
:101A20003EF490958095709561957F4F8F4F9F4FB5
:101A30000895A1E21A2EAA1BBB1BFD010DC0AA1F0F
:101A4000BB1FEE1FFF1FA217B307E407F50720F027
:101A5000A21BB30BE40BF50B661F771F881F991FA2
:101A60001A9469F760957095809590959B01AC01EB
:101A7000BD01CF010895EE0FFF1F881F8BBF079098
:101A8000F691E02D1994CF93DF938230910510F4F5
:101A900082E090E0E0918603F091870320E030E05F
:101AA000C0E0D0E0309711F14081518148175907CB
:101AB000C0F04817590761F482819381209719F08B
:101AC0009B838A832BC0909387038093860326C0D1
:101AD0002115310519F04217530718F49A01BE0178
:101AE000DF01EF010280F381E02DDCCF211531050C
:101AF00009F1281B390B2430310590F412968D9191
:101B00009C9113976115710521F0FB0193838283EA
:101B100004C09093870380938603FD01329644C0EE
:101B2000FD01E20FF31F81939193225031092D9310
:101B30003C933AC02091840330918503232B41F4D8
:101B40002091020230910302309385032093840395
:101B500020910002309101022115310541F42DB789
:101B60003EB74091040250910502241B350BE091D1
:101B70008403F0918503E217F307A0F42E1B3F0BBB
:101B80002817390778F0AC014E5F5F4F24173507EF
:101B900048F04E0F5F1F5093850340938403819359
:101BA000919302C0E0E0F0E0CF01DF91CF91089582
:101BB0000F931F93CF93DF93009709F48CC0FC0120
:101BC00032971382128200918603109187030115C8
:101BD000110581F420813181820F931F20918403AC
:101BE000309185032817390779F5F0938503E09341
:101BF000840371C0D80140E050E0AE17BF0750F435
:101C000012962D913C911397AD012115310509F1E3
:101C1000D901F3CF9D01DA01338322836081718181
:101C2000860F971F8217930769F4EC012881398189
:101C3000260F371F2E5F3F4F318320838A819B8180
:101C400093838283452B29F4F0938703E0938603E3
:101C500042C01396FC93EE931297ED01499159916E
:101C60009E01240F351FE217F30771F480819181E3
:101C7000840F951F029611969C938E938281938177
:101C800013969C938E931297E0E0F0E0D8011296A1
:101C90008D919C911397009719F0F8018C01F6CF64
:101CA0008D919C9198012E5F3F4F820F931F209141
:101CB0008403309185032817390769F4309729F494
:101CC000109287031092860302C01382128210932F
:101CD000850300938403DF91CF911F910F910895A5
:101CE0006F927F928F929F92AF92BF92CF92DF922C
:101CF000EF92FF920F931F93CF93DF93EC01009726
:101D000081F4CB01DF91CF911F910F91FF90EF9064
:101D1000DF90CF90BF90AF909F908F907F906F900B
:101D2000B2CEFC01E60FF71F9C0122503109E217E9
:101D3000F30708F4A8C0D9010D911C91119706175B
:101D40001707A8F00530110508F49BC0C8010497D7
:101D50008617970708F495C002501109061B170B48
:101D6000019311936D937C93CF0122DF8AC05B01B5
:101D7000A01AB10A4C01800E911EA0918603B09169
:101D8000870340E050E0E12CF12C109709F44AC0A1
:101D9000A815B905D1F56D907C901197630182E08B
:101DA000C80ED11CCA14DB0480F1A3014A195B09D7
:101DB0006A0182E0C80ED11C1296BC90129713964D
:101DC000AC91B5E0CB16D10440F0B282A38351832D
:101DD0004083D9016D937C930AC00E5F1F4FC301EE
:101DE000800F911FF90191838083EB2DFA2FE1146D
:101DF000F10431F0D7011396FC93EE93129741C092
:101E0000F0938703E09386033CC08D919C911197DA
:101E10004817590708F4AC017D0112960D90BC914A
:101E2000A02DB3CF809184039091850388159905E7
:101E3000E1F446175707C8F480910002909101021F
:101E4000009741F48DB79EB740910402509105026E
:101E5000841B950BE817F907B0F4F0938503E09322
:101E60008403F901718360830CC0CB010CDE7C011B
:101E7000009749F0A801BE011BD0CE0199DEC70131
:101E800004C0CE0102C080E090E0DF91CF911F91AD
:101E90000F91FF90EF90DF90CF90BF90AF909F9009
:101EA0008F907F906F90089581E090E0F89410C03B
:101EB000FB01DC0102C001900D9241505040D8F767
:101EC0000895FB01DC0101900D920020E1F70895D7
:101ED00011E0C8E0D1E000E005C0802FFE01CBDDBD
:101EE0002196011DC930D10780E00807B1F7F894A9
:021EF000FFCF22
:101EF2000000880380000000000069040000000068
:101F02003A03A802D30280030403E202F6020000AD
:101F120000006404A8027C047B0400000000640446
:101F2200A8027C047B043B01EC07000000003C019A
:101F3200ED075C74005C6E005C720022005C00784D
:101F42000030313233343536373839616263646593
:101F52006600303132333435363738394142434402
:101F6200454600696E743D256420706164696E7433
:101F72003D253035640D0A006C6F6E673D256C207F
:101F82007061646C6F6E673D2530386C0D0A0061BC
:101F920062636465007374723D25732073756273A6
:0C1FA20074723D252A730D0A0D0A000020
:00000001FF
