:100000000C945D000C9485000C9485000C94850084
:100010000C9485000C9485000C9485000C9485004C
:100020000C9485000C9485000C9485000C9485003C
:100030000C9485000C9485000C9485000C9485002C
:100040000C9400030C9485000C9470030C944A03E8
:100050000C9485000C9485000C9485000C9485000C
:100060000C94A2030C9485000000000024002700DB
:100070002A0000000000250028002B0004040404CE
:100080000404040402020202020203030303030342
:10009000010204081020408001020408102001021F
:1000A00004081020000000080002010000030407FB
:1000B0000000000000000000D00411241FBECFEF9C
:1000C000D8E0DEBFCDBF22E0A4E2B1E001C01D92C6
:1000D000AE36B207E1F711E0A0E0B1E0E6ECFBE0FC
:1000E00002C005900D92A432B107D9F710E0CDE51A
:1000F000D0E004C02197FE010E94D605CC35D1077F
:10010000C9F70E9409050C94E1050C940000FC015C
:10011000538D448D252F30E0842F90E0821B930B6C
:10012000541710F0CF96089501970895FC01918D12
:10013000828D981761F0828DDF01A80FB11D5D9649
:100140008C91928D9F5F9F73928F90E008958FEFB7
:100150009FEF0895FC01918D828D981731F0828D6B
:10016000E80FF11D858D90E008958FEF9FEF0895C2
:10017000FC01918D228D892F90E0805C9F4F821B26
:1001800091098F7399270895FC01848DDF01A80FD1
:10019000B11DA35ABF4F2C91848D90E001968F73AF
:1001A0009927848FA689B7892C93A089B1898C91CE
:1001B00080648C93938D848D981306C00288F38994
:1001C000E02D80818F7D80830895EF92FF920F93C1
:1001D0001F93CF93DF93EC0181E0888F9B8D8C8DF3
:1001E000981305C0E889F989808185FD24C0F62E21
:1001F0000B8D10E00F5F1F4F0F731127E02E8C8DBA
:10020000E8120CC00FB607FCFACFE889F9898081A3
:1002100085FFF5CFCE010E94C400F1CF8B8DFE018A
:10022000E80FF11DE35AFF4FF0820B8FEA89FB893B
:100230008081806207C0EE89FF896083E889F9893F
:1002400080818064808381E090E0DF91CF911F9175
:100250000F91FF90EF900895CF93DF93EC01888D7D
:100260008823C9F0EA89FB89808185FD05C0A889BA
:10027000B9898C9186FD0FC00FB607FCF5CF808140
:1002800085FFF2CFA889B9898C9185FFEDCFCE018A
:100290000E94C400E7CFDF91CF91089585EC91E0F3
:1002A0000E94B80021E0892B09F420E0822F0895F4
:1002B00080E090E0892B29F00E944E0181110C947E
:1002C0000000089590E0FC01EC55FF4F3491FC01D3
:1002D000E057FF4F2491FC01E458FF4FE491EE23D7
:1002E00009F43BC0332339F1333091F038F4313025
:1002F000A9F0323001F584B58F7D12C0373091F00E
:100300003830A1F03430B9F4809180008F7D03C083
:10031000809180008F77809380000DC084B58F77A7
:1003200084BD09C08091B0008F7703C08091B00078
:100330008F7D8093B000F0E0EE0FFF1FEE58FF4F6F
:10034000A591B4918FB7F894EC91611103C02095F9
:100350002E2301C02E2B2C938FBF08953FB7F89406
:100360008091C1019091C201A091C301B091C401DB
:1003700026B5A89B05C02F3F19F00196A11DB11D00
:100380003FBFBA2FA92F982F8827820F911DA11D3B
:10039000B11DBC01CD0142E0660F771F881F991F78
:1003A0004A95D1F708958F929F92AF92BF92CF92C4
:1003B000DF92EF92FF926B017C010E94AE014B0134
:1003C0005C01C114D104E104F104F1F00E94AE011A
:1003D000DC01CB0188199909AA09BB09883E934021
:1003E000A105B10570F321E0C21AD108E108F108B6
:1003F00088EE880E83E0981EA11CB11CC114D104A4
:10040000E104F10419F7DDCFFF90EF90DF90CF907A
:10041000BF90AF909F908F900895E091AB01F091C5
:10042000AC01309729F01092B1011092B0010994FB
:100430000895CF93DF93AC01E091B801F091B90139
:100440003097F1F09091B3018091B2019817C0F00C
:1004500090E0292F30E02617370754F4D901A5572B
:10046000BE4FEA01C20FD31F88818C939F5FF1CFEB
:100470001092B3016093B201CB01DF91CF91099447
:10048000DF91CF910895CF92DF92EF92FF920F9379
:100490001F93CF93DF936C017A018B01C0E0D0E012
:1004A000CE15DF0589F0D8016D918D01D601ED9152
:1004B000FC910190F081E02DC6010995892B11F482
:1004C0007E0102C02196ECCFC701DF91CF911F9131
:1004D0000F91FF90EF90DF90CF9008950895E091F5
:1004E000B3018091B201E81730F4F0E0E557FE4F18
:1004F000808190E008958FEF9FEF08959091B30170
:100500008091B201981750F4E92FF0E0E557FE4FC3
:10051000208130E09F5F9093B30102C02FEF3FEF47
:10052000C901089582E692E00E947E029093BB0189
:100530008093BA0108958091B20190E02091B301B7
:10054000821B91090895089580E090E0089585ED5B
:100550008093BC008091BC0084FDFCCF1092AF0161
:10056000089540914401262F30E0240F311D21329F
:100570003105DCF42091AF012430C9F4FC0180E0A6
:1005800090E0861758F4309144012191DC01AC5D74
:10059000BE4FA30FB11D2C930196F3CF8091440160
:1005A000680F6093440180E0089581E0089582E03F
:1005B0000895CF93DF9300D0CDB7DEB7CB01642F82
:1005C00049835A830E94B1024981842F5A81952F11
:1005D0000F900F90DF91CF910895CF93DF931F92EB
:1005E000CDB7DEB7698361E0CE0101960E94B1020A
:1005F00081E090E00F90DF91CF9108950E94DC059B
:100600001F920F920FB60F9211242F933F938F9347
:100610009F93AF93BF938091BD019091BE01A09134
:10062000BF01B091C0013091BC0123E0230F2D37F1
:1006300020F40196A11DB11D05C026E8230F0296E6
:10064000A11DB11D2093BC018093BD019093BE01FB
:10065000A093BF01B093C0018091C1019091C201EC
:10066000A091C301B091C4010196A11DB11D809359
:10067000C1019093C201A093C301B093C401BF9183
:10068000AF919F918F913F912F910F900FBE0F903F
:100690001F9018951F920F920FB60F9211242F934F
:1006A0003F934F935F936F937F938F939F93AF93FA
:1006B000BF93EF93FF9385EC91E00E94C400FF91FC
:1006C000EF91BF91AF919F918F917F916F915F91CA
:1006D0004F913F912F910F900FBE0F901F90189543
:1006E0001F920F920FB60F9211242F938F939F9307
:1006F000EF93FF93E091D501F091D6018081E091D5
:10070000DB01F091DC0182FD12C090818091DE015D
:100710008F5F8F732091DF01821751F0E091DE012E
:10072000F0E0EB53FE4F958F8093DE0101C0808196
:10073000FF91EF919F918F912F910F900FBE0F908E
:100740001F9018951F920F920FB60F9211242F939E
:100750003F934F935F936F937F938F939F93AF9349
:10076000BF93EF93FF938091B900887F803609F49F
:100770009CC068F5883209F45BC090F4803109F4BC
:1007800054C038F4882309F4F6C0883009F44DC009
:10079000F6C0883109F44CC0803209F45DC0EFC066
:1007A000803409F468C048F4803309F455C08833B4
:1007B00009F0E5C080936701D8C0803509F44FC0C7
:1007C000883509F45DC0883409F0D9C0D6C08839AD
:1007D00009F4C7C0A8F4883709F467C038F488362C
:1007E00009F463C0803709F460C0C9C0883809F4CF
:1007F000B8C0803909F45FC0803809F0C0C05BC060
:10080000803B09F486C038F4803A09F466C0883A1F
:1008100009F47FC0B4C0803C09F4A7C0883C09F447
:10082000A4C0883B09F48AC0AAC080918A0110C084
:100830009091890180918801981770F5E091890164
:1008400081E08E0F80938901F0E0E859FE4F8081AE
:100850008093BB0085EC86C0809367018EC0E091D9
:10086000890181E08E0F809389018091BB00F0E0C7
:10087000E859FE4F808390918901809188016EC074
:10088000E091890181E08E0F809389018091BB0006
:10089000F0E0E859FE4F80838091AE0181116DC078
:1008A00081E08093AD0184EA61C083E08093AF0171
:1008B00010926601CFCF80916601803208F051C05E
:1008C000E091660181E08E0F809366018091BB000C
:1008D000F0E0EA5BFE4F8083BDCF85EC8093BC00E7
:1008E0001092AF0180916601803230F4E091660190
:1008F000F0E0EA5BFE4F10826091660170E0E091EB
:10090000B401F091B50186E491E009951092660179
:1009100036C084E08093AF011092450110924401EB
:10092000E091B601F091B7010995809144018111E0
:1009300005C081E08093440110922401E0914501BB
:1009400081E08E0F80934501F0E0EC5DFE4F8081E9
:100950008093BB009091450180914401981708F461
:1009600079CF85E88093BC000AC085EC8093BC00F9
:100970001092AF0104C0109267010E94A702FF917C
:10098000EF91BF91AF919F918F917F916F915F9107
:100990004F913F912F910F900FBE0F901F90189580
:1009A000E5ECF1E01382128288EE93E0A0E0B0E083
:1009B00084839583A683B78324E031E03183208349
:1009C00025EC30E03587248724EC30E03787268714
:1009D00020EC30E0318B208B21EC30E0338B228B0C
:1009E00022EC30E0358B248B26EC30E0378B268BE5
:1009F000118E128E138E148EE2E6F2E013821282B2
:100A000084839583A683B78386E191E09183808375
:100A10000895789484B5826084BD84B5816084BD76
:100A200085B5826085BD85B5816085BD80916E008C
:100A3000816080936E0010928100809181008260BD
:100A400080938100809181008160809381008091FA
:100A500080008160809380008091B10084608093E9
:100A6000B1008091B00081608093B00080917A00E5
:100A7000846080937A0080917A00826080937A000B
:100A800080917A00816080937A0080917A008068FA
:100A900080937A001092C100EDE9F0E02491E9E83A
:100AA000F0E08491882399F090E0880F991FFC0171
:100AB000E859FF4FA591B491FC01EE58FF4F859185
:100AC00094918FB7F894EC91E22BEC938FBF82E175
:100AD0008093BA008DE092E09093B7018093B601C5
:100AE00089E192E09093B5018093B4011092B30133
:100AF0001092B2011092B1011092B0011092AF01A8
:100B000081E08093AE011092AD0161E082E10E942C
:100B1000620161E083E10E9462018091B9008E7FF1
:100B20008093B9008091B9008D7F8093B90088E4EB
:100B30008093B80085E48093BC0082E992E09093B2
:100B4000B9018093B8018091BA019091BB018033C3
:100B5000910599F461E08DE00E94620168EC70E01B
:100B600080E090E00E94D30160E08DE00E9462018D
:100B700068EC70E080E090E014C0C397A1F461E0FD
:100B80008DE00E94620160E971E080E090E00E94E7
:100B9000D30160E08DE00E94620160E971E080E0D5
:100BA00090E00E94D3010E945801CDCFEE0FFF1FAD
:100BB0000590F491E02D099481E090E0F8940C9474
:060BC000E105F894FFCFEF
:100BC60000000000E500430287002C01B8009600F3
:100BD600AA0000000000ED02D902A4026E029B02E8
:040BE6007E026F021A
:00000001FF
