:100000000C9462000C948A000C948A000C948A0070
:100010000C948A000C948A000C948A000C94FC03C3
:100020000C948A000C948A000C948A000C948A0028
:100030000C948A000C948A000C948A000C948A0018
:100040000C945A030C948A000C94CA030C94A403D5
:100050000C948A000C948A000C948A000C948A00F8
:100060000C948A000C948A000000000023002600F3
:10007000290000000000240027002A0000000000E2
:10008000250028002B0004040404040404040202D4
:100090000202020203030303030301020408102007
:1000A0004080010204081020010204081020000012
:1000B0000008000201000003040700000000000027
:1000C0000000230411241FBECFEFD8E0DEBFCDBF58
:1000D00011E0A0E0B1E0E0E5F1E102C005900D9291
:1000E000AC31B107D9F722E0ACE1B1E001C01D921B
:1000F000AC38B207E1F710E0C2E6D0E004C02197C7
:10010000FE010E949B08C136D107C9F70E949B04DB
:100110000C94A6080C94000090E0FC01E255FF4FFF
:100120003491FC01E656FF4F2491FC01EA57FF4F42
:10013000E491EE2309F43BC0332339F1333091F0DD
:1001400038F43130A9F0323001F584B58F7D12C01A
:10015000373091F03830A1F03430B9F4809180001C
:100160008F7D03C0809180008F77809380000DC0C9
:1001700084B58F7784BD09C08091B0008F7703C0AC
:100180008091B0008F7D8093B000F0E0EE0FFF1FF4
:10019000E458FF4FA591B4918FB7F894EC91611199
:1001A00003C020952E2301C02E2B2C938FBF0895C2
:1001B000CF93DF9390E0FC01E656FF4F2491FC01C2
:1001C000EA57FF4F8491882361F190E0880F991FCF
:1001D000FC01EE58FF4FC591D491FC01E458FF4F4C
:1001E000A591B491611109C09FB7F89488812095B9
:1001F00082238883EC912E230BC0623061F49FB779
:10020000F8943881822F809583238883EC912E2B5C
:100210002C939FBF06C08FB7F894E8812E2B2883BC
:100220008FBFDF91CF9108953FB7F8948091A301DC
:100230009091A401A091A501B091A60126B5A89B1B
:1002400005C02F3F19F00196A11DB11D3FBFBA2F68
:10025000A92F982F8827820F911DA11DB11DBC01C8
:10026000CD0142E0660F771F881F991F4A95D1F78D
:100270000895CF92DF92EF92FF920F931F93CF9347
:10028000DF936C017A018B01C0E0D0E0CE15DF0571
:1002900089F0D8016D918D01D601ED91FC9101900D
:1002A000F081E02DC6010995892B11F47E0102C071
:1002B0002196ECCFC701DF91CF911F910F91FF9055
:1002C000EF90DF90CF900895089580E090E008953A
:1002D000FC01538D448D252F30E0842F90E0821B4C
:1002E000930B541710F0CF96089501970895FC01D1
:1002F000918D828D981761F0828DDF01A80FB11D5D
:100300005D968C91928D9F5F9F73928F90E0089580
:100310008FEF9FEF0895FC01918D828D981731F03A
:10032000828DE80FF11D858D90E008958FEF9FEF8E
:100330000895FC01918D228D892F90E0805C9F4F64
:10034000821B91098F739927089587EA91E00E9493
:10035000990121E0892B09F420E0822F0895FC0106
:10036000848DDF01A80FB11DA35ABF4F2C91848D3E
:1003700090E001968F739927848FA689B7892C9373
:10038000A089B1898C9180648C93938D848D98130E
:1003900006C00288F389E02D80818F7D80830895D7
:1003A000EF92FF920F931F93CF93DF93EC0181E0C5
:1003B000888F9B8D8C8D981305C0E889F989808181
:1003C00085FD24C0F62E0B8D10E00F5F1F4F0F73BD
:1003D0001127E02E8C8DE8120CC00FB607FCFACF67
:1003E000E889F989808185FFF5CFCE010E94AF01B0
:1003F000F1CF8B8DFE01E80FF11DE35AFF4FF08224
:100400000B8FEA89FB898081806207C0EE89FF89B2
:100410006083E889F98980818064808381E090E04D
:10042000DF91CF911F910F91FF90EF900895CF939F
:10043000DF93EC01888D8823C9F0EA89FB898081EC
:1004400085FD05C0A889B9898C9186FD0FC00FB6BE
:1004500007FCF5CF808185FFF2CFA889B9898C91FF
:1004600085FFEDCFCE010E94AF01E7CFDF91CF91A5
:10047000089580E090E0892B29F00E94A501811168
:100480000C9400000895DC0170E0FB01E656FF4F7C
:10049000E4911496EC93149750E0FA01E656FF4F5E
:1004A000E4911596EC9315976A577F4FFB01849161
:1004B000E82FF0E0EE0FFF1FE458FF4F8591949175
:1004C00017969C938E931697FA01EA57FF4F449123
:1004D00050E0440F551F48595F4FFA0185919491A0
:1004E00019969C938E931897FB016491E62FF0E088
:1004F000EE0FFF1FEE58FF4F859194911B969C9332
:100500008E931A972F5F3F4F49E3429FC001439F4D
:10051000900D11248E38FFE69F0710F08DE89FE6BE
:100520001D969C938E931C970895809154029091F0
:100530005502459774F08091680290916902459741
:1005400044F081E020915E0230915F022531310557
:100550000CF480E0089561E083E00E948C0060E08C
:1005600084E00E948C0060E082E00E948C0061E0E8
:1005700085E00C948C0060E083E00E948C0061E0D8
:1005800084E00E948C0061E082E00E948C0060E0C8
:1005900085E00C948C00009769F0FC01019000202C
:1005A000E9F73197AF01481B590BBC0187EA91E08D
:1005B0000C94390180E090E008958F929F92AF9261
:1005C000BF92CF92DF92EF92FF920F931F93CF9340
:1005D000DF93CDB7DEB7A1970FB6F894DEBF0FBE9D
:1005E000CDBF6C01990FEE08FF08F7FE31C0E09116
:1005F000A701F091A8010190F081E02D6DE287EA5A
:1006000091E009958C0122273327A9012C193D0976
:100610004E095F0919A2CE0181967C019AE0892ECC
:10062000912CA12CB12CCA01B901A50194010E9401
:100630005608605DF70162937F0121153105410580
:10064000510589F7CF010E94CB02800F911F1DC079
:10065000A701960119A28E010F5D1F4F8AE0C82ED7
:10066000D12CE12CF12CCA01B901A70196010E94FD
:100670005608605DF80162938F012115310541052F
:10068000510589F7CF010E94CB02A1960FB6F894CD
:10069000DEBF0FBECDBFDF91CF911F910F91FF90B5
:1006A000EF90DF90CF90BF90AF909F908F90089584
:1006B0000E94A1081F920F920FB60F9211242F9340
:1006C0003F938F939F93AF93BF9380919F0190919E
:1006D000A001A091A101B091A20130919E0123E05F
:1006E000230F2D3720F40196A11DB11D05C026E86A
:1006F000230F0296A11DB11D20939E0180939F019F
:100700009093A001A093A101B093A2018091A301B5
:100710009091A401A091A501B091A6010196A11DFF
:10072000B11D8093A3019093A401A093A501B09360
:10073000A601BF91AF919F918F913F912F910F9003
:100740000FBE0F901F9018951F920F920FB60F9229
:1007500011242F933F934F935F936F937F938F93C6
:100760009F93AF93BF93EF93FF9387EA91E00E942B
:10077000AF01FF91EF91BF91AF919F918F917F91C9
:100780006F915F914F913F912F910F900FBE0F90FE
:100790001F9018951F920F920FB60F9211242F934E
:1007A0008F939F93EF93FF93E091B701F091B8017E
:1007B0008081E091BD01F091BE0182FD12C0908167
:1007C0008091C0018F5F8F732091C101821751F01A
:1007D000E091C001F0E0E955FE4F958F8093C00194
:1007E00001C08081FF91EF919F918F912F910F9088
:1007F0000FBE0F901F9018951F920F920FB60F9279
:1008000011242F933F934F935F936F937F938F9315
:100810009F93AF93BF93EF93FF93E0912001F091EB
:1008200021010995FF91EF91BF91AF919F918F9118
:100830007F916F915F914F913F912F910F900FBEDC
:100840000F901F9018951092AA011092A90188EE9E
:1008500093E0A0E0B0E08093AB019093AC01A09353
:10086000AD01B093AE0186E091E09093A801809332
:10087000A70185EC90E09093B4018093B30184ECE0
:1008800090E09093B6018093B50180EC90E0909356
:10089000B8018093B70181EC90E09093BA01809306
:1008A000B90182EC90E09093BC018093BB0186EC8F
:1008B00090E09093BE018093BD011092C001109210
:1008C000C1011092C2011092C301E0E5F2E084E69A
:1008D00090E0118210821382128215821482178294
:1008E0001682918780873A9622E0EC38F20789F7E2
:1008F00080E890E0909345028093440281E890E084
:10090000909347028093460289E890E090934902D1
:100910008093480288E890E090934B0280934A02CB
:1009200085E890E090934D0280934C0290934F02A3
:1009300080934E020895789484B5826084BD84B516
:10094000816084BD85B5826085BD85B5816085BDCA
:1009500080916E00816080936E0010928100809182
:10096000810082608093810080918100816080930A
:100970008100809180008160809380008091B1002F
:1009800084608093B1008091B00081608093B0005A
:1009900080917A00846080937A0080917A008260EE
:1009A00080937A0080917A00816080937A008091B0
:1009B0007A00806880937A001092C100E091B701BC
:1009C000F091B80182E08083E091B301F091B4012D
:1009D0001082E091B501F091B60180E18083109220
:1009E000BF01E091BB01F091BC0186E08083E09102
:1009F000B901F091BA01808180618083E091B901F1
:100A0000F091BA01808188608083E091B901F09112
:100A1000BA01808180688083E091B901F091BA01C8
:100A200080818F7D80838FE090E09093510280934E
:100A300050028EE090E0909353028093520281E145
:100A400090E090935B0280935A0283E190E0909350
:100A500065028093640286E090E090938302809325
:100A6000820287E090E0909385028093840288E080
:100A700090E090937902809378028CE090E09093DC
:100A80005D0280935C028AE090E090936F02809315
:100A90006E028BE090E09093670280936602C0E55F
:100AA000D2E060E088810E94D80061E08A810E94E3
:100AB000D8002A9622E0CC38D20799F761E089E085
:100AC0000E94D80061E083E00E94D80061E084E0E9
:100AD0000E94D80061E082E00E94D80061E085E0D9
:100AE0000E94D80060E083E00E948C0060E084E017
:100AF0000E948C0060E082E00E948C0060E085E053
:100B00000E948C00E3E22E2E312CF9E3CF2ED12C63
:100B1000A8E18A2E912CA12CB12C412CB2E15B2EA4
:100B2000BAE76B2E712C2FB7F89480919F019091AA
:100B3000A001A091A101B091A2012FBF40919A0103
:100B400050919B0160919C0170919D01841B950BBC
:100B5000A60BB70B88359240A105B10508F4BDC1BD
:100B60002FB7F89480919F019091A001A091A101CD
:100B7000B091A2012FBF80939A0190939B01A09303
:100B80009C01B0939D01C7E2D1E006E211E070E55F
:100B9000E72E72E0F72E80918E01811133C028EC90
:100BA00030E04FE06EE082E291E00E94430228ECE8
:100BB00030E041E160E184E391E00E94430228ECEF
:100BC00030E043E162E186E491E00E94430228ECD8
:100BD00030E046E067E088E591E00E94430228ECBF
:100BE00030E048E06CE08AE691E00E94430228ECA5
:100BF00030E04AE06BE08CE791E00E944302F1E0D4
:100C0000F0938E01ED81FE819081D8018C91892B2A
:100C10008083E981FA8190818C91809589238083FA
:100C20008BE090E00197F1F7E981FA8190818C9156
:100C3000892B8083C1010197F1F7E981FA819081C5
:100C40008C91809589238083ED81FE8190818C91A8
:100C5000809589238083EB81FC8190818881892321
:100C600009F056C00E9414012F81388540E050E001
:100C70002855394E4F4F5F4FDC01CB01820F931F38
:100C8000A41FB51F89879A87AB87BC87EB81FC813E
:100C900090818881892361F40E94140129853A8515
:100CA0004B855C85261737074807590778F730C00A
:100CB0000E9414012F813885AB01BC01420F531FE4
:100CC000611D711D49875A876B877C87EB81FC8189
:100CD00090818881892361F00E94140129853A85D9
:100CE0004B855C85261737074807590778F710C0EA
:100CF0000E9414012F813885A90145505109298589
:100D00003A85FA01E21BF30BCF01860F971F02C051
:100D100080E090E0B6010E9487086115710569F0D6
:100D2000D70114968D919C91159717969C938E934D
:100D3000169715967C936E931497BAE0EB0EF11C00
:100D400062960E5E1F4FE1E0CD35DE0709F023CF3E
:100D500080919601909197019C012F5F3F4F3093B6
:100D60009701209396010E94DD0284E191E00E94A8
:100D7000CB0280915402909155020E94DD0287E1DE
:100D800091E00E94CB0280915E0290915F020E94EE
:100D9000DD0287E191E00E94CB0280916802909190
:100DA00069020E94DD028AE191E00E94CB028091FB
:100DB0008602909187020E94DD0287E191E00E9405
:100DC000CB0280917C0290917D020E94DD0287E13E
:100DD00091E00E94CB0280917202909173020E9476
:100DE000DD0289E191E00E94CB02E0E5F2E028EC2F
:100DF00030E084819581009721F0821793070CF4ED
:100E00009C013A9682E0EC38F80799F7C0914402C9
:100E1000D0914502293131050CF059C02115310519
:100E200009F455C0C901330FAA0BBB0B9C01AD01DE
:100E30002150310941095109A7EFBFEF0E94510824
:100E4000A50194010E942408265F3F4F4F4F5F4F3A
:100E5000C301B2010E94240821153105A1E04A070F
:100E600051054CF066E056954795379527956A955C
:100E7000D1F783E001C081E01882E0914602F09151
:100E800047021082E0914C02F0914D021082E091F5
:100E90004E02F0914F021082E0914802F091490217
:100EA000E32EF42E052F1127E082E0914A02F09103
:100EB0004B022083E0914402F091450290E490833C
:100EC000E0914602F09147028860808306C0188254
:100ED000E0914602F09147021082E0E5F2E080E006
:100EE00090E0248135812115310521F08217930787
:100EF0000CF4C9013A96B2E0EC38FB0791F745973C
:100F00000CF09DC08091000190910101019709F4BE
:100F100096C041E050E05093010140930001809160
:100F2000540290915502209168023091690228176D
:100F300039072CF4109299011092980107C082177A
:100F4000930724F4509399014093980180910001F4
:100F5000909101010197C9F5809154029091550239
:100F60004497ECF480916802909169024497BCF434
:100F700080915E0290915F0244978CF461E083E07F
:100F80000E948C0061E084E00E948C0060E082E0BE
:100F90000E948C0060E085E00E948C0016C0809169
:100FA000980190919901009759F40E94BB020E9408
:100FB0009502882351F0109201011092000105C0A2
:100FC000019719F40E94AB02F2CF80910001909139
:100FD0000101892B89F540915E0250915F02809159
:100FE00054029091550220916802309169024E326C
:100FF0005105BCF08E329105A4F02E3231058CF0F3
:1010000060E083E00E948C0060E084E00E948C003D
:1010100061E082E00E948C0061E085E00E948C002B
:101020000BC0281739071CF40E94BB0205C08217A9
:10103000930714F40E94AB020E94390274CD1092FF
:1010400001011092000182CF052E97FB1EF400943F
:101050000E943B0857FD07D00E94560807FC03D0AA
:101060004EF40C943B0850954095309521953F4F98
:101070004F4F5F4F089590958095709561957F4F84
:101080008F4F9F4F08950E947808A59F900DB49FA1
:10109000900DA49F800D911D11240895B7FF0C940D
:1010A00043080E944308821B930B0895A1E21A2E65
:1010B000AA1BBB1BFD010DC0AA1FBB1FEE1FFF1FFC
:1010C000A217B307E407F50720F0A21BB30BE40B4C
:1010D000F50B661F771F881F991F1A9469F7609593
:1010E0007095809590959B01AC01BD01CF0108954D
:1010F000A29FB001B39FC001A39F700D811D112459
:10110000911DB29F700D811D1124911D0895AA1B80
:10111000BB1B51E107C0AA1FBB1FA617B70710F0E2
:10112000A61BB70B881F991F5A95A9F78095909514
:10113000BC01CD010895EE0FFF1F0590F491E02D45
:10114000099481E090E0F8940C94A608F894FFCFFD
:10115000010000000000D001390168011702990167
:0C11600077018B012E0A0020000A0A0013
:00000001FF
