:100000000C945E000C9486000C9486000C94860080
:100010000C9486000C9486000C9486000C94860048
:100020000C9486000C9486000C9486000C94860038
:100030000C9486000C9486000C9486000C94860028
:100040000C9406040C9486000C9476040C945004D2
:100050000C9486000C9486000C9486000C94860008
:100060000C9486000C948600000000080002010039
:100070000003040700000000000000000000000072
:10008000250028002B0000000000240027002A0083
:10009000040404040404040402020202020203032E
:1000A0000303030301020408102040800102040836
:1000B0001020010204081020A804A30611241FBE6A
:1000C000CFEFD8E0DEBFCDBF22E0A4EAB1E001C0AF
:1000D0001D92A635B207E1F711E0A0E0B1E0E2E43D
:1000E000F3E102C005900D92A43AB107D9F710E0F0
:1000F000CDE5D0E004C02197FE010E948207CC35F7
:10010000D107C9F70E9408050C9494090C940000CB
:1001100090E0FC01EC55FF4F2491FC01E057FF4FAC
:100120008491882399F090E0880F991FFC01EA5789
:10013000FF4FA591B491FC01E458FF4F8591949134
:100140008FB7F894EC91E22BEC938FBF08952FB703
:10015000F8948091A9019091AA01A091AB01B0916E
:10016000AC012FBF8093B5019093B601A093B70166
:10017000B093B801E091AD01F091AE010284F38536
:10018000E02D8DEA91E0099597FF26C02FB7F894EE
:100190008091A9019091AA01A091AB01B091AC010D
:1001A0002FBF4091B5015091B6016091B701709198
:1001B000B801841B950BA60BB70B4091B101509170
:1001C000B2016091B3017091B40184179507A6073D
:1001D000B70780F28FEF9FEF089590E0FC01E85998
:1001E000FF4F3491FC01EC55FF4F2491FC01E05787
:1001F000FF4FE491EE2309F43BC0332339F1333050
:1002000091F038F43130A9F0323001F584B58F7DAA
:1002100012C0373091F03830A1F03430B9F4809109
:1002200080008F7D03C0809180008F778093800055
:100230000DC084B58F7784BD09C08091B0008F77E1
:1002400003C08091B0008F7D8093B000F0E0EE0F8E
:10025000FF1FE458FF4FA591B4918FB7F894EC912C
:10026000611103C020952E2301C02E2B2C938FBF2C
:100270000895CF92DF92EF92FF920F931F93CF9347
:10028000DF936C017A018B01C0E0D0E0CE15DF0571
:1002900089F0D8016D918D01D601ED91FC9101900D
:1002A000F081E02DC6010995892B11F47E0102C071
:1002B0002196ECCFC701DF91CF911F910F91FF9055
:1002C000EF90DF90CF900895089580E090E008953A
:1002D000FC01538D448D252F30E0842F90E0821B4C
:1002E000930B541710F0CF96089501970895FC01D1
:1002F000918D828D981761F0828DDF01A80FB11D5D
:100300005D968C91928D9F5F9F73928F90E0089580
:100310008FEF9FEF0895FC01918D828D981731F03A
:10032000828DE80FF11D858D90E008958FEF9FEF8E
:100330000895FC01918D228D892F90E0805C9F4F64
:10034000821B91098F73992708958DEA91E00E948D
:10035000990121E0892B09F420E0822F0895FC0106
:10036000848DDF01A80FB11DA35ABF4F2C91848D3E
:1003700090E001968F739927848FA689B7892C9373
:10038000A089B1898C9180648C93938D848D98130E
:1003900006C00288F389E02D80818F7D80830895D7
:1003A000EF92FF920F931F93CF93DF93EC0181E0C5
:1003B000888F9B8D8C8D981305C0E889F989808181
:1003C00085FD24C0F62E0B8D10E00F5F1F4F0F73BD
:1003D0001127E02E8C8DE8120CC00FB607FCFACF67
:1003E000E889F989808185FFF5CFCE010E94AF01B0
:1003F000F1CF8B8DFE01E80FF11DE35AFF4FF08224
:100400000B8FEA89FB898081806207C0EE89FF89B2
:100410006083E889F98980818064808381E090E04D
:10042000DF91CF911F910F91FF90EF900895CF939F
:10043000DF93EC01888D8823C9F0EA89FB898081EC
:1004400085FD05C0A889B9898C9186FD0FC00FB6BE
:1004500007FCF5CF808185FFF2CFA889B9898C91FF
:1004600085FFEDCFCE010E94AF01E7CFDF91CF91A5
:10047000089580E090E0892B29F00E94A501811168
:100480000C9400000895CF92DF92EF92FF92CF93E9
:100490006B017C019B01AC016EEF7FEF81E090E08E
:1004A0000E9450079B01AC0160E074E284EF90E091
:1004B0000E946007C0E0EC2FF0E0EE0FFF1FE65E49
:1004C000FE4F80819181CF5F82179307A0F3A70130
:1004D0009601220F331F441F551FEC2FF0E0EE0F43
:1004E000FF1FE65EFE4FA081B1810E94FF069B01C7
:1004F000AC0160E074E284EF90E00E94600730930A
:1005000087002093860080918100C770887FC82B68
:10051000C093810081E0CF91FF90EF90DF90CF906A
:10052000089508958F929F92AF92BF92CF92DF92DB
:10053000EF92FF920F931F93CF936B017C01AEEF6D
:10054000B1E09B01AC010E94FF069B01AC0160E0A1
:1005500074E284EF90E00E9460078901CC0CDD1CFE
:10056000EE1CFF1CC0E0812C24E2922E24EFA22E70
:10057000B12CCF5FEC2FF0E0EE0FFF1FE65FFE4FD8
:100580008081918180179107A0F38C01DC01A70184
:1005900096010E94FF069B01AC01C501B4010E94B7
:1005A00060072F3F310509F020F72093B3008091B9
:1005B000B100C770887FC82BC093B10081E0CF9194
:1005C0001F910F91FF90EF90DF90CF90BF90AF9071
:1005D0009F908F9008950F931F93E82FCB01BA013E
:1005E0000E2E000CFF0BE859FF4FE4912DEF2E0F5C
:1005F000223078F48B019C01015011092109310945
:10060000003814482E413105A8F41F910F910C9425
:100610004302E83079F48B019C010F511109210943
:100620003109023614482E41310520F41F910F91F3
:100630000C94920280E01F910F910895CF93DF9365
:10064000C82F0E948800EC2FF0E0E859FF4FE4919A
:10065000E330D1F050F4E23079F584B5806284BDA6
:1006600067B570E0C8E4D0E038C0E430C9F0E830E5
:1006700019F58091B00080628093B0006091B30062
:1006800070E0C4EBD0E029C0809180008068809346
:1006900080006091860070918700C8E8D0E012C0A9
:1006A00080918000806280938000609186007091CC
:1006B0008700CAE8D0E006C060E08C2FDF91CF91C0
:1006C0000C94ED0080E090E02FEF30E040E050E04F
:1006D0000E9460073983288309C080E090E02FEFF3
:1006E00030E040E050E00E9460072883DF91CF9126
:1006F0000895CF93DF93009779F0FC0101900020DB
:10070000E9F73197AF01481B590BBC018DEA91E025
:100710000E943901EC0102C0C0E0D0E042E050E0AC
:1007200060E471E08DEA91E00E9439018C0F9D1F19
:10073000DF91CF9108950C941D080E947F090F93BB
:100740001F93CF93DF93EC0188819981009729F063
:100750002A813B812617370788F48B016F5F7F4F13
:100760000E94B508009761F0998388831B830A83F0
:100770002C813D81232B11F4FC01108281E001C00A
:1007800080E0DF91CF911F910F910895EF92FF923A
:100790000F931F93CF93DF93EC01198218821B8272
:1007A0001A821D821C826115710549F18B01FB01C2
:1007B00001900020E9F731977F01E61AF70AB701A7
:1007C0000E949F032881398181110DC021153105B7
:1007D00019F0C9010E941D08198218821D821C820D
:1007E0001B821A820CC0FD82EC82B801C901DF9124
:1007F000CF911F910F91FF90EF900C948D09DF9195
:10080000CF911F910F91FF90EF9008951F920F923B
:100810000FB60F9211242F933F938F939F93AF9313
:10082000BF938091A9019091AA01A091AB01B091D1
:10083000AC013091A80123E0230F2D3720F401965D
:10084000A11DB11D05C026E8230F0296A11DB11DF3
:100850002093A8018093A9019093AA01A093AB01D2
:10086000B093AC018091A4019091A501A091A60143
:10087000B091A7010196A11DB11D8093A401909391
:10088000A501A093A601B093A701BF91AF919F913D
:100890008F913F912F910F900FBE0F901F90189541
:1008A0001F920F920FB60F9211242F933F934F93E5
:1008B0005F936F937F938F939F93AF93BF93EF93C8
:1008C000FF938DEA91E00E94AF01FF91EF91BF91FC
:1008D000AF919F918F917F916F915F914F913F91D8
:1008E0002F910F900FBE0F901F9018951F920F928F
:1008F0000FB60F9211242F938F939F93EF93FF9333
:10090000E091BD01F091BE018081E091C301F091C1
:10091000C40182FD12C090818091C6018F5F8F73E8
:100920002091C701821751F0E091C601F0E0E35534
:10093000FE4F958F8093C60101C08081FF91EF919A
:100940009F918F912F910F900FBE0F901F90189530
:10095000CF93DF93EDEAF1E01382128288EE93E009
:10096000A0E0B0E084839583A683B7838AE291E018
:100970009183808385EC90E09587848784EC90E078
:100980009787868780EC90E0918B808B81EC90E05C
:10099000938B828B82EC90E0958B848B86EC90E03D
:1009A000978B868B118E128E138E148ECAE4D2E032
:1009B0008CE391E09983888388E090E09B838A832D
:1009C00089E090E09D838C838DE090E09F838E830F
:1009D00088E00E9488008C810E9488008E810E949D
:1009E00088008AE00E9488008BE00E9488008CE0EA
:1009F0000E94880061E08AE00E94ED0061E08BE0E7
:100A00000E94ED0061E08CE0DF91CF910C94ED004D
:100A1000CF93DF93CDB7DEB766970FB6F894DEBFFE
:100A20000FBECDBF789484B5826084BD84B58160EB
:100A300084BD85B5826085BD85B5816085BD8091A9
:100A40006E00816080936E00109281008091810021
:100A50008260809381008091810081608093810019
:100A6000809180008160809380008091B1008460DB
:100A70008093B1008091B00081608093B00080913C
:100A80007A00846080937A0080917A0082608093FB
:100A90007A0080917A00816080937A0080917A0058
:100AA000806880937A001092C100E091BD01F091BE
:100AB000BE0182E08083E091B901F091BA01108219
:100AC000E091BB01F091BC0180E180831092C501EF
:100AD000E091C101F091C20186E08083E091BF0105
:100AE000F091C001808180618083E091BF01F0912D
:100AF000C001808188608083E091BF01F091C001D6
:100B0000808180688083E091BF01F091C001808185
:100B10008F7D808383E491E00E947903809180003F
:100B20008C7F8093800080918100877E806180939C
:100B3000810064EF71E080E090E00E9443028091C8
:100B4000B0008C7F81608093B0008091B10088609C
:100B50008093B10064EF71E080E090E00E94920227
:100B600040ED57E060E070E080914E020E94EB02A1
:100B7000182F61E0809150020E94ED00112351F086
:100B80008FE491E00E94790361E0809150020E941D
:100B9000ED0004C082E691E00E94790360E080915C
:100BA00050020E94ED0040ED57E060E070E080915F
:100BB0004E020E94EB0288EC882E912CA12CB12CC5
:100BC0008DEA91E00E949901892B09F4B5C062E495
:100BD00071E0CE0101960E94C6030E94A70097FD16
:100BE0001BC0898B1A8A0D811E810F5F1F4FB801B0
:100BF000CE0101960E949F03882379F329813A81CF
:100C00008D819E81BE016F5E7F4F820F931F0E9478
:100C10008D091E830D83E1CFE980FA80C7010E9410
:100C2000A4068C01C7010E941D080115110591F44D
:100C30008092000190920101A0920201B092030102
:100C400061E0809150020E94ED0081E991E00E94F4
:100C5000790372C0A801012E000C660B770B40933C
:100C60000001509301016093020170930301809190
:100C70004E020E94EB0260E0809150020E94ED0063
:100C800080914E020E941E034AE0BE016F5F7F4FBB
:100C9000C8010E94C206BE016F5F7F4FCE01419620
:100CA0000E94C60368E971E0CE0101960E94C60366
:100CB0008D899E89E988FA880D811E81E114F104ED
:100CC000B9F0009709F1080F191FB801CE0101967C
:100CD0000E949F03882361F029813A818D819E8142
:100CE000B701820F931F0E948D091E830D830CC0D4
:100CF00089819A81009711F00E941D081A82198239
:100D00001E821D821C821B824D815E8169817A81D7
:100D10008DEA91E00E94390142E050E060E471E028
:100D20008DEA91E00E94390189819A810E941D0813
:100D300089899A890E941D0880914E020E941E0393
:100D40000E9439023DCF0895FC0188279927E89435
:100D500021912032E9F3293010F02E30C8F32B32E4
:100D600041F02D3239F4689404C00E94CD06820F00
:100D7000911D219120532A30C0F31EF49095819546
:100D80009F4F0895BB274A3031F4992322F4BDE2E6
:100D9000909581959F4F0C94D6067AE0979F902D61
:100DA000879F802D910D11240895BB27FB015527A6
:100DB000AA27880F991FAA1FA41710F0A41B8395B8
:100DC0005051B9F7A05DAA3308F0A95DA19300972F
:100DD00079F7B111B1931192CB010C94EF06DC01BC
:100DE000FC01672F71917723E1F7329704C07C9162
:100DF0006D9370836291AE17BF07C8F308950E9488
:100E00004107A59F900DB49F900DA49F800D911D4B
:100E1000112408952F923F924F925F926F927F928A
:100E20008F929F92AF92BF92CF92DF92EF92FF92FA
:100E30000F931F93CF93DF93CDB7DEB7CA1BDB0BA6
:100E40000FB6F894DEBF0FBECDBF09942A8839884B
:100E500048885F846E847D848C849B84AA84B98452
:100E6000C884DF80EE80FD800C811B81AA81B9815E
:100E7000CE0FD11D0FB6F894DEBF0FBECDBFED0172
:100E80000895A29FB001B39FC001A39F700D811D63
:100E90001124911DB29F700D811D1124911D089583
:100EA000DB018F939F930E94FF06BF91AF91A29F9A
:100EB000800D911DA39F900DB29F900D1124089558
:100EC000A1E21A2EAA1BBB1BFD010DC0AA1FBB1F4E
:100ED000EE1FFF1FA217B307E407F50720F0A21BC0
:100EE000B30BE40BF50B661F771F881F991F1A942D
:100EF00069F760957095809590959B01AC01BD0157
:100F0000CF010895EE0FFF1F0590F491E02D099495
:100F1000CF93DF938230910510F482E090E0E0916E
:100F20005402F091550220E030E0C0E0D0E030976C
:100F300011F14081518148175907C0F048175907EE
:100F400061F482819381209719F09B838A832BC05F
:100F5000909355028093540226C02115310519F053
:100F60004217530718F49A01BE01DF01EF01028016
:100F7000F381E02DDCCF2115310509F1281B390B58
:100F80002430310590F412968D919C911397611540
:100F9000710521F0FB019383828304C09093550275
:100FA00080935402FD01329644C0FD01E20FF31F0D
:100FB00081939193225031092D933C933AC0209113
:100FC000520230915302232B41F4209106013091BB
:100FD0000701309353022093520220910401309173
:100FE00005012115310541F42DB73EB740910801A7
:100FF00050910901241B350BE0915202F0915302EC
:10100000E217F307A0F42E1B3F0B2817390778F0DF
:10101000AC014E5F5F4F2417350748F04E0F5F1F3E
:1010200050935302409352028193919302C0E0E0A7
:10103000F0E0CF01DF91CF9108950F931F93CF93ED
:10104000DF93009709F48CC0FC013297138212825F
:1010500000915402109155020115110581F420816F
:101060003181820F931F2091520230915302281731
:10107000390779F5F0935302E093520271C0D80119
:1010800040E050E0AE17BF0750F412962D913C910E
:101090001397AD012115310509F1D901F3CF9D0158
:1010A000DA013383228360817181860F971F821753
:1010B000930769F4EC0128813981260F371F2E5FD1
:1010C0003F4F318320838A819B8193838283452B89
:1010D00029F4F0935502E093540242C01396FC9316
:1010E000EE931297ED01499159919E01240F351FFE
:1010F000E217F30771F480819181840F951F0296A6
:1011000011969C938E938281938113969C938E93D8
:101110001297E0E0F0E0D80112968D919C91139720
:10112000009719F0F8018C01F6CF8D919C919801F0
:101130002E5F3F4F820F931F209152023091530236
:101140002817390769F4309729F410925502109244
:10115000540202C01382128210935302009352026F
:10116000DF91CF911F910F910895A0E0B0E0EBEBDC
:10117000F8E00C940E07EC01009721F4CB010E94DB
:101180008807B8C0FC01E60FF71F9C012250310907
:10119000E217F30708F4ACC0D9010D911C91119727
:1011A00006171707B0F00530110508F49FC0C801F5
:1011B00004978617970708F499C002501109061B77
:1011C000170B019311936D937C93CF010E941D081F
:1011D0008DC05B01A01AB10A4C01800E911EA09136
:1011E0005402B091550240E050E0E12CF12C1097F0
:1011F00009F44AC0A815B905D1F56D907C901197F6
:10120000630182E0C80ED11CCA14DB0480F1A30183
:101210004A195B096A0182E0C80ED11C1296BC9083
:1012200012971396AC91B5E0CB16D10440F0B28280
:10123000A38351834083D9016D937C930AC00E5FD1
:101240001F4FC301800F911FF90191838083EB2D04
:10125000FA2FE114F10431F0D7011396FC93EE93C9
:10126000129744C0F0935502E09354023FC08D9111
:101270009C9111974817590708F4AC017D0112960B
:101280000D90BC91A02DB3CF80915202909153024A
:1012900088159905E1F446175707C8F480910401B1
:1012A00090910501009741F48DB79EB740910801D8
:1012B00050910901841B950BE817F907C8F4F093C6
:1012C0005302E0935202F901718360830FC0CB0196
:1012D0000E9488077C01009759F0A801BE010E9476
:1012E0008409CE010E941D08C70104C0CE0102C0BE
:1012F00080E090E0CDB7DEB7EEE00C942A0781E005
:1013000090E0F8940C949409FB01DC0102C0019078
:101310000D9241505040D8F70895FB01DC01019037
:101320000D920020E1F7089510E0CDE5D0E004C073
:10133000FE010E9482072196CE35D107C9F7F894A5
:02134000FFCFDD
:10134200C8000000000056028000000001000800F2
:10135200200040008000000100040000010008009D
:1013620040000001000400000000D00139016801C2
:101372001702990177018B010000000091029B0383
:101382000D0A002D2D2D53544152542D2D2D004D5B
:101392006F746F7220696E697469616C697A6564D1
:1013A20021004552524F523A2043616E2774206900
:1013B2006E697469616C697A65206D6F746F7220F1
:1013C2007769746820676976656E2070696E73212B
:1013D200004252414B4521004E455720535045454E
:0413E200443A200069
:00000001FF
