:100000000C9453000C9470000C9470000C947000CD
:100010000C9470000C9470000C9470000C947000A0
:100020000C9470000C9470000C9470000C94700090
:100030000C9470000C9470000C9470000C94700080
:100040000C9472000C9470000C9470000C9470006E
:100050000C9470000C9470000C9470000C94700060
:100060000C9470000C947000000000002500280023
:100070002B0000000000240027002A0004040404D0
:100080000404040402020202020203030303030342
:10009000010204081020408001020408102001021F
:1000A00004081020210111241FBECFEFD8E0DEBFCD
:1000B000CDBF21E0A0E0B1E001C01D92A531B207A3
:1000C000E1F710E0C3E5D0E004C02197FE010E94F3
:1000D0003A01C235D107C9F70E94BC000C94400117
:1000E0000C9400001F920F920FB60F9211242F93C1
:1000F0003F938F939F93AF93BF9380911101909102
:100100001201A0911301B09114013091100123E06C
:10011000230F2D3720F40196A11DB11D05C026E83F
:10012000230F0296A11DB11D209310018093110190
:1001300090931201A0931301B093140180910C01CC
:1001400090910D01A0910E01B0910F010196A11D9A
:10015000B11D80930C0190930D01A0930E01B093FB
:100160000F01BF91AF919F918F913F912F910F9070
:100170000FBE0F901F901895789484B5826084BD4F
:1001800084B5816084BD85B5826085BD85B581609B
:1001900085BD80916E00816080936E001092810019
:1001A00080918100826080938100809181008160D4
:1001B0008093810080918000816080938000809195
:1001C000B10084608093B1008091B0008160809321
:1001D000B00080917A00846080937A0080917A00E8
:1001E000826080937A0080917A00816080937A00A7
:1001F00080917A00806880937A001092C100E9E9CA
:10020000F0E02491E5E8F0E08491882399F090E013
:10021000880F991FFC01EE58FF4FA591B491FC0186
:10022000E859FF4F859194918FB7F894EC91E22BA8
:10023000EC938FBFC0E0D0E02097F1F30E94000064
:10024000FBCFE0E0F1E080E890E09183808381E8FB
:1002500090E09383828389E890E09583848388E8A3
:1002600090E09783868385E890E0918780879387E5
:1002700082870895EE0FFF1F0590F491E02D0994F9
:04028000F894FFCF20
:00000001FF
