:100000000C945D000C9485000C9485000C94850084
:100010000C9485000C9485000C9485000C9485004C
:100020000C9485000C9485000C9485000C9485003C
:100030000C9485000C9485000C9485000C9485002C
:100040000C94CF030C9485000C943F040C94190479
:100050000C9485000C9485000C9485000C9485000C
:100060000C9485000C9485000000000024002700FB
:100070002A0000000000250028002B0004040404CE
:100080000404040402020202020203030303030342
:10009000010204081020408001020408102001021F
:1000A00004081020000000080002010000030407FB
:1000B0000000000000000000710411241FBECFEFFB
:1000C000D8E0DEBFCDBF22E0A4E4B1E001C01D92C4
:1000D000A432B207E1F711E0A0E0B1E0EAE2FCE10E
:1000E00002C005900D92A434B107D9F710E0CDE518
:1000F000D0E004C02197FE010E94010CCC35D1074D
:10010000C9F70E94CC040C94130E0C9400002FB776
:10011000F89480914F0190915001A0915101B091BC
:1001200052012FBF80935B0190935C01A0935D010E
:10013000B0935E01E0915301F09154010284F38584
:10014000E02D83E591E0099597FF26C02FB7F8943D
:1001500080914F0190915001A0915101B0915201B5
:100160002FBF40915B0150915C0160915D017091E6
:100170005E01841B950BA60BB70B40915701509164
:1001800058016091590170915A0184179507A6078B
:10019000B70780F28FEF9FEF089590E0FC01EC55D8
:1001A000FF4F3491FC01E057FF4F2491FC01E458CC
:1001B000FF4FE491EE2309F43BC0332339F1333090
:1001C00091F038F43130A9F0323001F584B58F7DEB
:1001D00012C0373091F03830A1F03430B9F480914A
:1001E00080008F7D03C0809180008F778093800096
:1001F0000DC084B58F7784BD09C08091B0008F7722
:1002000003C08091B0008F7D8093B000F0E0EE0FCE
:10021000FF1FEE58FF4FA591B4918FB7F894EC9162
:10022000611103C020952E2301C02E2B2C938FBF6C
:100230000895CF93DF9390E0FC01E057FF4F2491A6
:10024000FC01E458FF4F8491882361F190E0880F0E
:10025000991FFC01E859FF4FC591D491FC01EE585C
:10026000FF4FA591B491611109C09FB7F89488819F
:10027000209582238883EC912E230BC0623061F499
:100280009FB7F8943881822F809583238883EC91DF
:100290002E2B2C939FBF06C08FB7F894E8812E2B8E
:1002A00028838FBFDF91CF9108950F931F93CF9332
:1002B000DF938C01EB0161E08091F8010E9419014C
:1002C00061E08091F8010E94CD0061E08091FA0127
:1002D0000E94190160E08091FA010E94CD00809196
:1002E000FC019091FD018F3F2FEF920741F061E0FB
:1002F0000E94190161E08091FC010E94CD001093E1
:10030000010200930002E091F001F091F1010280FE
:10031000F381E02DBE0180EF91E009958091FC0111
:100320009091FD018F3F2FEF920739F060E0DF9150
:10033000CF911F910F910C94CD00DF91CF911F9120
:100340000F9108953FB7F89480914B0190914C0123
:10035000A0914D01B0914E0126B5A89B05C02F3F3D
:1003600019F00196A11DB11D3FBFBA2FA92F982FDB
:100370008827820F911DA11DB11DBC01CD0142E056
:10038000660F771F881F991F4A95D1F70895CF925E
:10039000DF92EF92FF920F931F93CF93DF936C0145
:1003A0007A018B01C0E0D0E0CE15DF0589F0D801DD
:1003B0006D918D01D601ED91FC910190F081E02DC0
:1003C000C6010995892B11F47E0102C02196ECCF5C
:1003D000C701DF91CF911F910F91FF90EF90DF90B8
:1003E000CF900895089580E090E00895FC01538D2A
:1003F000448D252F30E0842F90E0821B930B5417FF
:1004000010F0CF96089501970895FC01918D828D8B
:10041000981761F0828DDF01A80FB11D5D968C9158
:10042000928D9F5F9F73928F90E008958FEF9FEF63
:100430000895FC01918D828D981731F0828DE80F1F
:10044000F11D858D90E008958FEF9FEF0895FC01D9
:10045000918D228D892F90E0805C9F4F821B9109A6
:100460008F739927089583E591E00E94270221E088
:10047000892B09F420E0822F0895FC01848DDF018F
:10048000A80FB11DA35ABF4F2C91848D90E0019607
:100490008F739927848FA689B7892C93A089B189F6
:1004A0008C9180648C93938D848D981306C0028800
:1004B000F389E02D80818F7D80830895EF92FF92F4
:1004C0000F931F93CF93DF93EC0181E0888F9B8D77
:1004D0008C8D981305C0E889F989808185FD24C039
:1004E000F62E0B8D10E00F5F1F4F0F731127E02EBC
:1004F0008C8DE8120CC00FB607FCFACFE889F98999
:10050000808185FFF5CFCE010E943D02F1CF8B8D1A
:10051000FE01E80FF11DE35AFF4FF0820B8FEA89CD
:10052000FB898081806207C0EE89FF896083E8894A
:10053000F98980818064808381E090E0DF91CF91B0
:100540001F910F91FF90EF900895CF93DF93EC01EF
:10055000888D8823C9F0EA89FB89808185FD05C0E3
:10056000A889B9898C9186FD0FC00FB607FCF5CF1D
:10057000808185FFF2CFA889B9898C9185FFEDCF65
:10058000CE010E943D02E7CFDF91CF91089580E038
:1005900090E0892B29F00E94330281110C94000015
:1005A000089580E290E0089580E890E00895EF9249
:1005B000FF920F931F93CF93DF93EC017B0101E038
:1005C00010E0E881F9810190F081E02DCE010995DC
:1005D000801791074CF0E016F10619F4FF86EE86BD
:1005E00003C0000F111FEDCF8E859F85DF91CF9146
:1005F0001F910F91FF90EF900895CF93DF93EC013F
:100600000E94D7028CA59DA50196C9F18EA59FA534
:100610008F3F2FEF920799F161E00E94190161E08D
:100620008E859F8508970CF460E08EA50E94CD0012
:100630008E859F8584309105F1F034F481309105E9
:1006400059F0029779F01BC08031910559F0803242
:10065000910589F0089799F461E08CA50E94190131
:1006600060E005C061E08CA50E94190161E08CA5E5
:100670000E94CD0004C060E08CA50E9419018E8507
:100680009F85DF91CF910895CF93DF93009779F005
:10069000FC0101900020E9F73197AF01481B590B8D
:1006A000BC0183E591E00E94C701EC0102C0C0E0FB
:1006B000D0E042E050E060E271E083E591E00E942A
:1006C000C7018C0F9D1FDF91CF9108950E94FE0DF1
:1006D0000F931F93CF93DF93EC018881998100974B
:1006E00029F02A813B812617370788F48B016F5F39
:1006F0007F4F0E94340D009761F0998388831B839C
:100700000A832C813D81232B11F4FC01108281E0AE
:1007100001C080E0DF91CF911F910F910895EF927A
:10072000FF920F931F93CF93DF93EC0119821882EE
:100730001B821A821D821C826115710549F18B0191
:10074000FB0101900020E9F731977F01E61AF70AD3
:10075000B7010E9468032881398181110DC02115DC
:10076000310519F0C9010E949C0C198218821D8262
:100770001C821B821A820CC0FD82EC82B801C90166
:10078000DF91CF911F910F91FF90EF900C940C0E81
:10079000DF91CF911F910F91FF90EF9008951F92DD
:1007A0000F920FB60F9211242F933F938F939F9325
:1007B000AF93BF9380914F0190915001A09151014F
:1007C000B091520130914A0123E0230F2D3720F4DC
:1007D0000196A11DB11D05C026E8230F0296A11D9B
:1007E000B11D20934A0180934F0190935001A09333
:1007F0005101B093520180914B0190914C01A09115
:100800004D01B0914E010196A11DB11D80934B0188
:1008100090934C01A0934D01B0934E01BF91AF91C5
:100820009F918F913F912F910F900FBE0F901F902E
:1008300018951F920F920FB60F9211242F933F938A
:100840004F935F936F937F938F939F93AF93BF93D8
:10085000EF93FF9383E591E00E943D02FF91EF91BA
:10086000BF91AF919F918F917F916F915F914F91C8
:100870003F912F910F900FBE0F901F9018951F92D0
:100880000F920FB60F9211242F938F939F93EF9394
:10089000FF93E0916301F09164018081E09169012F
:1008A000F0916A0182FD12C0908180916C018F5F8E
:1008B0008F7320916D01821751F0E0916C01F0E08F
:1008C000ED5AFE4F958F80936C0101C08081FF919E
:1008D000EF919F918F912F910F900FBE0F901F90CE
:1008E0001895E3E5F1E01382128288EE93E0A0E030
:1008F000B0E084839583A683B7838AE091E09183F7
:10090000808385EC90E09587848784EC90E09787DE
:10091000868780EC90E0918B808B81EC90E0938BCC
:10092000828B82EC90E0958B848B86EC90E0978BA9
:10093000868B118E128E138E148EE0EFF1E088EC10
:1009400090E09383828388EE93E0958384839783FA
:10095000868388E090E09187808789E090E09387A4
:1009600082878DE090E09587848781E090E097878B
:100970008687118A108A138A128A13A612A68CE11E
:1009800091E0918380838AE090E095A784A78BE033
:1009900090E097A786A70895CF93DF93CDB7DEB7F2
:1009A000A2970FB6F894DEBF0FBECDBF789484B582
:1009B000826084BD84B5816084BD85B5826085BD5B
:1009C00085B5816085BD80916E00816080936E00E9
:1009D00010928100809181008260809381008091DB
:1009E000810081608093810080918000816080938C
:1009F00080008091B10084608093B1008091B0004C
:100A000081608093B00080917A00846080937A0046
:100A100080917A00826080937A0080917A00816070
:100A200080937A0080917A00806880937A00109297
:100A3000C100E0916301F091640182E08083E09164
:100A40005F01F09160011082E0916101F09162011B
:100A50008FEC808310926B01E0916701F091680147
:100A600086E08083E0916501F0916601808180617C
:100A70008083E0916501F0916601808188608083C8
:100A8000E0916501F0916601808180688083E0914A
:100A90006501F091660180818F7D808383E291E022
:100AA0000E94440361E070E082E390E00E945501FF
:100AB000ACE32A2E312C01E010E083E591E00E94A6
:100AC0002702892B09F4BDC062E271E0CE010196D4
:100AD0000E948F030E94870097FD1CC0898B1A8A91
:100AE000ED80FE802FEFE21AF20AB701CE010196E7
:100AF0000E946803882371F329813A818D819E8148
:100B0000BE016F5E7F4F820F931F0E940C0EFE820C
:100B1000ED82E0CFC980DA80C6010E94C7087C015F
:100B20009093490180934801C6010E949C0CE114F6
:100B3000F10479F481E391E00E9444038091FC0187
:100B40009091FD018F3F3FEF930709F47AC061E078
:100B500076C04AE0BE016F5F7F4FC7010E94E50883
:100B6000BE016F5F7F4FCE0141960E948F0367E306
:100B700071E0CE0101960E948F038D899E89C988FC
:100B8000DA88ED80FE80C114D104B9F0009709F134
:100B9000E80EF91EB701CE0101960E946803882372
:100BA00061F029813A818D819E81B601820F931F68
:100BB0000E940C0EFE82ED820CC089819A81009702
:100BC00011F00E949C0C1A8219821E821D821C82C6
:100BD0001B824D815E8169817A8183E591E00E946B
:100BE000C70142E050E060E271E083E591E00E94DD
:100BF000C70189819A810E949C0C89899A890E94E7
:100C00009C0CE0904801F090490180910002909185
:100C10000102892B39F46091FE017091FF01C70137
:100C20000E945501F0920102E09200028091FC01C5
:100C30009091FD018F3F4FEF940719F060E00E9403
:100C4000CD00A090F201B090F301C5010B2C000C77
:100C5000AA0BBB0B8F8B988FA98FBA8F8090FE0148
:100C60009090FF012401092C000C6608770828E603
:100C700031E0D5010E94BC0B9B01AC01C301B20164
:100C80000E94710B28E631E040E050E00E94950B95
:100C9000DA01C90180959095A095B0958827B7FD98
:100CA00083959927AA27BB2790931902809318024E
:100CB00010921B0210921A0269017A0157FF08C0B4
:100CC000F094E094D094C094C11CD11CE11CF11CA0
:100CD000C0920802D0920902E0920A02F0920B023E
:100CE000109204021092050210920602109207025E
:100CF0008091020290910302209100023091010242
:100D0000019709F09EC0A29EC001A39E900DB29EC5
:100D1000900D1124B1010E94810BA090F401B090BC
:100D2000F5019B01DB010E94B40B9B01AC01C301E7
:100D3000B2010E94710B9501220F331F032E000C8C
:100D4000440B550B0E94950B29013A0120930C028C
:100D500030930D0240930E0250930F02E091F60182
:100D6000F091F7019F010F2E000C440B550B2F8BB8
:100D7000388F498F5A8FA70196016F89788D898D99
:100D80009A8D0E94710B95012E0F3F1F032E000CB0
:100D9000440B550B0E94950B4216530664067506CC
:100DA000A4F4D501A30192010E94C30B2F89388DB1
:100DB000498D5A8D0E94950B209310023093110299
:100DC000409312025093130214C020930C023093EC
:100DD0000D0240930E0250930F02C21AD30AE40A86
:100DE000F50AC0921002D0921102E0921202F09223
:100DF0001302A89CB001A99C700DB89C700D112421
:100E0000072E000C880B990B0E9424099B01AC0152
:100E100060E070E080E090E40E946E0A0E941C0B8B
:100E200020E03AE045E259E40E945F090E94E00AAE
:100E30006093140270931502809316029093170228
:100E400020C0032E000C440B550B60E077E883E9CB
:100E500093E00E94950BCA01B9012F89388D498D05
:100E60005A8D0E94950BCA01B901A30192010E94FB
:100E7000950B209314023093150240931602509361
:100E800017028091080290910902A0910A02B09184
:100E90000B02181619061A061B060CF059C16091B0
:100EA00018028091F8010E94CD0080911A02909161
:100EB0001B02892B29F410931B0200931A0204C011
:100EC00010921B0210921A0260911A028091FA018C
:100ED0000E94CD000E94A2016F8F78A389A39AA3DC
:100EE00080911A0290911B02892B09F013C1809105
:100EF000080290910902A0910A02B0910B02181603
:100F000019061A061B060CF005C19C01AD01215003
:100F10003109410951092093080230930902409395
:100F20000A0250930B02C0900402D0900502E09098
:100F30000602F09007028FEFC81AD80AE80AF80AEA
:100F4000C0920402D0920502E0920602F0920702DB
:100F50008091020290910302019709F0DBC0809119
:100F60000C0290910D02A0910E02B0910F028F8B96
:100F7000988FA98FBA8F8C159D05AE05BF050CF40F
:100F800069C091E0C916D104E104F10441F4109262
:100F900044011092450110924601109247012091A0
:100FA00014023091150240911602509117022B8FB6
:100FB0003C8F4D8F5E8F4090440150904501609072
:100FC0004601709047014601570162E0880C991C68
:100FD000AA1CBB1C6A95D1F7DA01C901880F991FB9
:100FE000AA1FBB1FBC01CD01640D751D861D971D79
:100FF000A501940120953095409550950E94950B40
:101000008B8D9C8DAD8DBE8D820F931FA41FB51F40
:101010008093140290931502A0931602B0931702C6
:101020002F89388D498D5A8DC216D306E406F506F0
:101030006CF4880F991FAA1FBB1FBC01CD01640D62
:10104000751D861D971DA501940156C060E070E0D6
:10105000CB0158C08091100290911102A091120210
:10106000B091130282179307A407B5070CF452C07E
:101070004090140250901502609016027090170272
:101080008090440190904501A0904601B0904701A6
:10109000ACEFBFEF0E94C60B6B017C01D301C20114
:1010A000880F991FAA1FBB1FBC01CD01680D791DB8
:1010B0008A1D9B1DA701960120953095409550955E
:1010C0000E94950BD301C201820F931FA41FB51F6D
:1010D0008093140290931502A0931602B093170206
:1010E000880F991FAA1FBB1FBC01CD01680D791D78
:1010F0008A1D9B1DA70196012F5F3F4F4F4F5F4FEA
:101100000E94950B609344017093450180934601C2
:10111000909347010E94A20120911A0230911B0274
:10112000232BD1F48090140290901502A090160207
:10113000B090170231E0831A9108A108B1084F8DD1
:1011400058A1641B750B861A970AA108B10808C03C
:10115000812C912C540104C0812C912C5401839436
:101160000E94A20175016401C60ED71EE81EF91E79
:101170000E94A2016C157D058E059F05C8F3892884
:101180008A288B2809F07DCE0E94C70296CCFC01EC
:1011900088279927E89421912032E9F3293010F02B
:1011A0002E30C8F32B3241F02D3239F4689404C04C
:1011B0000E94F008820F911D219120532A30C0F324
:1011C0001EF4909581959F4F0895BB274A3031F4C6
:1011D000992322F4BDE2909581959F4F0C94F908D4
:1011E0007AE0979F902D879F802D910D112408956F
:1011F000BB27FB015527AA27880F991FAA1FA417F1
:1012000010F0A41B83955051B9F7A05DAA3308F0E4
:10121000A95DA193009779F7B111B1931192CB0118
:101220000C941209DC01FC01672F71917723E1F71F
:10123000329704C07C916D9370836291AE17BF07A3
:10124000C8F30895E89409C097FB3EF49095809503
:10125000709561957F4F8F4F9F4F9923A9F0F92F7C
:1012600096E9BB279395F695879577956795B795FA
:10127000F111F8CFFAF4BB0F11F460FF1BC06F5FE0
:101280007F4F8F4F9F4F16C0882311F096E911C0F2
:10129000772321F09EE8872F762F05C0662371F013
:1012A00096E8862F70E060E02AF09A95660F771F27
:1012B000881FDAF7880F9695879597F908950E9409
:1012C00072090C94E3090E94D50938F00E94DC09E8
:1012D00020F0952311F00C94CC090C94D209112420
:1012E0000C94170A0E94F40970F3959FC1F3950FAF
:1012F00050E0551F629FF001729FBB27F00DB11D9A
:10130000639FAA27F00DB11DAA1F649F6627B00D29
:10131000A11D661F829F2227B00DA11D621F739F12
:10132000B00DA11D621F839FA00D611D221F749F20
:101330003327A00D611D231F849F600D211D822F67
:10134000762F6A2F11249F5750409AF0F1F088238E
:101350004AF0EE0FFF1FBB1F661F771F881F9150BB
:101360005040A9F79E3F510580F00C94CC090C9495
:10137000170A5F3FE4F3983ED4F386957795679517
:10138000B795F795E7959F5FC1F7FE2B880F911DE5
:101390009695879597F9089597F99F6780E870E08B
:1013A00060E008959FEF80EC089500240A941616DB
:1013B000170618060906089500240A941216130643
:1013C000140605060895092E0394000C11F48823D1
:1013D00052F0BB0F40F4BF2B11F460FF04C06F5FED
:1013E0007F4F8F4F9F4F089557FD9058440F551FC3
:1013F00059F05F3F71F04795880F97FB991F61F097
:101400009F3F79F087950895121613061406551F0D
:10141000F2CF4695F1DF08C0161617061806991F79
:10142000F1CF86957105610508940895E894BB276E
:1014300066277727CB0197F908950E945F0AA59F39
:10144000900DB49F900DA49F800D911D11240895BF
:101450002F923F924F925F926F927F928F929F92C4
:10146000AF92BF92CF92DF92EF92FF920F931F93B2
:10147000CF93DF93CDB7DEB7CA1BDB0B0FB6F89463
:10148000DEBF0FBECDBF09942A88398848885F84A3
:101490006E847D848C849B84AA84B984C884DF8014
:1014A000EE80FD800C811B81AA81B981CE0FD11DF8
:1014B0000FB6F894DEBF0FBECDBFED010895A29F19
:1014C000B001B39FC001A39F700D811D1124911D18
:1014D000B29F700D811D1124911D08950E94820AF2
:1014E0000C94E3090E94DC0958F00E94D50940F0F1
:1014F00029F45F3F29F00C94CC0951110C94170A80
:101500000C94D2090E94F40968F39923B1F355238E
:1015100091F3951B550BBB27AA2762177307840706
:1015200038F09F5F5F4F220F331F441FAA1FA9F39C
:1015300035D00E2E3AF0E0E832D091505040E6958A
:10154000001CCAF72BD0FE2F29D0660F771F881FEB
:10155000BB1F261737074807AB07B0E809F0BB0BDE
:10156000802DBF01FF2793585F4F3AF09E3F5105F2
:1015700078F00C94CC090C94170A5F3FE4F3983E82
:10158000D4F3869577956795B795F7959F5FC9F7DB
:10159000880F911D9695879597F90895E1E0660F5C
:1015A000771F881FBB1F621773078407BA0720F0D5
:1015B000621B730B840BBA0BEE1F88F7E09508953E
:1015C0000E94E70A6894B1110C94170A08950E94CA
:1015D000FC0988F09F5798F0B92F9927B751B0F0C0
:1015E000E1F0660F771F881F991F1AF0BA95C9F7A7
:1015F00014C0B13091F00E94160AB1E008950C9425
:10160000160A672F782F8827B85F39F0B93FCCF3D7
:10161000869577956795B395D9F73EF49095809523
:10162000709561957F4F8F4F9F4F089519F416F471
:101630000C94D2090C945C0B0E94FC09B8F399231A
:10164000C9F3B6F39F57550B87FF0E946A0B00241E
:10165000A0E640EA900180585695979528F4805C62
:10166000660F771F881F20F026173707480730F4CA
:10167000621B730B840B202931294A2BA6951794E2
:101680000794202531254A2758F7660F771F881FB2
:1016900020F026173707480730F4620B730B840BD2
:1016A000200D311D411DA09581F7B901842F91585E
:1016B000880F9695879508959F3F31F0915020F4BB
:1016C000879577956795B795880F911D969587951E
:1016D00097F9089591505040660F771F881FD2F7F1
:1016E0000895DB018F939F930E941D0ABF91AF91D4
:1016F000A29F800D911DA39F900DB29F900D11246C
:10170000089597FB072E16F4009407D077FD09D0B3
:101710000E94CB0B07FC05D03EF4909581959F4F1E
:101720000895709561957F4F0895052E97FB1EF4DF
:1017300000940E94AC0B57FD07D00E94DF0B07FC02
:1017400003D04EF40C94AC0B5095409530952195F8
:101750003F4F4F4F5F4F08959095809570956195DD
:101760007F4F8F4F9F4F08950E945F0A332312F4DB
:101770008A1B9B0B0C94BE0B0E945F0AB7FF089557
:10178000821B930B0895B7FF0C941D0A0E941D0A3B
:10179000821B930B0895AA1BBB1B51E107C0AA1F14
:1017A000BB1FA617B70710F0A61BB70B881F991F02
:1017B0005A95A9F780959095BC01CD010895A1E2B5
:1017C0001A2EAA1BBB1BFD010DC0AA1FBB1FEE1FBB
:1017D000FF1FA217B307E407F50720F0A21BB30B06
:1017E000E40BF50B661F771F881F991F1A9469F782
:1017F00060957095809590959B01AC01BD01CF01DE
:101800000895EE0FFF1F0590F491E02D0994CF93FA
:10181000DF938230910510F482E090E0E0912202A3
:10182000F091230220E030E0C0E0D0E0309711F1E9
:101830004081518148175907C0F04817590761F492
:1018400082819381209719F09B838A832BC0909388
:1018500023028093220226C02115310519F0421778
:10186000530718F49A01BE01DF01EF010280F381F2
:10187000E02DDCCF2115310509F1281B390B24306F
:10188000310590F412968D919C9113976115710515
:1018900021F0FB019383828304C090932302809301
:1018A0002202FD01329644C0FD01E20FF31F819335
:1018B0009193225031092D933C933AC020912002FC
:1018C00030912102232B41F4209102013091030138
:1018D00030932102209320022091000130910101D8
:1018E0002115310541F42DB73EB7409104015091C7
:1018F0000501241B350BE0912002F0912102E21733
:10190000F307A0F42E1B3F0B2817390778F0AC0122
:101910004E5F5F4F2417350748F04E0F5F1F5093FF
:101920002102409320028193919302C0E0E0F0E015
:10193000CF01DF91CF9108950F931F93CF93DF9342
:10194000009709F48CC0FC01329713821282009137
:101950002202109123020115110581F420813181A9
:10196000820F931F209120023091210228173907FE
:1019700079F5F0932102E093200271C0D80140E094
:1019800050E0AE17BF0750F412962D913C9113977B
:10199000AD012115310509F1D901F3CF9D01DA011E
:1019A0003383228360817181860F971F821793078B
:1019B00069F4EC0128813981260F371F2E5F3F4FD4
:1019C000318320838A819B8193838283452B29F4F1
:1019D000F0932302E093220242C01396FC93EE930D
:1019E0001297ED01499159919E01240F351FE2177D
:1019F000F30771F480819181840F951F02961196EF
:101A00009C938E938281938113969C938E931297CD
:101A1000E0E0F0E0D80112968D919C911397009729
:101A200019F0F8018C01F6CF8D919C9198012E5FF1
:101A30003F4F820F931F20912002309121022817DF
:101A4000390769F4309729F4109223021092220288
:101A500002C0138212821093210200932002DF91B0
:101A6000CF911F910F910895A0E0B0E0EAE3FDE06F
:101A70000C942C0AEC01009721F4CB010E94070C76
:101A8000B8C0FC01E60FF71F9C0122503109E21794
:101A9000F30708F4ACC0D9010D911C9111970617FA
:101AA0001707B0F00530110508F49FC0C80104976E
:101AB0008617970708F499C002501109061B170BE7
:101AC000019311936D937C93CF010E949C0C8DC068
:101AD0005B01A01AB10A4C01800E911EA091220256
:101AE000B091230240E050E0E12CF12C109709F472
:101AF0004AC0A815B905D1F56D907C901197630186
:101B000082E0C80ED11CCA14DB0480F1A3014A197B
:101B10005B096A0182E0C80ED11C1296BC90129734
:101B20001396AC91B5E0CB16D10440F0B282A383FA
:101B300051834083D9016D937C930AC00E5F1F4F80
:101B4000C301800F911FF90191838083EB2DFA2F40
:101B5000E114F10431F0D7011396FC93EE93129740
:101B600044C0F0932302E09322023FC08D919C91E8
:101B700011974817590708F4AC017D0112960D9092
:101B8000BC91A02DB3CF80912002909121028815A5
:101B90009905E1F446175707C8F480910001909128
:101BA0000101009741F48DB79EB740910401509117
:101BB0000501841B950BE817F907C8F4F09321027F
:101BC000E0932002F901718360830FC0CB010E9472
:101BD000070C7C01009759F0A801BE010E94030E7A
:101BE000CE010E949C0CC70104C0CE0102C080E05F
:101BF00090E0CDB7DEB7EEE00C94480A81E090E0CB
:101C0000F8940C94130EFB01DC0102C001900D92BC
:101C100041505040D8F70895FB01DC0101900D922E
:0A1C20000020E1F70895F894FFCFCB
:101C2A00000024028000000000005E02C701F601E5
:101C3A00A50227020502190200000000D102FD02D6
:101C4A000D0A002D2D2D535441525445442D2D2D4E
:101C5A00004252414B45004E6577207370656564BA
:041C6A003A2000001C
:00000001FF
